{
  "transactions": [
    {
      "hash": "0x429741702c28d43399fc69ef3863c8bbbe685181abb382217a72a5009ef760bc",
      "transactionType": "CALL",
      "contractName": null,
      "contractAddress": "0x2a2692165299c0469894e1e6bf62d35ea347ea3e",
      "function": "createMarket(string,uint256)",
      "arguments": [
        "Will ETH price exceed $5000 by the end of 2024?",
        "1744524772"
      ],
      "transaction": {
        "from": "0x4b4b30e2e7c6463b03cdffd6c42329d357205334",
        "to": "0x2a2692165299c0469894e1e6bf62d35ea347ea3e",
        "gas": "0x50540",
        "value": "0x0",
        "input": "0x883c84c100000000000000000000000000000000000000000000000000000000000000400000000000000000000000000000000000000000000000000000000067fb55e4000000000000000000000000000000000000000000000000000000000000002f57696c6c20455448207072696365206578636565642024353030302062792074686520656e64206f6620323032343f0000000000000000000000000000000000",
        "nonce": "0x15e",
        "chainId": "0x14a34"
      },
      "additionalContracts": [],
      "isFixedGasLimit": false
    },
    {
      "hash": "0x9354c954910b81619e883ae6cc606493436db77b2e4f2ad5878bbb906b01ceb2",
      "transactionType": "CALL",
      "contractName": null,
      "contractAddress": "0x2a2692165299c0469894e1e6bf62d35ea347ea3e",
      "function": "buy(uint256,bool,uint256)",
      "arguments": [
        "6",
        "true",
        "1000000000000000000"
      ],
      "transaction": {
        "from": "0x4b4b30e2e7c6463b03cdffd6c42329d357205334",
        "to": "0x2a2692165299c0469894e1e6bf62d35ea347ea3e",
        "gas": "0xa6dcf",
        "value": "0x0",
        "input": "0x438af924000000000000000000000000000000000000000000000000000000000000000600000000000000000000000000000000000000000000000000000000000000010000000000000000000000000000000000000000000000000de0b6b3a7640000",
        "nonce": "0x15f",
        "chainId": "0x14a34"
      },
      "additionalContracts": [],
      "isFixedGasLimit": false
    },
    {
      "hash": "0xf5c8f7857670d56d1815db40fa77f5071d2f13720c9441e59cf649f4df134030",
      "transactionType": "CALL",
      "contractName": null,
      "contractAddress": "0x2a2692165299c0469894e1e6bf62d35ea347ea3e",
      "function": "buy(uint256,bool,uint256)",
      "arguments": [
        "6",
        "false",
        "1000000000000000000"
      ],
      "transaction": {
        "from": "0x4b4b30e2e7c6463b03cdffd6c42329d357205334",
        "to": "0x2a2692165299c0469894e1e6bf62d35ea347ea3e",
        "gas": "0x93bd6",
        "value": "0x0",
        "input": "0x438af924000000000000000000000000000000000000000000000000000000000000000600000000000000000000000000000000000000000000000000000000000000000000000000000000000000000000000000000000000000000de0b6b3a7640000",
        "nonce": "0x160",
        "chainId": "0x14a34"
      },
      "additionalContracts": [],
      "isFixedGasLimit": false
    }
  ],
  "receipts": [
    {
      "status": "0x1",
      "cumulativeGasUsed": "0xcc2cde",
      "logs": [
        {
          "address": "0x2a2692165299c0469894e1e6bf62d35ea347ea3e",
          "topics": [
            "0x57d0d124b72f81ed1da0dc728fc33db342705974792928796f6577b8db5c3d53",
            "0x0000000000000000000000000000000000000000000000000000000000000006"
          ],
          "data": "0x00000000000000000000000000000000000000000000000000000000000000600000000000000000000000000000000000000000000000000000000067fb55e40000000000000000000000004b4b30e2e7c6463b03cdffd6c42329d357205334000000000000000000000000000000000000000000000000000000000000002f57696c6c20455448207072696365206578636565642024353030302062792074686520656e64206f6620323032343f0000000000000000000000000000000000",
          "blockHash": "0x54d5274cec3366876d00880e2d63346435e22175c380b615427cf44459aab58e",
          "blockNumber": "0x160350a",
          "transactionHash": "0x429741702c28d43399fc69ef3863c8bbbe685181abb382217a72a5009ef760bc",
          "transactionIndex": "0x43",
          "logIndex": "0x11a",
          "removed": false
        }
      ],
      "logsBloom": "0x00000000000000000000000000000000000000000000000000000000000000000000000000000000000000000000000000000000000400000000000000000000000000000000000000000000000000000000000000000000000000000000000000000000000000000000000000000000000000000000000000000000000000000000000400000000800080000000000000000000000200000000000000000000000000000000000000000000000000000000000000000000000000080000000001000000000000000000000000000000000000000000000000000000000000000004000000000000000000000000000000000000000000000000000100000000",
      "type": "0x2",
      "transactionHash": "0x429741702c28d43399fc69ef3863c8bbbe685181abb382217a72a5009ef760bc",
      "transactionIndex": "0x43",
      "blockHash": "0x54d5274cec3366876d00880e2d63346435e22175c380b615427cf44459aab58e",
      "blockNumber": "0x160350a",
      "gasUsed": "0x3a280",
      "effectiveGasPrice": "0x1a3624",
      "from": "0x4b4b30e2e7c6463b03cdffd6c42329d357205334",
      "to": "0x2a2692165299c0469894e1e6bf62d35ea347ea3e",
      "contractAddress": null,
      "l1BaseFeeScalar": "0x44d",
      "l1BlobBaseFee": "0x1",
      "l1BlobBaseFeeScalar": "0xa118b",
      "l1Fee": "0xbacbaf",
      "l1GasPrice": "0x562e05",
      "l1GasUsed": "0x7b0"
    },
    {
      "status": "0x1",
      "cumulativeGasUsed": "0xd34e61",
      "logs": [
        {
          "address": "0x3f82b5df8386dba87c48b3607a0a0d029dd1ffc5",
          "topics": [
            "0xddf252ad1be2c89b69c2b068fc378daa952ba7f163c4a11628f55a4df523b3ef",
            "0x0000000000000000000000004b4b30e2e7c6463b03cdffd6c42329d357205334",
            "0x0000000000000000000000002a2692165299c0469894e1e6bf62d35ea347ea3e"
          ],
          "data": "0x000000000000000000000000000000000000000000000000071cbf4d05554756",
          "blockHash": "0x54d5274cec3366876d00880e2d63346435e22175c380b615427cf44459aab58e",
          "blockNumber": "0x160350a",
          "transactionHash": "0x9354c954910b81619e883ae6cc606493436db77b2e4f2ad5878bbb906b01ceb2",
          "transactionIndex": "0x44",
          "logIndex": "0x11b",
          "removed": false
        },
        {
          "address": "0x2a2692165299c0469894e1e6bf62d35ea347ea3e",
          "topics": [
            "0xf812a30160cd1fb46386678219b1c28ddc923c9b3a18805e38c090fd7b41bb71",
            "0x0000000000000000000000004b4b30e2e7c6463b03cdffd6c42329d357205334",
            "0x0000000000000000000000000000000000000000000000000000000000000006"
          ],
          "data": "0x000000000000000000000000000000000000000000000000000000000000000100000000000000000000000000000000000000000000000000000000000000010000000000000000000000000000000000000000000000000de0b6b3a7640000000000000000000000000000000000000000000000000000071cbf4d05554756",
          "blockHash": "0x54d5274cec3366876d00880e2d63346435e22175c380b615427cf44459aab58e",
          "blockNumber": "0x160350a",
          "transactionHash": "0x9354c954910b81619e883ae6cc606493436db77b2e4f2ad5878bbb906b01ceb2",
          "transactionIndex": "0x44",
          "logIndex": "0x11c",
          "removed": false
        }
      ],
      "logsBloom": "0x00000000000000000000000000000000000000040000000000010000000000000000000000000000000000000000000000000000000400000000000000000008000000000010000000000008400000000000000000000008000000000000000000000000000000040000000000000000000000000000000000008010000000000000000400000000000000000000000000000000000200000000004000000000000000000000000000000000000000000000000000000000000000080000000001000002000000000000000000000000000000000000100000000000000000000000000000000000000080000000000000000000000000000000000100000010",
      "type": "0x2",
      "transactionHash": "0x9354c954910b81619e883ae6cc606493436db77b2e4f2ad5878bbb906b01ceb2",
      "transactionIndex": "0x44",
      "blockHash": "0x54d5274cec3366876d00880e2d63346435e22175c380b615427cf44459aab58e",
      "blockNumber": "0x160350a",
      "gasUsed": "0x72183",
      "effectiveGasPrice": "0x1a3624",
      "from": "0x4b4b30e2e7c6463b03cdffd6c42329d357205334",
      "to": "0x2a2692165299c0469894e1e6bf62d35ea347ea3e",
      "contractAddress": null,
      "l1BaseFeeScalar": "0x44d",
      "l1BlobBaseFee": "0x1",
      "l1BlobBaseFeeScalar": "0xa118b",
      "l1Fee": "0x97d0b6",
      "l1GasPrice": "0x562e05",
      "l1GasUsed": "0x640"
    },
    {
      "status": "0x1",
      "cumulativeGasUsed": "0xd9fdc1",
      "logs": [
        {
          "address": "0x3f82b5df8386dba87c48b3607a0a0d029dd1ffc5",
          "topics": [
            "0xddf252ad1be2c89b69c2b068fc378daa952ba7f163c4a11628f55a4df523b3ef",
            "0x0000000000000000000000004b4b30e2e7c6463b03cdffd6c42329d357205334",
            "0x0000000000000000000000002a2692165299c0469894e1e6bf62d35ea347ea3e"
          ],
          "data": "0x00000000000000000000000000000000000000000000000006c3f766a20eb88c",
          "blockHash": "0x54d5274cec3366876d00880e2d63346435e22175c380b615427cf44459aab58e",
          "blockNumber": "0x160350a",
          "transactionHash": "0xf5c8f7857670d56d1815db40fa77f5071d2f13720c9441e59cf649f4df134030",
          "transactionIndex": "0x45",
          "logIndex": "0x11d",
          "removed": false
        },
        {
          "address": "0x2a2692165299c0469894e1e6bf62d35ea347ea3e",
          "topics": [
            "0xf812a30160cd1fb46386678219b1c28ddc923c9b3a18805e38c090fd7b41bb71",
            "0x0000000000000000000000004b4b30e2e7c6463b03cdffd6c42329d357205334",
            "0x0000000000000000000000000000000000000000000000000000000000000006"
          ],
          "data": "0x000000000000000000000000000000000000000000000000000000000000000100000000000000000000000000000000000000000000000000000000000000020000000000000000000000000000000000000000000000000de0b6b3a764000000000000000000000000000000000000000000000000000006c3f766a20eb88c",
          "blockHash": "0x54d5274cec3366876d00880e2d63346435e22175c380b615427cf44459aab58e",
          "blockNumber": "0x160350a",
          "transactionHash": "0xf5c8f7857670d56d1815db40fa77f5071d2f13720c9441e59cf649f4df134030",
          "transactionIndex": "0x45",
          "logIndex": "0x11e",
          "removed": false
        }
      ],
      "logsBloom": "0x00000000000000000000000000000000000000040000000000010000000000000000000000000000000000000000000000000000000400000000000000000008000000000010000000000008400000000000000000000008000000000000000000000000000000040000000000000000000000000000000000008010000000000000000400000000000000000000000000000000000200000000004000000000000000000000000000000000000000000000000000000000000000080000000001000002000000000000000000000000000000000000100000000000000000000000000000000000000080000000000000000000000000000000000100000010",
      "type": "0x2",
      "transactionHash": "0xf5c8f7857670d56d1815db40fa77f5071d2f13720c9441e59cf649f4df134030",
      "transactionIndex": "0x45",
      "blockHash": "0x54d5274cec3366876d00880e2d63346435e22175c380b615427cf44459aab58e",
      "blockNumber": "0x160350a",
      "gasUsed": "0x6af60",
      "effectiveGasPrice": "0x1a3624",
      "from": "0x4b4b30e2e7c6463b03cdffd6c42329d357205334",
      "to": "0x2a2692165299c0469894e1e6bf62d35ea347ea3e",
      "contractAddress": null,
      "l1BaseFeeScalar": "0x44d",
      "l1BlobBaseFee": "0x1",
      "l1BlobBaseFeeScalar": "0xa118b",
      "l1Fee": "0x97d0b6",
      "l1GasPrice": "0x562e05",
      "l1GasUsed": "0x640"
    }
  ],
  "libraries": [],
  "pending": [],
  "returns": {},
  "timestamp": 1741932790,
  "chain": 84532,
  "commit": "bdfa1d4"
}