{
  "transactions": [
    {
      "hash": "0x2b15d829a7029f8609bff672518eebdaf5bee10d7b3c930b94d8439bbecbff98",
      "transactionType": "CALL",
      "contractName": null,
      "contractAddress": "0x2a2692165299c0469894e1e6bf62d35ea347ea3e",
      "function": "createMarket(string,uint256)",
      "arguments": [
        "Will ETH price exceed $5000 by the end of 2024?",
        "1744522108"
      ],
      "transaction": {
        "from": "0x4b4b30e2e7c6463b03cdffd6c42329d357205334",
        "to": "0x2a2692165299c0469894e1e6bf62d35ea347ea3e",
        "gas": "0x50540",
        "value": "0x0",
        "input": "0x883c84c100000000000000000000000000000000000000000000000000000000000000400000000000000000000000000000000000000000000000000000000067fb4b7c000000000000000000000000000000000000000000000000000000000000002f57696c6c20455448207072696365206578636565642024353030302062792074686520656e64206f6620323032343f0000000000000000000000000000000000",
        "nonce": "0x15c",
        "chainId": "0x14a34"
      },
      "additionalContracts": [],
      "isFixedGasLimit": false
    }
  ],
  "receipts": [
    {
      "status": "0x1",
      "cumulativeGasUsed": "0x2e0d80",
      "logs": [
        {
          "address": "0x2a2692165299c0469894e1e6bf62d35ea347ea3e",
          "topics": [
            "0x57d0d124b72f81ed1da0dc728fc33db342705974792928796f6577b8db5c3d53",
            "0x0000000000000000000000000000000000000000000000000000000000000004"
          ],
          "data": "0x00000000000000000000000000000000000000000000000000000000000000600000000000000000000000000000000000000000000000000000000067fb4b7c0000000000000000000000004b4b30e2e7c6463b03cdffd6c42329d357205334000000000000000000000000000000000000000000000000000000000000002f57696c6c20455448207072696365206578636565642024353030302062792074686520656e64206f6620323032343f0000000000000000000000000000000000",
          "blockHash": "0x3eeb80c1a3dee12e903bef393242c8b304b208b41a920ec398d7756461a43633",
          "blockNumber": "0x1602fd6",
          "transactionHash": "0x2b15d829a7029f8609bff672518eebdaf5bee10d7b3c930b94d8439bbecbff98",
          "transactionIndex": "0xe",
          "logIndex": "0x26",
          "removed": false
        }
      ],
      "logsBloom": "0x00000000000000000000000000000000000000000000000000000000000000000000000000000000000000000000000000000000000000000000000000000000000000000000000000000000000000000000000000000000000000000000000008000000000000000000000000000000000000000000000000000000000000000000000000000000800080000000000000000000000200000000000000000000000000000000000000000000000000000000000000000000002000000000000001000000000000000000000000000000000000008000000000000000000000000004000000000000000000000000000000000000000000000000000100000000",
      "type": "0x2",
      "transactionHash": "0x2b15d829a7029f8609bff672518eebdaf5bee10d7b3c930b94d8439bbecbff98",
      "transactionIndex": "0xe",
      "blockHash": "0x3eeb80c1a3dee12e903bef393242c8b304b208b41a920ec398d7756461a43633",
      "blockNumber": "0x1602fd6",
      "gasUsed": "0x3a280",
      "effectiveGasPrice": "0x10af4e",
      "from": "0x4b4b30e2e7c6463b03cdffd6c42329d357205334",
      "to": "0x2a2692165299c0469894e1e6bf62d35ea347ea3e",
      "contractAddress": null,
      "l1BaseFeeScalar": "0x44d",
      "l1BlobBaseFee": "0x1",
      "l1BlobBaseFeeScalar": "0xa118b",
      "l1Fee": "0x3379ba",
      "l1GasPrice": "0x17bf8d",
      "l1GasUsed": "0x7b0"
    }
  ],
  "libraries": [],
  "pending": [],
  "returns": {},
  "timestamp": 1741930125,
  "chain": 84532,
  "commit": "91ac479"
}