{
  "transactions": [
    {
      "hash": "0xf2da6bb0b6b423a6115148a5910a2364d5d37201ef4f6fcac7077ce809a22440",
      "transactionType": "CALL",
      "contractName": null,
      "contractAddress": "0x2a2692165299c0469894e1e6bf62d35ea347ea3e",
      "function": "createMarket(string,uint256)",
      "arguments": [
        "Will ETH price exceed $5000 by the end of 2024?",
        "1744522554"
      ],
      "transaction": {
        "from": "0x4b4b30e2e7c6463b03cdffd6c42329d357205334",
        "to": "0x2a2692165299c0469894e1e6bf62d35ea347ea3e",
        "gas": "0x50540",
        "value": "0x0",
        "input": "0x883c84c100000000000000000000000000000000000000000000000000000000000000400000000000000000000000000000000000000000000000000000000067fb4d3a000000000000000000000000000000000000000000000000000000000000002f57696c6c20455448207072696365206578636565642024353030302062792074686520656e64206f6620323032343f0000000000000000000000000000000000",
        "nonce": "0x15d",
        "chainId": "0x14a34"
      },
      "additionalContracts": [],
      "isFixedGasLimit": false
    }
  ],
  "receipts": [
    {
      "status": "0x1",
      "cumulativeGasUsed": "0x9ae893",
      "logs": [
        {
          "address": "0x2a2692165299c0469894e1e6bf62d35ea347ea3e",
          "topics": [
            "0x57d0d124b72f81ed1da0dc728fc33db342705974792928796f6577b8db5c3d53",
            "0x0000000000000000000000000000000000000000000000000000000000000005"
          ],
          "data": "0x00000000000000000000000000000000000000000000000000000000000000600000000000000000000000000000000000000000000000000000000067fb4d3a0000000000000000000000004b4b30e2e7c6463b03cdffd6c42329d357205334000000000000000000000000000000000000000000000000000000000000002f57696c6c20455448207072696365206578636565642024353030302062792074686520656e64206f6620323032343f0000000000000000000000000000000000",
          "blockHash": "0xa2a6f47dd55d27e56eb99f4b2ae91d215105c810585a1503c789378a171b8e59",
          "blockNumber": "0x16030b4",
          "transactionHash": "0xf2da6bb0b6b423a6115148a5910a2364d5d37201ef4f6fcac7077ce809a22440",
          "transactionIndex": "0x29",
          "logIndex": "0xbc",
          "removed": false
        }
      ],
      "logsBloom": "0x00000000000000000000000000000000000000000000000000000000000000000000000000000000000000000000000000000000000000000000000000000000000010000000000000000000000000000000000000000000000000000000000000000000000000000000000000000000000000000000000000000000000000000000000000000000800080000000001000000800000200000000000000000000000000000000000000000000000000000000000000000000000000000000000001000000000000000000000000000000000000000000000000000000000000000004000000000000000000000000000000000000000000000000000100000000",
      "type": "0x2",
      "transactionHash": "0xf2da6bb0b6b423a6115148a5910a2364d5d37201ef4f6fcac7077ce809a22440",
      "transactionIndex": "0x29",
      "blockHash": "0xa2a6f47dd55d27e56eb99f4b2ae91d215105c810585a1503c789378a171b8e59",
      "blockNumber": "0x16030b4",
      "gasUsed": "0x3a280",
      "effectiveGasPrice": "0x10b3d1",
      "from": "0x4b4b30e2e7c6463b03cdffd6c42329d357205334",
      "to": "0x2a2692165299c0469894e1e6bf62d35ea347ea3e",
      "contractAddress": null,
      "l1BaseFeeScalar": "0x44d",
      "l1BlobBaseFee": "0x1",
      "l1BlobBaseFeeScalar": "0xa118b",
      "l1Fee": "0x4ab432",
      "l1GasPrice": "0x227706",
      "l1GasUsed": "0x7b0"
    }
  ],
  "libraries": [],
  "pending": [],
  "returns": {},
  "timestamp": 1741930568,
  "chain": 84532,
  "commit": "91ac479"
}