{
  "transactions": [
    {
      "hash": "0xe76ccbc4b06bc6a2a688b39df33b6af1991732654f11fb6df77a2a87881cdb5a",
      "transactionType": "CALL",
      "contractName": null,
      "contractAddress": "0xb8b6192e296a97b1cd5e065a9a66f82f148272ae",
      "function": "createMarket(string,uint256)",
      "arguments": [
        "Will ETH price exceed $5000 by the end of 2024?",
        "1744454186"
      ],
      "transaction": {
        "from": "0x4b4b30e2e7c6463b03cdffd6c42329d357205334",
        "to": "0xb8b6192e296a97b1cd5e065a9a66f82f148272ae",
        "gas": "0x6ee26",
        "value": "0x0",
        "input": "0x883c84c100000000000000000000000000000000000000000000000000000000000000400000000000000000000000000000000000000000000000000000000067fa422a000000000000000000000000000000000000000000000000000000000000002f57696c6c20455448207072696365206578636565642024353030302062792074686520656e64206f6620323032343f0000000000000000000000000000000000",
        "nonce": "0x14e",
        "chainId": "0x14a34"
      },
      "additionalContracts": [],
      "isFixedGasLimit": false
    }
  ],
  "receipts": [
    {
      "status": "0x1",
      "cumulativeGasUsed": "0xbb82d0",
      "logs": [
        {
          "address": "0x7770a373fa5b7855553b5b6024614327dd6c1985",
          "topics": [
            "0xc3d58168c5ae7397731d063d5bbf3d657854427343f4c083240f7aacaa2d0f62",
            "0x000000000000000000000000b8b6192e296a97b1cd5e065a9a66f82f148272ae",
            "0x0000000000000000000000000000000000000000000000000000000000000000",
            "0x000000000000000000000000b8b6192e296a97b1cd5e065a9a66f82f148272ae"
          ],
          "data": "0x000000000000000000000000000000000000000000000000000000000000000100000000000000000000000000000000000000000000003635c9adc5dea00000",
          "blockHash": "0x0f1cb05a0bd5cd50b800317e4ed0f40c31e162d15757e758ee2c24d58c2fccd6",
          "blockNumber": "0x15fab2d",
          "transactionHash": "0xe76ccbc4b06bc6a2a688b39df33b6af1991732654f11fb6df77a2a87881cdb5a",
          "transactionIndex": "0x33",
          "logIndex": "0x11c",
          "removed": false
        },
        {
          "address": "0x449c483bd37d932352eb02883d900733d8c969ec",
          "topics": [
            "0xc3d58168c5ae7397731d063d5bbf3d657854427343f4c083240f7aacaa2d0f62",
            "0x000000000000000000000000b8b6192e296a97b1cd5e065a9a66f82f148272ae",
            "0x0000000000000000000000000000000000000000000000000000000000000000",
            "0x000000000000000000000000b8b6192e296a97b1cd5e065a9a66f82f148272ae"
          ],
          "data": "0x000000000000000000000000000000000000000000000000000000000000000100000000000000000000000000000000000000000000003635c9adc5dea00000",
          "blockHash": "0x0f1cb05a0bd5cd50b800317e4ed0f40c31e162d15757e758ee2c24d58c2fccd6",
          "blockNumber": "0x15fab2d",
          "transactionHash": "0xe76ccbc4b06bc6a2a688b39df33b6af1991732654f11fb6df77a2a87881cdb5a",
          "transactionIndex": "0x33",
          "logIndex": "0x11d",
          "removed": false
        },
        {
          "address": "0xb8b6192e296a97b1cd5e065a9a66f82f148272ae",
          "topics": [
            "0x57d0d124b72f81ed1da0dc728fc33db342705974792928796f6577b8db5c3d53",
            "0x0000000000000000000000000000000000000000000000000000000000000001"
          ],
          "data": "0x00000000000000000000000000000000000000000000000000000000000000600000000000000000000000000000000000000000000000000000000067fa422a0000000000000000000000004b4b30e2e7c6463b03cdffd6c42329d357205334000000000000000000000000000000000000000000000000000000000000002f57696c6c20455448207072696365206578636565642024353030302062792074686520656e64206f6620323032343f0000000000000000000000000000000000",
          "blockHash": "0x0f1cb05a0bd5cd50b800317e4ed0f40c31e162d15757e758ee2c24d58c2fccd6",
          "blockNumber": "0x15fab2d",
          "transactionHash": "0xe76ccbc4b06bc6a2a688b39df33b6af1991732654f11fb6df77a2a87881cdb5a",
          "transactionIndex": "0x33",
          "logIndex": "0x11e",
          "removed": false
        }
      ],
      "logsBloom": "0x00000000000000000000000000000000000000000000000000000000000000000000000000008000000000000000000000000000040000000000000000042000000800000140000000200000000000000000000000040100000000000000001000000200020000000000000010000800000000000000000000000000400000000000000000000000800080000000000000000000000000000000000000000000000000000000000000000000000000000000000000000000000000000000000000000000000000000000000000000000000000000008000001000000000060000004000000000000000000000000000000000000000000000000080000000000",
      "type": "0x2",
      "transactionHash": "0xe76ccbc4b06bc6a2a688b39df33b6af1991732654f11fb6df77a2a87881cdb5a",
      "transactionIndex": "0x33",
      "blockHash": "0x0f1cb05a0bd5cd50b800317e4ed0f40c31e162d15757e758ee2c24d58c2fccd6",
      "blockNumber": "0x15fab2d",
      "gasUsed": "0x50474",
      "effectiveGasPrice": "0xed691",
      "from": "0x4b4b30e2e7c6463b03cdffd6c42329d357205334",
      "to": "0xb8b6192e296a97b1cd5e065a9a66f82f148272ae",
      "contractAddress": null,
      "l1BaseFeeScalar": "0x44d",
      "l1BlobBaseFee": "0x1",
      "l1BlobBaseFeeScalar": "0xa118b",
      "l1Fee": "0x27497d67f4",
      "l1GasPrice": "0x122023b6af",
      "l1GasUsed": "0x7b0"
    }
  ],
  "libraries": [],
  "pending": [],
  "returns": {},
  "timestamp": 1741862203,
  "chain": 84532,
  "commit": "f7b4e9c"
}