{
  "transactions": [
    {
      "hash": "0xc1adf305d1b683389cf5a813456b4e51bfffaa0c5bea8077027b7a1a2abebe3a",
      "transactionType": "CALL",
      "contractName": null,
      "contractAddress": "0x2a2692165299c0469894e1e6bf62d35ea347ea3e",
      "function": "createMarket(string,uint256)",
      "arguments": [
        "Will ETH price exceed $5000 by the end of 2024?",
        "1744484338"
      ],
      "transaction": {
        "from": "0x4b4b30e2e7c6463b03cdffd6c42329d357205334",
        "to": "0x2a2692165299c0469894e1e6bf62d35ea347ea3e",
        "gas": "0x50540",
        "value": "0x0",
        "input": "0x883c84c100000000000000000000000000000000000000000000000000000000000000400000000000000000000000000000000000000000000000000000000067fab7f2000000000000000000000000000000000000000000000000000000000000002f57696c6c20455448207072696365206578636565642024353030302062792074686520656e64206f6620323032343f0000000000000000000000000000000000",
        "nonce": "0x159",
        "chainId": "0x14a34"
      },
      "additionalContracts": [],
      "isFixedGasLimit": false
    }
  ],
  "receipts": [
    {
      "status": "0x1",
      "cumulativeGasUsed": "0x30d194",
      "logs": [
        {
          "address": "0x2a2692165299c0469894e1e6bf62d35ea347ea3e",
          "topics": [
            "0x57d0d124b72f81ed1da0dc728fc33db342705974792928796f6577b8db5c3d53",
            "0x0000000000000000000000000000000000000000000000000000000000000001"
          ],
          "data": "0x00000000000000000000000000000000000000000000000000000000000000600000000000000000000000000000000000000000000000000000000067fab7f20000000000000000000000004b4b30e2e7c6463b03cdffd6c42329d357205334000000000000000000000000000000000000000000000000000000000000002f57696c6c20455448207072696365206578636565642024353030302062792074686520656e64206f6620323032343f0000000000000000000000000000000000",
          "blockHash": "0xd148b7a1be31aff03f002f2d28fd2e5d59a84c234342206df15ca284edbb7003",
          "blockNumber": "0x15fe612",
          "transactionHash": "0xc1adf305d1b683389cf5a813456b4e51bfffaa0c5bea8077027b7a1a2abebe3a",
          "transactionIndex": "0x3",
          "logIndex": "0x56",
          "removed": false
        }
      ],
      "logsBloom": "0x00000000000000000000000000000000000000000000000000000000000000000000000000000000000000000000000000000000000000000000000000040000000000000000000000000000000000000000000000040000000000000000000000000000000000000000000000000000000000000000000000000000000000000000000000000000800080000000000000000000000200000000000000000000000000000000000000000000000000000000000000000000000000000000000001000000000000000000000000000000000000000000000000000000000040000004000000000000000000000000000000000000000000000000000100000000",
      "type": "0x2",
      "transactionHash": "0xc1adf305d1b683389cf5a813456b4e51bfffaa0c5bea8077027b7a1a2abebe3a",
      "transactionIndex": "0x3",
      "blockHash": "0xd148b7a1be31aff03f002f2d28fd2e5d59a84c234342206df15ca284edbb7003",
      "blockNumber": "0x15fe612",
      "gasUsed": "0x3a280",
      "effectiveGasPrice": "0xe64d5",
      "from": "0x4b4b30e2e7c6463b03cdffd6c42329d357205334",
      "to": "0x2a2692165299c0469894e1e6bf62d35ea347ea3e",
      "contractAddress": null,
      "l1BaseFeeScalar": "0x44d",
      "l1BlobBaseFee": "0x1",
      "l1BlobBaseFeeScalar": "0xa118b",
      "l1Fee": "0x49a0bbdb7",
      "l1GasPrice": "0x21f814edc",
      "l1GasUsed": "0x7b0"
    }
  ],
  "libraries": [],
  "pending": [],
  "returns": {},
  "timestamp": 1741892358,
  "chain": 84532,
  "commit": "91ac479"
}