{
  "transactions": [
    {
      "hash": "0x95d2017c9b0b663e6251d39bc5b912ba4c2dd0d15de2099dd5c77c377ee08eac",
      "transactionType": "CALL",
      "contractName": null,
      "contractAddress": "0x2a2692165299c0469894e1e6bf62d35ea347ea3e",
      "function": "createMarket(string,uint256)",
      "arguments": [
        "Will ETH price exceed $5000 by the end of 2024?",
        "1744520040"
      ],
      "transaction": {
        "from": "0x4b4b30e2e7c6463b03cdffd6c42329d357205334",
        "to": "0x2a2692165299c0469894e1e6bf62d35ea347ea3e",
        "gas": "0x50540",
        "value": "0x0",
        "input": "0x883c84c100000000000000000000000000000000000000000000000000000000000000400000000000000000000000000000000000000000000000000000000067fb4368000000000000000000000000000000000000000000000000000000000000002f57696c6c20455448207072696365206578636565642024353030302062792074686520656e64206f6620323032343f0000000000000000000000000000000000",
        "nonce": "0x15a",
        "chainId": "0x14a34"
      },
      "additionalContracts": [],
      "isFixedGasLimit": false
    }
  ],
  "receipts": [
    {
      "status": "0x1",
      "cumulativeGasUsed": "0x9bbeda",
      "logs": [
        {
          "address": "0x2a2692165299c0469894e1e6bf62d35ea347ea3e",
          "topics": [
            "0x57d0d124b72f81ed1da0dc728fc33db342705974792928796f6577b8db5c3d53",
            "0x0000000000000000000000000000000000000000000000000000000000000002"
          ],
          "data": "0x00000000000000000000000000000000000000000000000000000000000000600000000000000000000000000000000000000000000000000000000067fb43680000000000000000000000004b4b30e2e7c6463b03cdffd6c42329d357205334000000000000000000000000000000000000000000000000000000000000002f57696c6c20455448207072696365206578636565642024353030302062792074686520656e64206f6620323032343f0000000000000000000000000000000000",
          "blockHash": "0x303b33b6ec91ed75a43406c33a347e1836351fc49c3d0f1b58aecd609a5d9796",
          "blockNumber": "0x1602bcb",
          "transactionHash": "0x95d2017c9b0b663e6251d39bc5b912ba4c2dd0d15de2099dd5c77c377ee08eac",
          "transactionIndex": "0x26",
          "logIndex": "0x106",
          "removed": false
        }
      ],
      "logsBloom": "0x04000000000000000000000000000000000000000000000000000000000000000000000000000000000000000000000000000000000000000000000000000000000000000000000000000000000000000000000000000000000000000000000000000000000000000000000000000000000000000000000000000000000000000000000000000000800080000000000000000000000200000000000000000000000000000000000000000100000000000000000000000000000000000000000001000000000000000000000000000000000000000000000000000000000000000004000000000000000000000000000000000000008000000000000100000000",
      "type": "0x2",
      "transactionHash": "0x95d2017c9b0b663e6251d39bc5b912ba4c2dd0d15de2099dd5c77c377ee08eac",
      "transactionIndex": "0x26",
      "blockHash": "0x303b33b6ec91ed75a43406c33a347e1836351fc49c3d0f1b58aecd609a5d9796",
      "blockNumber": "0x1602bcb",
      "gasUsed": "0x3a280",
      "effectiveGasPrice": "0x11688f",
      "from": "0x4b4b30e2e7c6463b03cdffd6c42329d357205334",
      "to": "0x2a2692165299c0469894e1e6bf62d35ea347ea3e",
      "contractAddress": null,
      "l1BaseFeeScalar": "0x44d",
      "l1BlobBaseFee": "0x1",
      "l1BlobBaseFeeScalar": "0xa118b",
      "l1Fee": "0x23095e",
      "l1GasPrice": "0x1029fa",
      "l1GasUsed": "0x7b0"
    }
  ],
  "libraries": [],
  "pending": [],
  "returns": {},
  "timestamp": 1741928055,
  "chain": 84532,
  "commit": "91ac479"
}