{
  "transactions": [
    {
      "hash": "0xa65b70512184f0b9bd1d820fe3046fd446dcdaf8fbf5cebb1694b7585bd3f06f",
      "transactionType": "CALL",
      "contractName": null,
      "contractAddress": "0x2666beb71e0dd95223b98c945c9808c1b07c271e",
      "function": "resolve(uint256,bool,bytes)",
      "arguments": [
        "6",
        "true",
        "0x"
      ],
      "transaction": {
        "from": "0x4b4b30e2e7c6463b03cdffd6c42329d357205334",
        "to": "0x2666beb71e0dd95223b98c945c9808c1b07c271e",
        "gas": "0x1bdf9",
        "value": "0x0",
        "input": "0x7dfaf4930000000000000000000000000000000000000000000000000000000000000006000000000000000000000000000000000000000000000000000000000000000100000000000000000000000000000000000000000000000000000000000000600000000000000000000000000000000000000000000000000000000000000000",
        "nonce": "0xe9",
        "chainId": "0xaa36a7"
      },
      "additionalContracts": [],
      "isFixedGasLimit": false
    }
  ],
  "receipts": [
    {
      "status": "0x1",
      "cumulativeGasUsed": "0xc07439",
      "logs": [
        {
          "address": "0xe6499c7384422f15aeef0297c2ca3d29fecc8f2f",
          "topics": [
            "0xddf252ad1be2c89b69c2b068fc378daa952ba7f163c4a11628f55a4df523b3ef",
            "0x0000000000000000000000000000000000000000000000000000000000000000",
            "0x0000000000000000000000002666beb71e0dd95223b98c945c9808c1b07c271e"
          ],
          "data": "0x00000000000000000000000000000000000000000000000015aecd25e328b71c",
          "blockHash": "0x9af5bf4156820c850698a78ae3744951cf2d21f27714a6c708ca6fdb830b8c8a",
          "blockNumber": "0x78a2e9",
          "blockTimestamp": "0x67d53104",
          "transactionHash": "0xa65b70512184f0b9bd1d820fe3046fd446dcdaf8fbf5cebb1694b7585bd3f06f",
          "transactionIndex": "0x7c",
          "logIndex": "0x139",
          "removed": false
        },
        {
          "address": "0x2666beb71e0dd95223b98c945c9808c1b07c271e",
          "topics": [
            "0x6d4d544f5a6dcf38d77a232d3ef7358625c74877a1ad954fcb507872e7a05eaf",
            "0x0000000000000000000000000000000000000000000000000000000000000006"
          ],
          "data": "0x0000000000000000000000000000000000000000000000000000000000000001000000000000000000000000000000000000000000000000238f83d98a8cb6fe",
          "blockHash": "0x9af5bf4156820c850698a78ae3744951cf2d21f27714a6c708ca6fdb830b8c8a",
          "blockNumber": "0x78a2e9",
          "blockTimestamp": "0x67d53104",
          "transactionHash": "0xa65b70512184f0b9bd1d820fe3046fd446dcdaf8fbf5cebb1694b7585bd3f06f",
          "transactionIndex": "0x7c",
          "logIndex": "0x13a",
          "removed": false
        }
      ],
      "logsBloom": "0x00000000001000000000000000000000000000000000000000000000000000000000000000000000000000000000002000000000000400000000000000000000000000000000000000000008000000000000000000000000000000000000000000000000020000000000001000800800000000000000000004000030000000000000000400000000000000000000000200004000000000000000000000000000040000000000000000000000000000000000000000000000000000080000000000000002000200000000002000000000000000000000000000000000000020000000000000000000000000000040000000000000000000000000000000000000",
      "type": "0x2",
      "transactionHash": "0xa65b70512184f0b9bd1d820fe3046fd446dcdaf8fbf5cebb1694b7585bd3f06f",
      "transactionIndex": "0x7c",
      "blockHash": "0x9af5bf4156820c850698a78ae3744951cf2d21f27714a6c708ca6fdb830b8c8a",
      "blockNumber": "0x78a2e9",
      "gasUsed": "0x130f1",
      "effectiveGasPrice": "0x114e52418",
      "from": "0x4b4b30e2e7c6463b03cdffd6c42329d357205334",
      "to": "0x2666beb71e0dd95223b98c945c9808c1b07c271e",
      "contractAddress": null
    }
  ],
  "libraries": [],
  "pending": [],
  "returns": {},
  "timestamp": 1742024966,
  "chain": 11155111,
  "commit": "e076ef1"
}