{
  "transactions": [
    {
      "hash": "0xfd84fbc2722c560bcf3eb0fbdbf2a34fa4c6d0e8bec5c410210067feed7f2210",
      "transactionType": "CALL",
      "contractName": null,
      "contractAddress": "0x2666beb71e0dd95223b98c945c9808c1b07c271e",
      "function": "createMarket(string,uint256)",
      "arguments": [
        "Will ETH price exceed $5000 by the end of 2024?",
        "1744614336"
      ],
      "transaction": {
        "from": "0x4b4b30e2e7c6463b03cdffd6c42329d357205334",
        "to": "0x2666beb71e0dd95223b98c945c9808c1b07c271e",
        "gas": "0x5140e",
        "value": "0x0",
        "input": "0x883c84c100000000000000000000000000000000000000000000000000000000000000400000000000000000000000000000000000000000000000000000000067fcb3c0000000000000000000000000000000000000000000000000000000000000002f57696c6c20455448207072696365206578636565642024353030302062792074686520656e64206f6620323032343f0000000000000000000000000000000000",
        "nonce": "0xc8",
        "chainId": "0xaa36a7"
      },
      "additionalContracts": [],
      "isFixedGasLimit": false
    },
    {
      "hash": "0x6ad972f90fa2f085df2c4c683e9335c02c1900332ae9448735b46398a1945b2f",
      "transactionType": "CALL",
      "contractName": null,
      "contractAddress": "0x2666beb71e0dd95223b98c945c9808c1b07c271e",
      "function": "buy(uint256,bool,uint256)",
      "arguments": [
        "3",
        "true",
        "1000000000000000000"
      ],
      "transaction": {
        "from": "0x4b4b30e2e7c6463b03cdffd6c42329d357205334",
        "to": "0x2666beb71e0dd95223b98c945c9808c1b07c271e",
        "gas": "0x9d880",
        "value": "0x0",
        "input": "0x438af924000000000000000000000000000000000000000000000000000000000000000300000000000000000000000000000000000000000000000000000000000000010000000000000000000000000000000000000000000000000de0b6b3a7640000",
        "nonce": "0xc9",
        "chainId": "0xaa36a7"
      },
      "additionalContracts": [],
      "isFixedGasLimit": false
    },
    {
      "hash": "0xe97a674882a2046d2f9528744249b5d99ddb4fcff28f94fb970d6f20f9c59aa2",
      "transactionType": "CALL",
      "contractName": null,
      "contractAddress": "0x2666beb71e0dd95223b98c945c9808c1b07c271e",
      "function": "buy(uint256,bool,uint256)",
      "arguments": [
        "3",
        "false",
        "1000000000000000000"
      ],
      "transaction": {
        "from": "0x4b4b30e2e7c6463b03cdffd6c42329d357205334",
        "to": "0x2666beb71e0dd95223b98c945c9808c1b07c271e",
        "gas": "0x9c5d8",
        "value": "0x0",
        "input": "0x438af924000000000000000000000000000000000000000000000000000000000000000300000000000000000000000000000000000000000000000000000000000000000000000000000000000000000000000000000000000000000de0b6b3a7640000",
        "nonce": "0xca",
        "chainId": "0xaa36a7"
      },
      "additionalContracts": [],
      "isFixedGasLimit": false
    }
  ],
  "receipts": [
    {
      "status": "0x1",
      "cumulativeGasUsed": "0x1f83cc6",
      "logs": [
        {
          "address": "0x2666beb71e0dd95223b98c945c9808c1b07c271e",
          "topics": [
            "0x57d0d124b72f81ed1da0dc728fc33db342705974792928796f6577b8db5c3d53",
            "0x0000000000000000000000000000000000000000000000000000000000000003"
          ],
          "data": "0x00000000000000000000000000000000000000000000000000000000000000600000000000000000000000000000000000000000000000000000000067fcb3c00000000000000000000000004b4b30e2e7c6463b03cdffd6c42329d357205334000000000000000000000000000000000000000000000000000000000000002f57696c6c20455448207072696365206578636565642024353030302062792074686520656e64206f6620323032343f0000000000000000000000000000000000",
          "blockHash": "0xec075d9d46b3471a576d9ec89f6924da13ced0caeae0ade80a49b4e3c3b62323",
          "blockNumber": "0x78a21f",
          "blockTimestamp": "0x67d526e4",
          "transactionHash": "0xfd84fbc2722c560bcf3eb0fbdbf2a34fa4c6d0e8bec5c410210067feed7f2210",
          "transactionIndex": "0xd9",
          "logIndex": "0x165",
          "removed": false
        }
      ],
      "logsBloom": "0x00000000000000000000000000000000000000000000000000000000000000000000000000000000000000000000000000000000020000000000000000000000000000000000000000000000000000000000000000000000000000000000000000000000000000000000000000000000000000000000000000000000000000000000000000000000800080000000000000000000000000000000000000000000040000000000000000000000000000000000000000800000000000000000400000000000000200000000002000000000000000000000000000000000000000000004000000000000000000000000000000000000000000000000000000000000",
      "type": "0x2",
      "transactionHash": "0xfd84fbc2722c560bcf3eb0fbdbf2a34fa4c6d0e8bec5c410210067feed7f2210",
      "transactionIndex": "0xd9",
      "blockHash": "0xec075d9d46b3471a576d9ec89f6924da13ced0caeae0ade80a49b4e3c3b62323",
      "blockNumber": "0x78a21f",
      "gasUsed": "0x3ad38",
      "effectiveGasPrice": "0x1342f117",
      "from": "0x4b4b30e2e7c6463b03cdffd6c42329d357205334",
      "to": "0x2666beb71e0dd95223b98c945c9808c1b07c271e",
      "contractAddress": null
    },
    {
      "status": "0x1",
      "cumulativeGasUsed": "0x1ff5d93",
      "logs": [
        {
          "address": "0xe6499c7384422f15aeef0297c2ca3d29fecc8f2f",
          "topics": [
            "0xddf252ad1be2c89b69c2b068fc378daa952ba7f163c4a11628f55a4df523b3ef",
            "0x0000000000000000000000004b4b30e2e7c6463b03cdffd6c42329d357205334",
            "0x0000000000000000000000002666beb71e0dd95223b98c945c9808c1b07c271e"
          ],
          "data": "0x000000000000000000000000000000000000000000000000071cbf4d05554756",
          "blockHash": "0xec075d9d46b3471a576d9ec89f6924da13ced0caeae0ade80a49b4e3c3b62323",
          "blockNumber": "0x78a21f",
          "blockTimestamp": "0x67d526e4",
          "transactionHash": "0x6ad972f90fa2f085df2c4c683e9335c02c1900332ae9448735b46398a1945b2f",
          "transactionIndex": "0xda",
          "logIndex": "0x166",
          "removed": false
        },
        {
          "address": "0x2666beb71e0dd95223b98c945c9808c1b07c271e",
          "topics": [
            "0xf812a30160cd1fb46386678219b1c28ddc923c9b3a18805e38c090fd7b41bb71",
            "0x0000000000000000000000004b4b30e2e7c6463b03cdffd6c42329d357205334",
            "0x0000000000000000000000000000000000000000000000000000000000000003"
          ],
          "data": "0x000000000000000000000000000000000000000000000000000000000000000100000000000000000000000000000000000000000000000000000000000000010000000000000000000000000000000000000000000000000de0b6b3a7640000000000000000000000000000000000000000000000000000071cbf4d05554756",
          "blockHash": "0xec075d9d46b3471a576d9ec89f6924da13ced0caeae0ade80a49b4e3c3b62323",
          "blockNumber": "0x78a21f",
          "blockTimestamp": "0x67d526e4",
          "transactionHash": "0x6ad972f90fa2f085df2c4c683e9335c02c1900332ae9448735b46398a1945b2f",
          "transactionIndex": "0xda",
          "logIndex": "0x167",
          "removed": false
        }
      ],
      "logsBloom": "0x00000000000000000000000000000000000000040000000000000000000000000000000000000000000000000000002000000000020000000000000000000008000000000000000000000008000000000000000000000000000000000000000000000000000000040000001000800000000000000000000004008010000000000000000000000000000000000000000000004000000000000000000000000000040000000000000000000000000000000000000000800000000000000000400000000002000200000000002000000000000000000000100000000000000000000000000000000000000000000040000000000000000000000000000000000010",
      "type": "0x2",
      "transactionHash": "0x6ad972f90fa2f085df2c4c683e9335c02c1900332ae9448735b46398a1945b2f",
      "transactionIndex": "0xda",
      "blockHash": "0xec075d9d46b3471a576d9ec89f6924da13ced0caeae0ade80a49b4e3c3b62323",
      "blockNumber": "0x78a21f",
      "gasUsed": "0x720cd",
      "effectiveGasPrice": "0x1342f117",
      "from": "0x4b4b30e2e7c6463b03cdffd6c42329d357205334",
      "to": "0x2666beb71e0dd95223b98c945c9808c1b07c271e",
      "contractAddress": null
    },
    {
      "status": "0x1",
      "cumulativeGasUsed": "0x2060c3d",
      "logs": [
        {
          "address": "0xe6499c7384422f15aeef0297c2ca3d29fecc8f2f",
          "topics": [
            "0xddf252ad1be2c89b69c2b068fc378daa952ba7f163c4a11628f55a4df523b3ef",
            "0x0000000000000000000000004b4b30e2e7c6463b03cdffd6c42329d357205334",
            "0x0000000000000000000000002666beb71e0dd95223b98c945c9808c1b07c271e"
          ],
          "data": "0x00000000000000000000000000000000000000000000000006c3f766a20eb88c",
          "blockHash": "0xec075d9d46b3471a576d9ec89f6924da13ced0caeae0ade80a49b4e3c3b62323",
          "blockNumber": "0x78a21f",
          "blockTimestamp": "0x67d526e4",
          "transactionHash": "0xe97a674882a2046d2f9528744249b5d99ddb4fcff28f94fb970d6f20f9c59aa2",
          "transactionIndex": "0xdb",
          "logIndex": "0x168",
          "removed": false
        },
        {
          "address": "0x2666beb71e0dd95223b98c945c9808c1b07c271e",
          "topics": [
            "0xf812a30160cd1fb46386678219b1c28ddc923c9b3a18805e38c090fd7b41bb71",
            "0x0000000000000000000000004b4b30e2e7c6463b03cdffd6c42329d357205334",
            "0x0000000000000000000000000000000000000000000000000000000000000003"
          ],
          "data": "0x000000000000000000000000000000000000000000000000000000000000000100000000000000000000000000000000000000000000000000000000000000020000000000000000000000000000000000000000000000000de0b6b3a764000000000000000000000000000000000000000000000000000006c3f766a20eb88c",
          "blockHash": "0xec075d9d46b3471a576d9ec89f6924da13ced0caeae0ade80a49b4e3c3b62323",
          "blockNumber": "0x78a21f",
          "blockTimestamp": "0x67d526e4",
          "transactionHash": "0xe97a674882a2046d2f9528744249b5d99ddb4fcff28f94fb970d6f20f9c59aa2",
          "transactionIndex": "0xdb",
          "logIndex": "0x169",
          "removed": false
        }
      ],
      "logsBloom": "0x00000000000000000000000000000000000000040000000000000000000000000000000000000000000000000000002000000000020000000000000000000008000000000000000000000008000000000000000000000000000000000000000000000000000000040000001000800000000000000000000004008010000000000000000000000000000000000000000000004000000000000000000000000000040000000000000000000000000000000000000000800000000000000000400000000002000200000000002000000000000000000000100000000000000000000000000000000000000000000040000000000000000000000000000000000010",
      "type": "0x2",
      "transactionHash": "0xe97a674882a2046d2f9528744249b5d99ddb4fcff28f94fb970d6f20f9c59aa2",
      "transactionIndex": "0xdb",
      "blockHash": "0xec075d9d46b3471a576d9ec89f6924da13ced0caeae0ade80a49b4e3c3b62323",
      "blockNumber": "0x78a21f",
      "gasUsed": "0x6aeaa",
      "effectiveGasPrice": "0x1342f117",
      "from": "0x4b4b30e2e7c6463b03cdffd6c42329d357205334",
      "to": "0x2666beb71e0dd95223b98c945c9808c1b07c271e",
      "contractAddress": null
    }
  ],
  "libraries": [],
  "pending": [],
  "returns": {},
  "timestamp": 1742022373,
  "chain": 11155111,
  "commit": "e076ef1"
}