{
  "transactions": [
    {
      "hash": "0x18c9ec1d9d86db71977d020a8638eb6e1c81e48da7d61a8158d4fc3eaa332f62",
      "transactionType": "CALL",
      "contractName": null,
      "contractAddress": "0x2666beb71e0dd95223b98c945c9808c1b07c271e",
      "function": "createMarket(string,uint256)",
      "arguments": [
        "Will ETH price exceed $5000 by the end of 2024?",
        "1744613268"
      ],
      "transaction": {
        "from": "0x4b4b30e2e7c6463b03cdffd6c42329d357205334",
        "to": "0x2666beb71e0dd95223b98c945c9808c1b07c271e",
        "gas": "0x5140e",
        "value": "0x0",
        "input": "0x883c84c100000000000000000000000000000000000000000000000000000000000000400000000000000000000000000000000000000000000000000000000067fcaf94000000000000000000000000000000000000000000000000000000000000002f57696c6c20455448207072696365206578636565642024353030302062792074686520656e64206f6620323032343f0000000000000000000000000000000000",
        "nonce": "0xc2",
        "chainId": "0xaa36a7"
      },
      "additionalContracts": [],
      "isFixedGasLimit": false
    },
    {
      "hash": "0x72f2d37adc61142c1321140ce3d13128b60797904e592177c49bc20a6a221364",
      "transactionType": "CALL",
      "contractName": null,
      "contractAddress": "0x2666beb71e0dd95223b98c945c9808c1b07c271e",
      "function": "buy(uint256,bool,uint256)",
      "arguments": [
        "2",
        "true",
        "1000000000000000000"
      ],
      "transaction": {
        "from": "0x4b4b30e2e7c6463b03cdffd6c42329d357205334",
        "to": "0x2666beb71e0dd95223b98c945c9808c1b07c271e",
        "gas": "0x9d880",
        "value": "0x0",
        "input": "0x438af924000000000000000000000000000000000000000000000000000000000000000200000000000000000000000000000000000000000000000000000000000000010000000000000000000000000000000000000000000000000de0b6b3a7640000",
        "nonce": "0xc3",
        "chainId": "0xaa36a7"
      },
      "additionalContracts": [],
      "isFixedGasLimit": false
    },
    {
      "hash": "0xe71e01ee95039fae6c052fadab5fa350c4a66f284df5f39e1010fdc8a9744ed1",
      "transactionType": "CALL",
      "contractName": null,
      "contractAddress": "0x2666beb71e0dd95223b98c945c9808c1b07c271e",
      "function": "buy(uint256,bool,uint256)",
      "arguments": [
        "2",
        "false",
        "1000000000000000000"
      ],
      "transaction": {
        "from": "0x4b4b30e2e7c6463b03cdffd6c42329d357205334",
        "to": "0x2666beb71e0dd95223b98c945c9808c1b07c271e",
        "gas": "0x9c5d8",
        "value": "0x0",
        "input": "0x438af924000000000000000000000000000000000000000000000000000000000000000200000000000000000000000000000000000000000000000000000000000000000000000000000000000000000000000000000000000000000de0b6b3a7640000",
        "nonce": "0xc4",
        "chainId": "0xaa36a7"
      },
      "additionalContracts": [],
      "isFixedGasLimit": false
    }
  ],
  "receipts": [
    {
      "status": "0x1",
      "cumulativeGasUsed": "0x108b1bc",
      "logs": [
        {
          "address": "0x2666beb71e0dd95223b98c945c9808c1b07c271e",
          "topics": [
            "0x57d0d124b72f81ed1da0dc728fc33db342705974792928796f6577b8db5c3d53",
            "0x0000000000000000000000000000000000000000000000000000000000000002"
          ],
          "data": "0x00000000000000000000000000000000000000000000000000000000000000600000000000000000000000000000000000000000000000000000000067fcaf940000000000000000000000004b4b30e2e7c6463b03cdffd6c42329d357205334000000000000000000000000000000000000000000000000000000000000002f57696c6c20455448207072696365206578636565642024353030302062792074686520656e64206f6620323032343f0000000000000000000000000000000000",
          "blockHash": "0x9e9a801f8d30956fe857bacc01e53e85da14a92f8bef46009003fd2486f525a5",
          "blockNumber": "0x78a1c7",
          "blockTimestamp": "0x67d522ac",
          "transactionHash": "0x18c9ec1d9d86db71977d020a8638eb6e1c81e48da7d61a8158d4fc3eaa332f62",
          "transactionIndex": "0x84",
          "logIndex": "0xd7",
          "removed": false
        }
      ],
      "logsBloom": "0x04000000000000000000000000000000000000000000000000000000000000000000000000000000000000000000000000000000000000000000000000000000000000000000000000000000000000000000000000000000000000000000000000000000000000000000000000000000000000000000000000000000000000000000000000000000800080000000000000000000000000000000000000000000040000000000000000000100000000000000000000000000000000000000000000000000000200000000002000000000000000000000000000000000000000000004000000000000000000000000000000000000008000000000000000000000",
      "type": "0x2",
      "transactionHash": "0x18c9ec1d9d86db71977d020a8638eb6e1c81e48da7d61a8158d4fc3eaa332f62",
      "transactionIndex": "0x84",
      "blockHash": "0x9e9a801f8d30956fe857bacc01e53e85da14a92f8bef46009003fd2486f525a5",
      "blockNumber": "0x78a1c7",
      "gasUsed": "0x3ad38",
      "effectiveGasPrice": "0x493402a",
      "from": "0x4b4b30e2e7c6463b03cdffd6c42329d357205334",
      "to": "0x2666beb71e0dd95223b98c945c9808c1b07c271e",
      "contractAddress": null
    },
    {
      "status": "0x1",
      "cumulativeGasUsed": "0x10fd289",
      "logs": [
        {
          "address": "0xe6499c7384422f15aeef0297c2ca3d29fecc8f2f",
          "topics": [
            "0xddf252ad1be2c89b69c2b068fc378daa952ba7f163c4a11628f55a4df523b3ef",
            "0x0000000000000000000000004b4b30e2e7c6463b03cdffd6c42329d357205334",
            "0x0000000000000000000000002666beb71e0dd95223b98c945c9808c1b07c271e"
          ],
          "data": "0x000000000000000000000000000000000000000000000000071cbf4d05554756",
          "blockHash": "0x9e9a801f8d30956fe857bacc01e53e85da14a92f8bef46009003fd2486f525a5",
          "blockNumber": "0x78a1c7",
          "blockTimestamp": "0x67d522ac",
          "transactionHash": "0x72f2d37adc61142c1321140ce3d13128b60797904e592177c49bc20a6a221364",
          "transactionIndex": "0x85",
          "logIndex": "0xd8",
          "removed": false
        },
        {
          "address": "0x2666beb71e0dd95223b98c945c9808c1b07c271e",
          "topics": [
            "0xf812a30160cd1fb46386678219b1c28ddc923c9b3a18805e38c090fd7b41bb71",
            "0x0000000000000000000000004b4b30e2e7c6463b03cdffd6c42329d357205334",
            "0x0000000000000000000000000000000000000000000000000000000000000002"
          ],
          "data": "0x000000000000000000000000000000000000000000000000000000000000000100000000000000000000000000000000000000000000000000000000000000010000000000000000000000000000000000000000000000000de0b6b3a7640000000000000000000000000000000000000000000000000000071cbf4d05554756",
          "blockHash": "0x9e9a801f8d30956fe857bacc01e53e85da14a92f8bef46009003fd2486f525a5",
          "blockNumber": "0x78a1c7",
          "blockTimestamp": "0x67d522ac",
          "transactionHash": "0x72f2d37adc61142c1321140ce3d13128b60797904e592177c49bc20a6a221364",
          "transactionIndex": "0x85",
          "logIndex": "0xd9",
          "removed": false
        }
      ],
      "logsBloom": "0x04000000000000000000000000000000000000040000000000000000000000000000000000000000000000000000002000000000000000000000000000000008000000000000000000000008000000000000000000000000000000000000000000000000000000040000001000800000000000000000000004008010000000000000000000000000000000000000000000004000000000000000000000000000040000000000000000000100000000000000000000000000000000000000000000000002000200000000002000000000000000000000100000000000000000000000000000000000000000000040000000000000008000000000000000000010",
      "type": "0x2",
      "transactionHash": "0x72f2d37adc61142c1321140ce3d13128b60797904e592177c49bc20a6a221364",
      "transactionIndex": "0x85",
      "blockHash": "0x9e9a801f8d30956fe857bacc01e53e85da14a92f8bef46009003fd2486f525a5",
      "blockNumber": "0x78a1c7",
      "gasUsed": "0x720cd",
      "effectiveGasPrice": "0x493402a",
      "from": "0x4b4b30e2e7c6463b03cdffd6c42329d357205334",
      "to": "0x2666beb71e0dd95223b98c945c9808c1b07c271e",
      "contractAddress": null
    },
    {
      "status": "0x1",
      "cumulativeGasUsed": "0x1168133",
      "logs": [
        {
          "address": "0xe6499c7384422f15aeef0297c2ca3d29fecc8f2f",
          "topics": [
            "0xddf252ad1be2c89b69c2b068fc378daa952ba7f163c4a11628f55a4df523b3ef",
            "0x0000000000000000000000004b4b30e2e7c6463b03cdffd6c42329d357205334",
            "0x0000000000000000000000002666beb71e0dd95223b98c945c9808c1b07c271e"
          ],
          "data": "0x00000000000000000000000000000000000000000000000006c3f766a20eb88c",
          "blockHash": "0x9e9a801f8d30956fe857bacc01e53e85da14a92f8bef46009003fd2486f525a5",
          "blockNumber": "0x78a1c7",
          "blockTimestamp": "0x67d522ac",
          "transactionHash": "0xe71e01ee95039fae6c052fadab5fa350c4a66f284df5f39e1010fdc8a9744ed1",
          "transactionIndex": "0x86",
          "logIndex": "0xda",
          "removed": false
        },
        {
          "address": "0x2666beb71e0dd95223b98c945c9808c1b07c271e",
          "topics": [
            "0xf812a30160cd1fb46386678219b1c28ddc923c9b3a18805e38c090fd7b41bb71",
            "0x0000000000000000000000004b4b30e2e7c6463b03cdffd6c42329d357205334",
            "0x0000000000000000000000000000000000000000000000000000000000000002"
          ],
          "data": "0x000000000000000000000000000000000000000000000000000000000000000100000000000000000000000000000000000000000000000000000000000000020000000000000000000000000000000000000000000000000de0b6b3a764000000000000000000000000000000000000000000000000000006c3f766a20eb88c",
          "blockHash": "0x9e9a801f8d30956fe857bacc01e53e85da14a92f8bef46009003fd2486f525a5",
          "blockNumber": "0x78a1c7",
          "blockTimestamp": "0x67d522ac",
          "transactionHash": "0xe71e01ee95039fae6c052fadab5fa350c4a66f284df5f39e1010fdc8a9744ed1",
          "transactionIndex": "0x86",
          "logIndex": "0xdb",
          "removed": false
        }
      ],
      "logsBloom": "0x04000000000000000000000000000000000000040000000000000000000000000000000000000000000000000000002000000000000000000000000000000008000000000000000000000008000000000000000000000000000000000000000000000000000000040000001000800000000000000000000004008010000000000000000000000000000000000000000000004000000000000000000000000000040000000000000000000100000000000000000000000000000000000000000000000002000200000000002000000000000000000000100000000000000000000000000000000000000000000040000000000000008000000000000000000010",
      "type": "0x2",
      "transactionHash": "0xe71e01ee95039fae6c052fadab5fa350c4a66f284df5f39e1010fdc8a9744ed1",
      "transactionIndex": "0x86",
      "blockHash": "0x9e9a801f8d30956fe857bacc01e53e85da14a92f8bef46009003fd2486f525a5",
      "blockNumber": "0x78a1c7",
      "gasUsed": "0x6aeaa",
      "effectiveGasPrice": "0x493402a",
      "from": "0x4b4b30e2e7c6463b03cdffd6c42329d357205334",
      "to": "0x2666beb71e0dd95223b98c945c9808c1b07c271e",
      "contractAddress": null
    }
  ],
  "libraries": [],
  "pending": [],
  "returns": {},
  "timestamp": 1742021294,
  "chain": 11155111,
  "commit": "e076ef1"
}