{
  "transactions": [
    {
      "hash": "0x15b0a6c6cb448e650c1a64df6463276f43c62e79ebb831471cc3fe75ad82b024",
      "transactionType": "CALL",
      "contractName": null,
      "contractAddress": "0x9aa0ac61a31f46d36ad7c28f8feca68ce5d09798",
      "function": "createMarket(string,uint256)",
      "arguments": [
        "Will ETH price exceed $5000 by the end of 2024?",
        "1744611984"
      ],
      "transaction": {
        "from": "0x4b4b30e2e7c6463b03cdffd6c42329d357205334",
        "to": "0x9aa0ac61a31f46d36ad7c28f8feca68ce5d09798",
        "gas": "0x50540",
        "value": "0x0",
        "input": "0x883c84c100000000000000000000000000000000000000000000000000000000000000400000000000000000000000000000000000000000000000000000000067fcaa90000000000000000000000000000000000000000000000000000000000000002f57696c6c20455448207072696365206578636565642024353030302062792074686520656e64206f6620323032343f0000000000000000000000000000000000",
        "nonce": "0xba",
        "chainId": "0xaa36a7"
      },
      "additionalContracts": [],
      "isFixedGasLimit": false
    },
    {
      "hash": "0xbdae4db45636ffc962f8a0d44a2f0424b38f805aac6d932fe04fbc11c2ce1633",
      "transactionType": "CALL",
      "contractName": null,
      "contractAddress": "0x9aa0ac61a31f46d36ad7c28f8feca68ce5d09798",
      "function": "buy(uint256,bool,uint256)",
      "arguments": [
        "3",
        "true",
        "1000000000000000000"
      ],
      "transaction": {
        "from": "0x4b4b30e2e7c6463b03cdffd6c42329d357205334",
        "to": "0x9aa0ac61a31f46d36ad7c28f8feca68ce5d09798",
        "gas": "0x9d95d",
        "value": "0x0",
        "input": "0x438af924000000000000000000000000000000000000000000000000000000000000000300000000000000000000000000000000000000000000000000000000000000010000000000000000000000000000000000000000000000000de0b6b3a7640000",
        "nonce": "0xbb",
        "chainId": "0xaa36a7"
      },
      "additionalContracts": [],
      "isFixedGasLimit": false
    },
    {
      "hash": "0x9e8e17839ed3db2fa12562725b2e263c20c9d8831be74afa60c106abdb7f046e",
      "transactionType": "CALL",
      "contractName": null,
      "contractAddress": "0x9aa0ac61a31f46d36ad7c28f8feca68ce5d09798",
      "function": "buy(uint256,bool,uint256)",
      "arguments": [
        "3",
        "false",
        "1000000000000000000"
      ],
      "transaction": {
        "from": "0x4b4b30e2e7c6463b03cdffd6c42329d357205334",
        "to": "0x9aa0ac61a31f46d36ad7c28f8feca68ce5d09798",
        "gas": "0x9c6c2",
        "value": "0x0",
        "input": "0x438af924000000000000000000000000000000000000000000000000000000000000000300000000000000000000000000000000000000000000000000000000000000000000000000000000000000000000000000000000000000000de0b6b3a7640000",
        "nonce": "0xbc",
        "chainId": "0xaa36a7"
      },
      "additionalContracts": [],
      "isFixedGasLimit": false
    }
  ],
  "receipts": [
    {
      "status": "0x1",
      "cumulativeGasUsed": "0x12edadb",
      "logs": [
        {
          "address": "0x9aa0ac61a31f46d36ad7c28f8feca68ce5d09798",
          "topics": [
            "0x57d0d124b72f81ed1da0dc728fc33db342705974792928796f6577b8db5c3d53",
            "0x0000000000000000000000000000000000000000000000000000000000000003"
          ],
          "data": "0x00000000000000000000000000000000000000000000000000000000000000600000000000000000000000000000000000000000000000000000000067fcaa900000000000000000000000004b4b30e2e7c6463b03cdffd6c42329d357205334000000000000000000000000000000000000000000000000000000000000002f57696c6c20455448207072696365206578636565642024353030302062792074686520656e64206f6620323032343f0000000000000000000000000000000000",
          "blockHash": "0xbe829060d312e81e69fc81e3b3e1f698fa947b43d7e2e3378e5c2049e39b17be",
          "blockNumber": "0x78a161",
          "blockTimestamp": "0x67d51db4",
          "transactionHash": "0x15b0a6c6cb448e650c1a64df6463276f43c62e79ebb831471cc3fe75ad82b024",
          "transactionIndex": "0xbe",
          "logIndex": "0x13e",
          "removed": false
        }
      ],
      "logsBloom": "0x00000000000000000000000000000000000000000000000000000000000000000000000000000000000000000000000000000000020000000000000000000000000000000000000000000000000000000000000000000000000000000000000000000000000000000000000000000000000000000000000000000000000000000000000000000000800080000000000000000000000000000000000000000000000000000000000000000000000000000000000000800000000000000000400000000000000000000000000000000400000000000000000000000000000000000004000000000000000000000000000000100000000000000000000000002000",
      "type": "0x2",
      "transactionHash": "0x15b0a6c6cb448e650c1a64df6463276f43c62e79ebb831471cc3fe75ad82b024",
      "transactionIndex": "0xbe",
      "blockHash": "0xbe829060d312e81e69fc81e3b3e1f698fa947b43d7e2e3378e5c2049e39b17be",
      "blockNumber": "0x78a161",
      "gasUsed": "0x3a280",
      "effectiveGasPrice": "0xd87d89",
      "from": "0x4b4b30e2e7c6463b03cdffd6c42329d357205334",
      "to": "0x9aa0ac61a31f46d36ad7c28f8feca68ce5d09798",
      "contractAddress": null
    },
    {
      "status": "0x1",
      "cumulativeGasUsed": "0x135fc48",
      "logs": [
        {
          "address": "0x032476534b9b13ca08837ac01cdecb5b44c0f606",
          "topics": [
            "0xddf252ad1be2c89b69c2b068fc378daa952ba7f163c4a11628f55a4df523b3ef",
            "0x0000000000000000000000004b4b30e2e7c6463b03cdffd6c42329d357205334",
            "0x0000000000000000000000009aa0ac61a31f46d36ad7c28f8feca68ce5d09798"
          ],
          "data": "0x000000000000000000000000000000000000000000000000071cbf4d05554756",
          "blockHash": "0xbe829060d312e81e69fc81e3b3e1f698fa947b43d7e2e3378e5c2049e39b17be",
          "blockNumber": "0x78a161",
          "blockTimestamp": "0x67d51db4",
          "transactionHash": "0xbdae4db45636ffc962f8a0d44a2f0424b38f805aac6d932fe04fbc11c2ce1633",
          "transactionIndex": "0xbf",
          "logIndex": "0x13f",
          "removed": false
        },
        {
          "address": "0x9aa0ac61a31f46d36ad7c28f8feca68ce5d09798",
          "topics": [
            "0xf812a30160cd1fb46386678219b1c28ddc923c9b3a18805e38c090fd7b41bb71",
            "0x0000000000000000000000004b4b30e2e7c6463b03cdffd6c42329d357205334",
            "0x0000000000000000000000000000000000000000000000000000000000000003"
          ],
          "data": "0x000000000000000000000000000000000000000000000000000000000000000100000000000000000000000000000000000000000000000000000000000000010000000000000000000000000000000000000000000000000de0b6b3a7640000000000000000000000000000000000000000000000000000071cbf4d05554756",
          "blockHash": "0xbe829060d312e81e69fc81e3b3e1f698fa947b43d7e2e3378e5c2049e39b17be",
          "blockNumber": "0x78a161",
          "blockTimestamp": "0x67d51db4",
          "transactionHash": "0xbdae4db45636ffc962f8a0d44a2f0424b38f805aac6d932fe04fbc11c2ce1633",
          "transactionIndex": "0xbf",
          "logIndex": "0x140",
          "removed": false
        }
      ],
      "logsBloom": "0x00000000000000000000000000000000000000040000000000000000000000000000000000000000000000000000000000000000020000000000000020000088000000000400000000000008000000000000000000000000000000000000000000000000000000040000000080000000000000000000000000008010000000000000000000000000000000000000000000000000000000000000000000000000000000000000000000000000000000000000000200800000000000000000400000000002000000000000000000000400000000000000100000000000000000000000000000000008000000000000000000100000000000000000000000002010",
      "type": "0x2",
      "transactionHash": "0xbdae4db45636ffc962f8a0d44a2f0424b38f805aac6d932fe04fbc11c2ce1633",
      "transactionIndex": "0xbf",
      "blockHash": "0xbe829060d312e81e69fc81e3b3e1f698fa947b43d7e2e3378e5c2049e39b17be",
      "blockNumber": "0x78a161",
      "gasUsed": "0x7216d",
      "effectiveGasPrice": "0xd87d89",
      "from": "0x4b4b30e2e7c6463b03cdffd6c42329d357205334",
      "to": "0x9aa0ac61a31f46d36ad7c28f8feca68ce5d09798",
      "contractAddress": null
    },
    {
      "status": "0x1",
      "cumulativeGasUsed": "0x13cab92",
      "logs": [
        {
          "address": "0x032476534b9b13ca08837ac01cdecb5b44c0f606",
          "topics": [
            "0xddf252ad1be2c89b69c2b068fc378daa952ba7f163c4a11628f55a4df523b3ef",
            "0x0000000000000000000000004b4b30e2e7c6463b03cdffd6c42329d357205334",
            "0x0000000000000000000000009aa0ac61a31f46d36ad7c28f8feca68ce5d09798"
          ],
          "data": "0x00000000000000000000000000000000000000000000000006c3f766a20eb88c",
          "blockHash": "0xbe829060d312e81e69fc81e3b3e1f698fa947b43d7e2e3378e5c2049e39b17be",
          "blockNumber": "0x78a161",
          "blockTimestamp": "0x67d51db4",
          "transactionHash": "0x9e8e17839ed3db2fa12562725b2e263c20c9d8831be74afa60c106abdb7f046e",
          "transactionIndex": "0xc0",
          "logIndex": "0x141",
          "removed": false
        },
        {
          "address": "0x9aa0ac61a31f46d36ad7c28f8feca68ce5d09798",
          "topics": [
            "0xf812a30160cd1fb46386678219b1c28ddc923c9b3a18805e38c090fd7b41bb71",
            "0x0000000000000000000000004b4b30e2e7c6463b03cdffd6c42329d357205334",
            "0x0000000000000000000000000000000000000000000000000000000000000003"
          ],
          "data": "0x000000000000000000000000000000000000000000000000000000000000000100000000000000000000000000000000000000000000000000000000000000020000000000000000000000000000000000000000000000000de0b6b3a764000000000000000000000000000000000000000000000000000006c3f766a20eb88c",
          "blockHash": "0xbe829060d312e81e69fc81e3b3e1f698fa947b43d7e2e3378e5c2049e39b17be",
          "blockNumber": "0x78a161",
          "blockTimestamp": "0x67d51db4",
          "transactionHash": "0x9e8e17839ed3db2fa12562725b2e263c20c9d8831be74afa60c106abdb7f046e",
          "transactionIndex": "0xc0",
          "logIndex": "0x142",
          "removed": false
        }
      ],
      "logsBloom": "0x00000000000000000000000000000000000000040000000000000000000000000000000000000000000000000000000000000000020000000000000020000088000000000400000000000008000000000000000000000000000000000000000000000000000000040000000080000000000000000000000000008010000000000000000000000000000000000000000000000000000000000000000000000000000000000000000000000000000000000000000200800000000000000000400000000002000000000000000000000400000000000000100000000000000000000000000000000008000000000000000000100000000000000000000000002010",
      "type": "0x2",
      "transactionHash": "0x9e8e17839ed3db2fa12562725b2e263c20c9d8831be74afa60c106abdb7f046e",
      "transactionIndex": "0xc0",
      "blockHash": "0xbe829060d312e81e69fc81e3b3e1f698fa947b43d7e2e3378e5c2049e39b17be",
      "blockNumber": "0x78a161",
      "gasUsed": "0x6af4a",
      "effectiveGasPrice": "0xd87d89",
      "from": "0x4b4b30e2e7c6463b03cdffd6c42329d357205334",
      "to": "0x9aa0ac61a31f46d36ad7c28f8feca68ce5d09798",
      "contractAddress": null
    }
  ],
  "libraries": [],
  "pending": [],
  "returns": {},
  "timestamp": 1742020021,
  "chain": 11155111,
  "commit": "e076ef1"
}