{
  "transactions": [
    {
      "hash": "0x5e6da7757b2c4ff24bf35b845a0487820b2496fee31dd78a1a9908673ce24551",
      "transactionType": "CALL",
      "contractName": null,
      "contractAddress": "0x2666beb71e0dd95223b98c945c9808c1b07c271e",
      "function": "createMarket(string,uint256)",
      "arguments": [
        "Will ETH price exceed $5000 by the end of 2024?",
        "1744616616"
      ],
      "transaction": {
        "from": "0x4b4b30e2e7c6463b03cdffd6c42329d357205334",
        "to": "0x2666beb71e0dd95223b98c945c9808c1b07c271e",
        "gas": "0x5140e",
        "value": "0x0",
        "input": "0x883c84c100000000000000000000000000000000000000000000000000000000000000400000000000000000000000000000000000000000000000000000000067fcbca8000000000000000000000000000000000000000000000000000000000000002f57696c6c20455448207072696365206578636565642024353030302062792074686520656e64206f6620323032343f0000000000000000000000000000000000",
        "nonce": "0xe0",
        "chainId": "0xaa36a7"
      },
      "additionalContracts": [],
      "isFixedGasLimit": false
    },
    {
      "hash": "0x1dd023aa8acc84373eb0afdb8c1338973785d289007ba5ff0c53b211c471181c",
      "transactionType": "CALL",
      "contractName": null,
      "contractAddress": "0x2666beb71e0dd95223b98c945c9808c1b07c271e",
      "function": "buy(uint256,bool,uint256)",
      "arguments": [
        "6",
        "true",
        "1000000000000000000"
      ],
      "transaction": {
        "from": "0x4b4b30e2e7c6463b03cdffd6c42329d357205334",
        "to": "0x2666beb71e0dd95223b98c945c9808c1b07c271e",
        "gas": "0x9d880",
        "value": "0x0",
        "input": "0x438af924000000000000000000000000000000000000000000000000000000000000000600000000000000000000000000000000000000000000000000000000000000010000000000000000000000000000000000000000000000000de0b6b3a7640000",
        "nonce": "0xe1",
        "chainId": "0xaa36a7"
      },
      "additionalContracts": [],
      "isFixedGasLimit": false
    },
    {
      "hash": "0x07ee7c2f8359e7f966663b4ecf28e110d399a444234d2fdf7a1ce3c712a9aac6",
      "transactionType": "CALL",
      "contractName": null,
      "contractAddress": "0x2666beb71e0dd95223b98c945c9808c1b07c271e",
      "function": "buy(uint256,bool,uint256)",
      "arguments": [
        "6",
        "false",
        "1000000000000000000"
      ],
      "transaction": {
        "from": "0x4b4b30e2e7c6463b03cdffd6c42329d357205334",
        "to": "0x2666beb71e0dd95223b98c945c9808c1b07c271e",
        "gas": "0x9c5d8",
        "value": "0x0",
        "input": "0x438af924000000000000000000000000000000000000000000000000000000000000000600000000000000000000000000000000000000000000000000000000000000000000000000000000000000000000000000000000000000000de0b6b3a7640000",
        "nonce": "0xe2",
        "chainId": "0xaa36a7"
      },
      "additionalContracts": [],
      "isFixedGasLimit": false
    }
  ],
  "receipts": [
    {
      "status": "0x1",
      "cumulativeGasUsed": "0xd20579",
      "logs": [
        {
          "address": "0x2666beb71e0dd95223b98c945c9808c1b07c271e",
          "topics": [
            "0x57d0d124b72f81ed1da0dc728fc33db342705974792928796f6577b8db5c3d53",
            "0x0000000000000000000000000000000000000000000000000000000000000006"
          ],
          "data": "0x00000000000000000000000000000000000000000000000000000000000000600000000000000000000000000000000000000000000000000000000067fcbca80000000000000000000000004b4b30e2e7c6463b03cdffd6c42329d357205334000000000000000000000000000000000000000000000000000000000000002f57696c6c20455448207072696365206578636565642024353030302062792074686520656e64206f6620323032343f0000000000000000000000000000000000",
          "blockHash": "0x3154ff719bb7bea4c9ed62af4212a2527cb6732770cb3b41a93e1b8fdf021537",
          "blockNumber": "0x78a2d0",
          "blockTimestamp": "0x67d52fc0",
          "transactionHash": "0x5e6da7757b2c4ff24bf35b845a0487820b2496fee31dd78a1a9908673ce24551",
          "transactionIndex": "0x9d",
          "logIndex": "0xf6",
          "removed": false
        }
      ],
      "logsBloom": "0x00000000000000000000000000000000000000000000000000000000000000000000000000000000000000000000000000000000000400000000000000000000000000000000000000000000000000000000000000000000000000000000000000000000000000000000000000000000000000000000000000000000000000000000000400000000800080000000000000000000000000000000000000000000040000000000000000000000000000000000000000000000000000080000000000000000000200000000002000000000000000000000000000000000000000000004000000000000000000000000000000000000000000000000000000000000",
      "type": "0x2",
      "transactionHash": "0x5e6da7757b2c4ff24bf35b845a0487820b2496fee31dd78a1a9908673ce24551",
      "transactionIndex": "0x9d",
      "blockHash": "0x3154ff719bb7bea4c9ed62af4212a2527cb6732770cb3b41a93e1b8fdf021537",
      "blockNumber": "0x78a2d0",
      "gasUsed": "0x3ad38",
      "effectiveGasPrice": "0xe5e98615",
      "from": "0x4b4b30e2e7c6463b03cdffd6c42329d357205334",
      "to": "0x2666beb71e0dd95223b98c945c9808c1b07c271e",
      "contractAddress": null
    },
    {
      "status": "0x1",
      "cumulativeGasUsed": "0xd92646",
      "logs": [
        {
          "address": "0xe6499c7384422f15aeef0297c2ca3d29fecc8f2f",
          "topics": [
            "0xddf252ad1be2c89b69c2b068fc378daa952ba7f163c4a11628f55a4df523b3ef",
            "0x0000000000000000000000004b4b30e2e7c6463b03cdffd6c42329d357205334",
            "0x0000000000000000000000002666beb71e0dd95223b98c945c9808c1b07c271e"
          ],
          "data": "0x000000000000000000000000000000000000000000000000071cbf4d05554756",
          "blockHash": "0x3154ff719bb7bea4c9ed62af4212a2527cb6732770cb3b41a93e1b8fdf021537",
          "blockNumber": "0x78a2d0",
          "blockTimestamp": "0x67d52fc0",
          "transactionHash": "0x1dd023aa8acc84373eb0afdb8c1338973785d289007ba5ff0c53b211c471181c",
          "transactionIndex": "0x9e",
          "logIndex": "0xf7",
          "removed": false
        },
        {
          "address": "0x2666beb71e0dd95223b98c945c9808c1b07c271e",
          "topics": [
            "0xf812a30160cd1fb46386678219b1c28ddc923c9b3a18805e38c090fd7b41bb71",
            "0x0000000000000000000000004b4b30e2e7c6463b03cdffd6c42329d357205334",
            "0x0000000000000000000000000000000000000000000000000000000000000006"
          ],
          "data": "0x000000000000000000000000000000000000000000000000000000000000000100000000000000000000000000000000000000000000000000000000000000010000000000000000000000000000000000000000000000000de0b6b3a7640000000000000000000000000000000000000000000000000000071cbf4d05554756",
          "blockHash": "0x3154ff719bb7bea4c9ed62af4212a2527cb6732770cb3b41a93e1b8fdf021537",
          "blockNumber": "0x78a2d0",
          "blockTimestamp": "0x67d52fc0",
          "transactionHash": "0x1dd023aa8acc84373eb0afdb8c1338973785d289007ba5ff0c53b211c471181c",
          "transactionIndex": "0x9e",
          "logIndex": "0xf8",
          "removed": false
        }
      ],
      "logsBloom": "0x00000000000000000000000000000000000000040000000000000000000000000000000000000000000000000000002000000000000400000000000000000008000000000000000000000008000000000000000000000000000000000000000000000000000000040000001000800000000000000000000004008010000000000000000400000000000000000000000000004000000000000000000000000000040000000000000000000000000000000000000000000000000000080000000000000002000200000000002000000000000000000000100000000000000000000000000000000000000000000040000000000000000000000000000000000010",
      "type": "0x2",
      "transactionHash": "0x1dd023aa8acc84373eb0afdb8c1338973785d289007ba5ff0c53b211c471181c",
      "transactionIndex": "0x9e",
      "blockHash": "0x3154ff719bb7bea4c9ed62af4212a2527cb6732770cb3b41a93e1b8fdf021537",
      "blockNumber": "0x78a2d0",
      "gasUsed": "0x720cd",
      "effectiveGasPrice": "0xe5e98615",
      "from": "0x4b4b30e2e7c6463b03cdffd6c42329d357205334",
      "to": "0x2666beb71e0dd95223b98c945c9808c1b07c271e",
      "contractAddress": null
    },
    {
      "status": "0x1",
      "cumulativeGasUsed": "0xdfd4f0",
      "logs": [
        {
          "address": "0xe6499c7384422f15aeef0297c2ca3d29fecc8f2f",
          "topics": [
            "0xddf252ad1be2c89b69c2b068fc378daa952ba7f163c4a11628f55a4df523b3ef",
            "0x0000000000000000000000004b4b30e2e7c6463b03cdffd6c42329d357205334",
            "0x0000000000000000000000002666beb71e0dd95223b98c945c9808c1b07c271e"
          ],
          "data": "0x00000000000000000000000000000000000000000000000006c3f766a20eb88c",
          "blockHash": "0x3154ff719bb7bea4c9ed62af4212a2527cb6732770cb3b41a93e1b8fdf021537",
          "blockNumber": "0x78a2d0",
          "blockTimestamp": "0x67d52fc0",
          "transactionHash": "0x07ee7c2f8359e7f966663b4ecf28e110d399a444234d2fdf7a1ce3c712a9aac6",
          "transactionIndex": "0x9f",
          "logIndex": "0xf9",
          "removed": false
        },
        {
          "address": "0x2666beb71e0dd95223b98c945c9808c1b07c271e",
          "topics": [
            "0xf812a30160cd1fb46386678219b1c28ddc923c9b3a18805e38c090fd7b41bb71",
            "0x0000000000000000000000004b4b30e2e7c6463b03cdffd6c42329d357205334",
            "0x0000000000000000000000000000000000000000000000000000000000000006"
          ],
          "data": "0x000000000000000000000000000000000000000000000000000000000000000100000000000000000000000000000000000000000000000000000000000000020000000000000000000000000000000000000000000000000de0b6b3a764000000000000000000000000000000000000000000000000000006c3f766a20eb88c",
          "blockHash": "0x3154ff719bb7bea4c9ed62af4212a2527cb6732770cb3b41a93e1b8fdf021537",
          "blockNumber": "0x78a2d0",
          "blockTimestamp": "0x67d52fc0",
          "transactionHash": "0x07ee7c2f8359e7f966663b4ecf28e110d399a444234d2fdf7a1ce3c712a9aac6",
          "transactionIndex": "0x9f",
          "logIndex": "0xfa",
          "removed": false
        }
      ],
      "logsBloom": "0x00000000000000000000000000000000000000040000000000000000000000000000000000000000000000000000002000000000000400000000000000000008000000000000000000000008000000000000000000000000000000000000000000000000000000040000001000800000000000000000000004008010000000000000000400000000000000000000000000004000000000000000000000000000040000000000000000000000000000000000000000000000000000080000000000000002000200000000002000000000000000000000100000000000000000000000000000000000000000000040000000000000000000000000000000000010",
      "type": "0x2",
      "transactionHash": "0x07ee7c2f8359e7f966663b4ecf28e110d399a444234d2fdf7a1ce3c712a9aac6",
      "transactionIndex": "0x9f",
      "blockHash": "0x3154ff719bb7bea4c9ed62af4212a2527cb6732770cb3b41a93e1b8fdf021537",
      "blockNumber": "0x78a2d0",
      "gasUsed": "0x6aeaa",
      "effectiveGasPrice": "0xe5e98615",
      "from": "0x4b4b30e2e7c6463b03cdffd6c42329d357205334",
      "to": "0x2666beb71e0dd95223b98c945c9808c1b07c271e",
      "contractAddress": null
    }
  ],
  "libraries": [],
  "pending": [],
  "returns": {},
  "timestamp": 1742024641,
  "chain": 11155111,
  "commit": "e076ef1"
}