{
  "transactions": [
    {
      "hash": "0x464e142e975af4f6e50dc49d3ff4220dc9c9c315d9fd1342a884c757953c8313",
      "transactionType": "CALL",
      "contractName": null,
      "contractAddress": "0x2666beb71e0dd95223b98c945c9808c1b07c271e",
      "function": "claimReward(uint256)",
      "arguments": [
        "2"
      ],
      "transaction": {
        "from": "0x4b4b30e2e7c6463b03cdffd6c42329d357205334",
        "to": "0x2666beb71e0dd95223b98c945c9808c1b07c271e",
        "gas": "0x14e36",
        "value": "0x0",
        "input": "0xae169a500000000000000000000000000000000000000000000000000000000000000002",
        "nonce": "0xc7",
        "chainId": "0xaa36a7"
      },
      "additionalContracts": [],
      "isFixedGasLimit": false
    }
  ],
  "receipts": [
    {
      "status": "0x1",
      "cumulativeGasUsed": "0x21b3e97",
      "logs": [
        {
          "address": "0xe6499c7384422f15aeef0297c2ca3d29fecc8f2f",
          "topics": [
            "0xddf252ad1be2c89b69c2b068fc378daa952ba7f163c4a11628f55a4df523b3ef",
            "0x0000000000000000000000002666beb71e0dd95223b98c945c9808c1b07c271e",
            "0x0000000000000000000000004b4b30e2e7c6463b03cdffd6c42329d357205334"
          ],
          "data": "0x0000000000000000000000000000000000000000000000000de0b6b3a763ffe2",
          "blockHash": "0xaa14217d0bf534e9ddc9d0e5be19d88a611a46dafdc3105064c4d051fb14a9fc",
          "blockNumber": "0x78a20f",
          "blockTimestamp": "0x67d52618",
          "transactionHash": "0x464e142e975af4f6e50dc49d3ff4220dc9c9c315d9fd1342a884c757953c8313",
          "transactionIndex": "0xcf",
          "logIndex": "0x1b6",
          "removed": false
        },
        {
          "address": "0x2666beb71e0dd95223b98c945c9808c1b07c271e",
          "topics": [
            "0xf01da32686223933d8a18a391060918c7f11a3648639edd87ae013e2e2731743",
            "0x0000000000000000000000004b4b30e2e7c6463b03cdffd6c42329d357205334",
            "0x0000000000000000000000000000000000000000000000000000000000000002"
          ],
          "data": "0x0000000000000000000000000000000000000000000000000de0b6b3a763ffe2",
          "blockHash": "0xaa14217d0bf534e9ddc9d0e5be19d88a611a46dafdc3105064c4d051fb14a9fc",
          "blockNumber": "0x78a20f",
          "blockTimestamp": "0x67d52618",
          "transactionHash": "0x464e142e975af4f6e50dc49d3ff4220dc9c9c315d9fd1342a884c757953c8313",
          "transactionIndex": "0xcf",
          "logIndex": "0x1b7",
          "removed": false
        }
      ],
      "logsBloom": "0x04000000000000000400000000000040000000000000000000000000000000000000000000000000000000000000002000000000000000000000000000000000000000000000000000000008000000000000000000000000000000000000000000000000000000040000001000800000000000000000000004000010000000000000000000000000000000000000000000004000000000000000000000000000040000000000000000000100000000000000000000000000000000000000000000000002000200000000002000000000000000000000100000000000000000000000000000000000000000000040000000000000008000000000000000000010",
      "type": "0x2",
      "transactionHash": "0x464e142e975af4f6e50dc49d3ff4220dc9c9c315d9fd1342a884c757953c8313",
      "transactionIndex": "0xcf",
      "blockHash": "0xaa14217d0bf534e9ddc9d0e5be19d88a611a46dafdc3105064c4d051fb14a9fc",
      "blockNumber": "0x78a20f",
      "gasUsed": "0xf1f7",
      "effectiveGasPrice": "0xfbc93f0",
      "from": "0x4b4b30e2e7c6463b03cdffd6c42329d357205334",
      "to": "0x2666beb71e0dd95223b98c945c9808c1b07c271e",
      "contractAddress": null
    }
  ],
  "libraries": [],
  "pending": [],
  "returns": {},
  "timestamp": 1742022170,
  "chain": 11155111,
  "commit": "e076ef1"
}