{
  "transactions": [
    {
      "hash": "0x5fc650ac509ee991eec3515dcec7c93581859e38451457710c4d0f5317c75424",
      "transactionType": "CALL",
      "contractName": null,
      "contractAddress": "0x2666beb71e0dd95223b98c945c9808c1b07c271e",
      "function": "createMarket(string,uint256)",
      "arguments": [
        "Will ETH price exceed $5000 by the end of 2024?",
        "1744614768"
      ],
      "transaction": {
        "from": "0x4b4b30e2e7c6463b03cdffd6c42329d357205334",
        "to": "0x2666beb71e0dd95223b98c945c9808c1b07c271e",
        "gas": "0x5140e",
        "value": "0x0",
        "input": "0x883c84c100000000000000000000000000000000000000000000000000000000000000400000000000000000000000000000000000000000000000000000000067fcb570000000000000000000000000000000000000000000000000000000000000002f57696c6c20455448207072696365206578636565642024353030302062792074686520656e64206f6620323032343f0000000000000000000000000000000000",
        "nonce": "0xcf",
        "chainId": "0xaa36a7"
      },
      "additionalContracts": [],
      "isFixedGasLimit": false
    },
    {
      "hash": "0x41c642546bb11d94aa29cf8c5607b92fc70528f3a710698c58a13c2a8279dcdb",
      "transactionType": "CALL",
      "contractName": null,
      "contractAddress": "0x2666beb71e0dd95223b98c945c9808c1b07c271e",
      "function": "buy(uint256,bool,uint256)",
      "arguments": [
        "4",
        "true",
        "1000000000000000000"
      ],
      "transaction": {
        "from": "0x4b4b30e2e7c6463b03cdffd6c42329d357205334",
        "to": "0x2666beb71e0dd95223b98c945c9808c1b07c271e",
        "gas": "0x9d880",
        "value": "0x0",
        "input": "0x438af924000000000000000000000000000000000000000000000000000000000000000400000000000000000000000000000000000000000000000000000000000000010000000000000000000000000000000000000000000000000de0b6b3a7640000",
        "nonce": "0xd0",
        "chainId": "0xaa36a7"
      },
      "additionalContracts": [],
      "isFixedGasLimit": false
    },
    {
      "hash": "0xc1582c87801bd6bb6f12490241df2dab565a58fa970fc185ffe32642ae6bb3e4",
      "transactionType": "CALL",
      "contractName": null,
      "contractAddress": "0x2666beb71e0dd95223b98c945c9808c1b07c271e",
      "function": "buy(uint256,bool,uint256)",
      "arguments": [
        "4",
        "false",
        "1000000000000000000"
      ],
      "transaction": {
        "from": "0x4b4b30e2e7c6463b03cdffd6c42329d357205334",
        "to": "0x2666beb71e0dd95223b98c945c9808c1b07c271e",
        "gas": "0x9c5d8",
        "value": "0x0",
        "input": "0x438af924000000000000000000000000000000000000000000000000000000000000000400000000000000000000000000000000000000000000000000000000000000000000000000000000000000000000000000000000000000000de0b6b3a7640000",
        "nonce": "0xd1",
        "chainId": "0xaa36a7"
      },
      "additionalContracts": [],
      "isFixedGasLimit": false
    }
  ],
  "receipts": [
    {
      "status": "0x1",
      "cumulativeGasUsed": "0xb4052d",
      "logs": [
        {
          "address": "0x2666beb71e0dd95223b98c945c9808c1b07c271e",
          "topics": [
            "0x57d0d124b72f81ed1da0dc728fc33db342705974792928796f6577b8db5c3d53",
            "0x0000000000000000000000000000000000000000000000000000000000000004"
          ],
          "data": "0x00000000000000000000000000000000000000000000000000000000000000600000000000000000000000000000000000000000000000000000000067fcb5700000000000000000000000004b4b30e2e7c6463b03cdffd6c42329d357205334000000000000000000000000000000000000000000000000000000000000002f57696c6c20455448207072696365206578636565642024353030302062792074686520656e64206f6620323032343f0000000000000000000000000000000000",
          "blockHash": "0x6c7f72f1f445b8786c72df9d9109e15b3d377c6ec53182cffb3d61d25adff862",
          "blockNumber": "0x78a240",
          "blockTimestamp": "0x67d52888",
          "transactionHash": "0x5fc650ac509ee991eec3515dcec7c93581859e38451457710c4d0f5317c75424",
          "transactionIndex": "0x51",
          "logIndex": "0x84",
          "removed": false
        }
      ],
      "logsBloom": "0x00000000000000000000000000000000000000000000000000000000000000000000000000000000000000000000000000000000000000000000000000000000000000000000000000000000000000000000000000000000000000000000000008000000000000000000000000000000000000000000000000000000000000000000000000000000800080000000000000000000000000000000000000000000040000000000000000000000000000000000000000000000002000000000000000000000000200000000002000000000000000008000000000000000000000000004000000000000000000000000000000000000000000000000000000000000",
      "type": "0x2",
      "transactionHash": "0x5fc650ac509ee991eec3515dcec7c93581859e38451457710c4d0f5317c75424",
      "transactionIndex": "0x51",
      "blockHash": "0x6c7f72f1f445b8786c72df9d9109e15b3d377c6ec53182cffb3d61d25adff862",
      "blockNumber": "0x78a240",
      "gasUsed": "0x3ad38",
      "effectiveGasPrice": "0x296d0743",
      "from": "0x4b4b30e2e7c6463b03cdffd6c42329d357205334",
      "to": "0x2666beb71e0dd95223b98c945c9808c1b07c271e",
      "contractAddress": null
    },
    {
      "status": "0x1",
      "cumulativeGasUsed": "0xbb25fa",
      "logs": [
        {
          "address": "0xe6499c7384422f15aeef0297c2ca3d29fecc8f2f",
          "topics": [
            "0xddf252ad1be2c89b69c2b068fc378daa952ba7f163c4a11628f55a4df523b3ef",
            "0x0000000000000000000000004b4b30e2e7c6463b03cdffd6c42329d357205334",
            "0x0000000000000000000000002666beb71e0dd95223b98c945c9808c1b07c271e"
          ],
          "data": "0x000000000000000000000000000000000000000000000000071cbf4d05554756",
          "blockHash": "0x6c7f72f1f445b8786c72df9d9109e15b3d377c6ec53182cffb3d61d25adff862",
          "blockNumber": "0x78a240",
          "blockTimestamp": "0x67d52888",
          "transactionHash": "0x41c642546bb11d94aa29cf8c5607b92fc70528f3a710698c58a13c2a8279dcdb",
          "transactionIndex": "0x52",
          "logIndex": "0x85",
          "removed": false
        },
        {
          "address": "0x2666beb71e0dd95223b98c945c9808c1b07c271e",
          "topics": [
            "0xf812a30160cd1fb46386678219b1c28ddc923c9b3a18805e38c090fd7b41bb71",
            "0x0000000000000000000000004b4b30e2e7c6463b03cdffd6c42329d357205334",
            "0x0000000000000000000000000000000000000000000000000000000000000004"
          ],
          "data": "0x000000000000000000000000000000000000000000000000000000000000000100000000000000000000000000000000000000000000000000000000000000010000000000000000000000000000000000000000000000000de0b6b3a7640000000000000000000000000000000000000000000000000000071cbf4d05554756",
          "blockHash": "0x6c7f72f1f445b8786c72df9d9109e15b3d377c6ec53182cffb3d61d25adff862",
          "blockNumber": "0x78a240",
          "blockTimestamp": "0x67d52888",
          "transactionHash": "0x41c642546bb11d94aa29cf8c5607b92fc70528f3a710698c58a13c2a8279dcdb",
          "transactionIndex": "0x52",
          "logIndex": "0x86",
          "removed": false
        }
      ],
      "logsBloom": "0x00000000000000000000000000000000000000040000000000000000000000000000000000000000000000000000002000000000000000000000000000000008000000000000000000000008000000000000000000000000000000000000000008000000000000040000001000800000000000000000000004008010000000000000000000000000000000000000000000004000000000000000000000000000040000000000000000000000000000000000000000000000002000000000000000000002000200000000002000000000000000008000100000000000000000000000000000000000000000000040000000000000000000000000000000000010",
      "type": "0x2",
      "transactionHash": "0x41c642546bb11d94aa29cf8c5607b92fc70528f3a710698c58a13c2a8279dcdb",
      "transactionIndex": "0x52",
      "blockHash": "0x6c7f72f1f445b8786c72df9d9109e15b3d377c6ec53182cffb3d61d25adff862",
      "blockNumber": "0x78a240",
      "gasUsed": "0x720cd",
      "effectiveGasPrice": "0x296d0743",
      "from": "0x4b4b30e2e7c6463b03cdffd6c42329d357205334",
      "to": "0x2666beb71e0dd95223b98c945c9808c1b07c271e",
      "contractAddress": null
    },
    {
      "status": "0x1",
      "cumulativeGasUsed": "0xc1d4a4",
      "logs": [
        {
          "address": "0xe6499c7384422f15aeef0297c2ca3d29fecc8f2f",
          "topics": [
            "0xddf252ad1be2c89b69c2b068fc378daa952ba7f163c4a11628f55a4df523b3ef",
            "0x0000000000000000000000004b4b30e2e7c6463b03cdffd6c42329d357205334",
            "0x0000000000000000000000002666beb71e0dd95223b98c945c9808c1b07c271e"
          ],
          "data": "0x00000000000000000000000000000000000000000000000006c3f766a20eb88c",
          "blockHash": "0x6c7f72f1f445b8786c72df9d9109e15b3d377c6ec53182cffb3d61d25adff862",
          "blockNumber": "0x78a240",
          "blockTimestamp": "0x67d52888",
          "transactionHash": "0xc1582c87801bd6bb6f12490241df2dab565a58fa970fc185ffe32642ae6bb3e4",
          "transactionIndex": "0x53",
          "logIndex": "0x87",
          "removed": false
        },
        {
          "address": "0x2666beb71e0dd95223b98c945c9808c1b07c271e",
          "topics": [
            "0xf812a30160cd1fb46386678219b1c28ddc923c9b3a18805e38c090fd7b41bb71",
            "0x0000000000000000000000004b4b30e2e7c6463b03cdffd6c42329d357205334",
            "0x0000000000000000000000000000000000000000000000000000000000000004"
          ],
          "data": "0x000000000000000000000000000000000000000000000000000000000000000100000000000000000000000000000000000000000000000000000000000000020000000000000000000000000000000000000000000000000de0b6b3a764000000000000000000000000000000000000000000000000000006c3f766a20eb88c",
          "blockHash": "0x6c7f72f1f445b8786c72df9d9109e15b3d377c6ec53182cffb3d61d25adff862",
          "blockNumber": "0x78a240",
          "blockTimestamp": "0x67d52888",
          "transactionHash": "0xc1582c87801bd6bb6f12490241df2dab565a58fa970fc185ffe32642ae6bb3e4",
          "transactionIndex": "0x53",
          "logIndex": "0x88",
          "removed": false
        }
      ],
      "logsBloom": "0x00000000000000000000000000000000000000040000000000000000000000000000000000000000000000000000002000000000000000000000000000000008000000000000000000000008000000000000000000000000000000000000000008000000000000040000001000800000000000000000000004008010000000000000000000000000000000000000000000004000000000000000000000000000040000000000000000000000000000000000000000000000002000000000000000000002000200000000002000000000000000008000100000000000000000000000000000000000000000000040000000000000000000000000000000000010",
      "type": "0x2",
      "transactionHash": "0xc1582c87801bd6bb6f12490241df2dab565a58fa970fc185ffe32642ae6bb3e4",
      "transactionIndex": "0x53",
      "blockHash": "0x6c7f72f1f445b8786c72df9d9109e15b3d377c6ec53182cffb3d61d25adff862",
      "blockNumber": "0x78a240",
      "gasUsed": "0x6aeaa",
      "effectiveGasPrice": "0x296d0743",
      "from": "0x4b4b30e2e7c6463b03cdffd6c42329d357205334",
      "to": "0x2666beb71e0dd95223b98c945c9808c1b07c271e",
      "contractAddress": null
    }
  ],
  "libraries": [],
  "pending": [],
  "returns": {},
  "timestamp": 1742022793,
  "chain": 11155111,
  "commit": "e076ef1"
}