{
  "transactions": [
    {
      "hash": "0x4f19e8f4f1430f714be48bbca1ba5ac3c1a18aef3a8f01dbf88e86093b41a140",
      "transactionType": "CALL",
      "contractName": null,
      "contractAddress": "0x9aa0ac61a31f46d36ad7c28f8feca68ce5d09798",
      "function": "createMarket(string,uint256)",
      "arguments": [
        "Will ETH price exceed $5000 by the end of 2024?",
        "1744574796"
      ],
      "transaction": {
        "from": "0x4b4b30e2e7c6463b03cdffd6c42329d357205334",
        "to": "0x9aa0ac61a31f46d36ad7c28f8feca68ce5d09798",
        "gas": "0x50540",
        "value": "0x0",
        "input": "0x883c84c100000000000000000000000000000000000000000000000000000000000000400000000000000000000000000000000000000000000000000000000067fc194c000000000000000000000000000000000000000000000000000000000000002f57696c6c20455448207072696365206578636565642024353030302062792074686520656e64206f6620323032343f0000000000000000000000000000000000",
        "nonce": "0xab",
        "chainId": "0xaa36a7"
      },
      "additionalContracts": [],
      "isFixedGasLimit": false
    },
    {
      "hash": "0x5239c62a093bceb7b13866f98fcf5d3ab93e904fc3e218b47dd3b288dc2ecb2d",
      "transactionType": "CALL",
      "contractName": null,
      "contractAddress": "0x9aa0ac61a31f46d36ad7c28f8feca68ce5d09798",
      "function": "buy(uint256,bool,uint256)",
      "arguments": [
        "2",
        "true",
        "1000000000000000000"
      ],
      "transaction": {
        "from": "0x4b4b30e2e7c6463b03cdffd6c42329d357205334",
        "to": "0x9aa0ac61a31f46d36ad7c28f8feca68ce5d09798",
        "gas": "0x9d95d",
        "value": "0x0",
        "input": "0x438af924000000000000000000000000000000000000000000000000000000000000000200000000000000000000000000000000000000000000000000000000000000010000000000000000000000000000000000000000000000000de0b6b3a7640000",
        "nonce": "0xac",
        "chainId": "0xaa36a7"
      },
      "additionalContracts": [],
      "isFixedGasLimit": false
    },
    {
      "hash": "0xa9cffbfc2db4336bc902a11490765c249f00a21aa0830efad1afbc18c32324f4",
      "transactionType": "CALL",
      "contractName": null,
      "contractAddress": "0x9aa0ac61a31f46d36ad7c28f8feca68ce5d09798",
      "function": "buy(uint256,bool,uint256)",
      "arguments": [
        "2",
        "false",
        "1000000000000000000"
      ],
      "transaction": {
        "from": "0x4b4b30e2e7c6463b03cdffd6c42329d357205334",
        "to": "0x9aa0ac61a31f46d36ad7c28f8feca68ce5d09798",
        "gas": "0x9c6c2",
        "value": "0x0",
        "input": "0x438af924000000000000000000000000000000000000000000000000000000000000000200000000000000000000000000000000000000000000000000000000000000000000000000000000000000000000000000000000000000000de0b6b3a7640000",
        "nonce": "0xad",
        "chainId": "0xaa36a7"
      },
      "additionalContracts": [],
      "isFixedGasLimit": false
    }
  ],
  "receipts": [
    {
      "status": "0x1",
      "cumulativeGasUsed": "0xa68394",
      "logs": [
        {
          "address": "0x9aa0ac61a31f46d36ad7c28f8feca68ce5d09798",
          "topics": [
            "0x57d0d124b72f81ed1da0dc728fc33db342705974792928796f6577b8db5c3d53",
            "0x0000000000000000000000000000000000000000000000000000000000000002"
          ],
          "data": "0x00000000000000000000000000000000000000000000000000000000000000600000000000000000000000000000000000000000000000000000000067fc194c0000000000000000000000004b4b30e2e7c6463b03cdffd6c42329d357205334000000000000000000000000000000000000000000000000000000000000002f57696c6c20455448207072696365206578636565642024353030302062792074686520656e64206f6620323032343f0000000000000000000000000000000000",
          "blockHash": "0xc3ef67f83b4b2228d0acb66aeac2de7a6385ce881ecba5deac8897b56c28cab2",
          "blockNumber": "0x7895f1",
          "blockTimestamp": "0x67d48c70",
          "transactionHash": "0x4f19e8f4f1430f714be48bbca1ba5ac3c1a18aef3a8f01dbf88e86093b41a140",
          "transactionIndex": "0x70",
          "logIndex": "0xaa",
          "removed": false
        }
      ],
      "logsBloom": "0x04000000000000000000000000000000000000000000000000000000000000000000000000000000000000000000000000000000000000000000000000000000000000000000000000000000000000000000000000000000000000000000000000000000000000000000000000000000000000000000000000000000000000000000000000000000800080000000000000000000000000000000000000000000000000000000000000000100000000000000000000000000000000000000000000000000000000000000000000000400000000000000000000000000000000000004000000000000000000000000000000100000008000000000000000002000",
      "type": "0x2",
      "transactionHash": "0x4f19e8f4f1430f714be48bbca1ba5ac3c1a18aef3a8f01dbf88e86093b41a140",
      "transactionIndex": "0x70",
      "blockHash": "0xc3ef67f83b4b2228d0acb66aeac2de7a6385ce881ecba5deac8897b56c28cab2",
      "blockNumber": "0x7895f1",
      "gasUsed": "0x3a280",
      "effectiveGasPrice": "0x1ed9ce97",
      "from": "0x4b4b30e2e7c6463b03cdffd6c42329d357205334",
      "to": "0x9aa0ac61a31f46d36ad7c28f8feca68ce5d09798",
      "contractAddress": null
    },
    {
      "status": "0x1",
      "cumulativeGasUsed": "0xada501",
      "logs": [
        {
          "address": "0x032476534b9b13ca08837ac01cdecb5b44c0f606",
          "topics": [
            "0xddf252ad1be2c89b69c2b068fc378daa952ba7f163c4a11628f55a4df523b3ef",
            "0x0000000000000000000000004b4b30e2e7c6463b03cdffd6c42329d357205334",
            "0x0000000000000000000000009aa0ac61a31f46d36ad7c28f8feca68ce5d09798"
          ],
          "data": "0x000000000000000000000000000000000000000000000000071cbf4d05554756",
          "blockHash": "0xc3ef67f83b4b2228d0acb66aeac2de7a6385ce881ecba5deac8897b56c28cab2",
          "blockNumber": "0x7895f1",
          "blockTimestamp": "0x67d48c70",
          "transactionHash": "0x5239c62a093bceb7b13866f98fcf5d3ab93e904fc3e218b47dd3b288dc2ecb2d",
          "transactionIndex": "0x71",
          "logIndex": "0xab",
          "removed": false
        },
        {
          "address": "0x9aa0ac61a31f46d36ad7c28f8feca68ce5d09798",
          "topics": [
            "0xf812a30160cd1fb46386678219b1c28ddc923c9b3a18805e38c090fd7b41bb71",
            "0x0000000000000000000000004b4b30e2e7c6463b03cdffd6c42329d357205334",
            "0x0000000000000000000000000000000000000000000000000000000000000002"
          ],
          "data": "0x000000000000000000000000000000000000000000000000000000000000000100000000000000000000000000000000000000000000000000000000000000010000000000000000000000000000000000000000000000000de0b6b3a7640000000000000000000000000000000000000000000000000000071cbf4d05554756",
          "blockHash": "0xc3ef67f83b4b2228d0acb66aeac2de7a6385ce881ecba5deac8897b56c28cab2",
          "blockNumber": "0x7895f1",
          "blockTimestamp": "0x67d48c70",
          "transactionHash": "0x5239c62a093bceb7b13866f98fcf5d3ab93e904fc3e218b47dd3b288dc2ecb2d",
          "transactionIndex": "0x71",
          "logIndex": "0xac",
          "removed": false
        }
      ],
      "logsBloom": "0x04000000000000000000000000000000000000040000000000000000000000000000000000000000000000000000000000000000000000000000000020000088000000000400000000000008000000000000000000000000000000000000000000000000000000040000000080000000000000000000000000008010000000000000000000000000000000000000000000000000000000000000000000000000000000000000000000000100000000000000000200000000000000000000000000000002000000000000000000000400000000000000100000000000000000000000000000000008000000000000000000100000008000000000000000002010",
      "type": "0x2",
      "transactionHash": "0x5239c62a093bceb7b13866f98fcf5d3ab93e904fc3e218b47dd3b288dc2ecb2d",
      "transactionIndex": "0x71",
      "blockHash": "0xc3ef67f83b4b2228d0acb66aeac2de7a6385ce881ecba5deac8897b56c28cab2",
      "blockNumber": "0x7895f1",
      "gasUsed": "0x7216d",
      "effectiveGasPrice": "0x1ed9ce97",
      "from": "0x4b4b30e2e7c6463b03cdffd6c42329d357205334",
      "to": "0x9aa0ac61a31f46d36ad7c28f8feca68ce5d09798",
      "contractAddress": null
    },
    {
      "status": "0x1",
      "cumulativeGasUsed": "0xb4544b",
      "logs": [
        {
          "address": "0x032476534b9b13ca08837ac01cdecb5b44c0f606",
          "topics": [
            "0xddf252ad1be2c89b69c2b068fc378daa952ba7f163c4a11628f55a4df523b3ef",
            "0x0000000000000000000000004b4b30e2e7c6463b03cdffd6c42329d357205334",
            "0x0000000000000000000000009aa0ac61a31f46d36ad7c28f8feca68ce5d09798"
          ],
          "data": "0x00000000000000000000000000000000000000000000000006c3f766a20eb88c",
          "blockHash": "0xc3ef67f83b4b2228d0acb66aeac2de7a6385ce881ecba5deac8897b56c28cab2",
          "blockNumber": "0x7895f1",
          "blockTimestamp": "0x67d48c70",
          "transactionHash": "0xa9cffbfc2db4336bc902a11490765c249f00a21aa0830efad1afbc18c32324f4",
          "transactionIndex": "0x72",
          "logIndex": "0xad",
          "removed": false
        },
        {
          "address": "0x9aa0ac61a31f46d36ad7c28f8feca68ce5d09798",
          "topics": [
            "0xf812a30160cd1fb46386678219b1c28ddc923c9b3a18805e38c090fd7b41bb71",
            "0x0000000000000000000000004b4b30e2e7c6463b03cdffd6c42329d357205334",
            "0x0000000000000000000000000000000000000000000000000000000000000002"
          ],
          "data": "0x000000000000000000000000000000000000000000000000000000000000000100000000000000000000000000000000000000000000000000000000000000020000000000000000000000000000000000000000000000000de0b6b3a764000000000000000000000000000000000000000000000000000006c3f766a20eb88c",
          "blockHash": "0xc3ef67f83b4b2228d0acb66aeac2de7a6385ce881ecba5deac8897b56c28cab2",
          "blockNumber": "0x7895f1",
          "blockTimestamp": "0x67d48c70",
          "transactionHash": "0xa9cffbfc2db4336bc902a11490765c249f00a21aa0830efad1afbc18c32324f4",
          "transactionIndex": "0x72",
          "logIndex": "0xae",
          "removed": false
        }
      ],
      "logsBloom": "0x04000000000000000000000000000000000000040000000000000000000000000000000000000000000000000000000000000000000000000000000020000088000000000400000000000008000000000000000000000000000000000000000000000000000000040000000080000000000000000000000000008010000000000000000000000000000000000000000000000000000000000000000000000000000000000000000000000100000000000000000200000000000000000000000000000002000000000000000000000400000000000000100000000000000000000000000000000008000000000000000000100000008000000000000000002010",
      "type": "0x2",
      "transactionHash": "0xa9cffbfc2db4336bc902a11490765c249f00a21aa0830efad1afbc18c32324f4",
      "transactionIndex": "0x72",
      "blockHash": "0xc3ef67f83b4b2228d0acb66aeac2de7a6385ce881ecba5deac8897b56c28cab2",
      "blockNumber": "0x7895f1",
      "gasUsed": "0x6af4a",
      "effectiveGasPrice": "0x1ed9ce97",
      "from": "0x4b4b30e2e7c6463b03cdffd6c42329d357205334",
      "to": "0x9aa0ac61a31f46d36ad7c28f8feca68ce5d09798",
      "contractAddress": null
    }
  ],
  "libraries": [],
  "pending": [],
  "returns": {},
  "timestamp": 1741982834,
  "chain": 11155111,
  "commit": "0360f57"
}