{
  "transactions": [
    {
      "hash": "0x06e2c522dd57837969c14220771380ed978e4d79e574868df97ffd44aed3b0a9",
      "transactionType": "CALL",
      "contractName": null,
      "contractAddress": "0x2666beb71e0dd95223b98c945c9808c1b07c271e",
      "function": "resolve(uint256,bool,bytes)",
      "arguments": [
        "8",
        "true",
        "0x"
      ],
      "transaction": {
        "from": "0x4b4b30e2e7c6463b03cdffd6c42329d357205334",
        "to": "0x2666beb71e0dd95223b98c945c9808c1b07c271e",
        "gas": "0x1bdf9",
        "value": "0x0",
        "input": "0x7dfaf4930000000000000000000000000000000000000000000000000000000000000008000000000000000000000000000000000000000000000000000000000000000100000000000000000000000000000000000000000000000000000000000000600000000000000000000000000000000000000000000000000000000000000000",
        "nonce": "0xf9",
        "chainId": "0xaa36a7"
      },
      "additionalContracts": [],
      "isFixedGasLimit": false
    }
  ],
  "receipts": [],
  "libraries": [],
  "pending": [],
  "returns": {},
  "timestamp": 1742026742,
  "chain": 11155111,
  "commit": "e076ef1"
}