{
  "transactions": [
    {
      "hash": "0xf37d9c82fe318773c13fef02fee54be520bf538ab529d14bac5e13fc23aabae9",
      "transactionType": "CALL",
      "contractName": null,
      "contractAddress": "0x2666beb71e0dd95223b98c945c9808c1b07c271e",
      "function": "resolve(uint256,bool,bytes)",
      "arguments": [
        "1",
        "true",
        "0x"
      ],
      "transaction": {
        "from": "0x4b4b30e2e7c6463b03cdffd6c42329d357205334",
        "to": "0x2666beb71e0dd95223b98c945c9808c1b07c271e",
        "gas": "0x1bdf9",
        "value": "0x0",
        "input": "0x7dfaf4930000000000000000000000000000000000000000000000000000000000000001000000000000000000000000000000000000000000000000000000000000000100000000000000000000000000000000000000000000000000000000000000600000000000000000000000000000000000000000000000000000000000000000",
        "nonce": "0xc1",
        "chainId": "0xaa36a7"
      },
      "additionalContracts": [],
      "isFixedGasLimit": false
    }
  ],
  "receipts": [
    {
      "status": "0x1",
      "cumulativeGasUsed": "0x13b4c38",
      "logs": [
        {
          "address": "0xe6499c7384422f15aeef0297c2ca3d29fecc8f2f",
          "topics": [
            "0xddf252ad1be2c89b69c2b068fc378daa952ba7f163c4a11628f55a4df523b3ef",
            "0x0000000000000000000000000000000000000000000000000000000000000000",
            "0x0000000000000000000000002666beb71e0dd95223b98c945c9808c1b07c271e"
          ],
          "data": "0x000000000000000000000000000000000000000000000000071cbf4d0555476a",
          "blockHash": "0xbf0aab139d9fb0beed4aa1bf98725eebd1a4d17cd3a30ea838f75de0f193dfba",
          "blockNumber": "0x78a191",
          "blockTimestamp": "0x67d51ff4",
          "transactionHash": "0xf37d9c82fe318773c13fef02fee54be520bf538ab529d14bac5e13fc23aabae9",
          "transactionIndex": "0x8e",
          "logIndex": "0xf1",
          "removed": false
        },
        {
          "address": "0x2666beb71e0dd95223b98c945c9808c1b07c271e",
          "topics": [
            "0x6d4d544f5a6dcf38d77a232d3ef7358625c74877a1ad954fcb507872e7a05eaf",
            "0x0000000000000000000000000000000000000000000000000000000000000001"
          ],
          "data": "0x000000000000000000000000000000000000000000000000000000000000000100000000000000000000000000000000000000000000000014fd7600acb9474c",
          "blockHash": "0xbf0aab139d9fb0beed4aa1bf98725eebd1a4d17cd3a30ea838f75de0f193dfba",
          "blockNumber": "0x78a191",
          "blockTimestamp": "0x67d51ff4",
          "transactionHash": "0xf37d9c82fe318773c13fef02fee54be520bf538ab529d14bac5e13fc23aabae9",
          "transactionIndex": "0x8e",
          "logIndex": "0xf2",
          "removed": false
        }
      ],
      "logsBloom": "0x00000000001000000000000000000000000000000000000000000000000000000000000000000000000000000000002000000000000000000000000000040000000000000000000000000008000000000000000000040000000000000000000000000000020000000000001000800800000000000000000004000030000000000000000000000000000000000000000200004000000000000000000000000000040000000000000000000000000000000000000000000000000000000000000000000002000200000000002000000000000000000000000000000000000060000000000000000000000000000040000000000000000000000000000000000000",
      "type": "0x2",
      "transactionHash": "0xf37d9c82fe318773c13fef02fee54be520bf538ab529d14bac5e13fc23aabae9",
      "transactionIndex": "0x8e",
      "blockHash": "0xbf0aab139d9fb0beed4aa1bf98725eebd1a4d17cd3a30ea838f75de0f193dfba",
      "blockNumber": "0x78a191",
      "gasUsed": "0x130f1",
      "effectiveGasPrice": "0x109bc90",
      "from": "0x4b4b30e2e7c6463b03cdffd6c42329d357205334",
      "to": "0x2666beb71e0dd95223b98c945c9808c1b07c271e",
      "contractAddress": null
    }
  ],
  "libraries": [],
  "pending": [],
  "returns": {},
  "timestamp": 1742020599,
  "chain": 11155111,
  "commit": "e076ef1"
}