{
  "transactions": [
    {
      "hash": "0x8507b3d224eab1c87f7d6df5b0c9500f9140fc2cd5c6a4b51bc01016404976fe",
      "transactionType": "CALL",
      "contractName": null,
      "contractAddress": "0x2666beb71e0dd95223b98c945c9808c1b07c271e",
      "function": "createMarket(string,uint256)",
      "arguments": [
        "Will ETH price exceed $5000 by the end of 2024?",
        "1744618464"
      ],
      "transaction": {
        "from": "0x4b4b30e2e7c6463b03cdffd6c42329d357205334",
        "to": "0x2666beb71e0dd95223b98c945c9808c1b07c271e",
        "gas": "0x5140e",
        "value": "0x0",
        "input": "0x883c84c100000000000000000000000000000000000000000000000000000000000000400000000000000000000000000000000000000000000000000000000067fcc3e0000000000000000000000000000000000000000000000000000000000000002f57696c6c20455448207072696365206578636565642024353030302062792074686520656e64206f6620323032343f0000000000000000000000000000000000",
        "nonce": "0xf4",
        "chainId": "0xaa36a7"
      },
      "additionalContracts": [],
      "isFixedGasLimit": false
    },
    {
      "hash": "0xb471d4e23b560b2726bb539408cb2821791c939bcce65842fbf1dd08e7b8f1e4",
      "transactionType": "CALL",
      "contractName": null,
      "contractAddress": "0x2666beb71e0dd95223b98c945c9808c1b07c271e",
      "function": "buy(uint256,bool,uint256)",
      "arguments": [
        "8",
        "true",
        "1000000000000000000"
      ],
      "transaction": {
        "from": "0x4b4b30e2e7c6463b03cdffd6c42329d357205334",
        "to": "0x2666beb71e0dd95223b98c945c9808c1b07c271e",
        "gas": "0x9d880",
        "value": "0x0",
        "input": "0x438af924000000000000000000000000000000000000000000000000000000000000000800000000000000000000000000000000000000000000000000000000000000010000000000000000000000000000000000000000000000000de0b6b3a7640000",
        "nonce": "0xf5",
        "chainId": "0xaa36a7"
      },
      "additionalContracts": [],
      "isFixedGasLimit": false
    },
    {
      "hash": "0xd7955155fb7fd0f397947875f9200c4b62c3c7ab510c58d38e628c08d2136b63",
      "transactionType": "CALL",
      "contractName": null,
      "contractAddress": "0x2666beb71e0dd95223b98c945c9808c1b07c271e",
      "function": "buy(uint256,bool,uint256)",
      "arguments": [
        "8",
        "false",
        "1000000000000000000"
      ],
      "transaction": {
        "from": "0x4b4b30e2e7c6463b03cdffd6c42329d357205334",
        "to": "0x2666beb71e0dd95223b98c945c9808c1b07c271e",
        "gas": "0x9c5d8",
        "value": "0x0",
        "input": "0x438af924000000000000000000000000000000000000000000000000000000000000000800000000000000000000000000000000000000000000000000000000000000000000000000000000000000000000000000000000000000000de0b6b3a7640000",
        "nonce": "0xf6",
        "chainId": "0xaa36a7"
      },
      "additionalContracts": [],
      "isFixedGasLimit": false
    }
  ],
  "receipts": [
    {
      "status": "0x1",
      "cumulativeGasUsed": "0xb0ce20",
      "logs": [
        {
          "address": "0x2666beb71e0dd95223b98c945c9808c1b07c271e",
          "topics": [
            "0x57d0d124b72f81ed1da0dc728fc33db342705974792928796f6577b8db5c3d53",
            "0x0000000000000000000000000000000000000000000000000000000000000008"
          ],
          "data": "0x00000000000000000000000000000000000000000000000000000000000000600000000000000000000000000000000000000000000000000000000067fcc3e00000000000000000000000004b4b30e2e7c6463b03cdffd6c42329d357205334000000000000000000000000000000000000000000000000000000000000002f57696c6c20455448207072696365206578636565642024353030302062792074686520656e64206f6620323032343f0000000000000000000000000000000000",
          "blockHash": "0xfcbcf856220de58b45ce53442c31ffe8e5c91ed6fa5d07933373396e6ed1f9e6",
          "blockNumber": "0x78a363",
          "blockTimestamp": "0x67d53704",
          "transactionHash": "0x8507b3d224eab1c87f7d6df5b0c9500f9140fc2cd5c6a4b51bc01016404976fe",
          "transactionIndex": "0xb9",
          "logIndex": "0xb8",
          "removed": false
        }
      ],
      "logsBloom": "0x00000000000000000000000000000000000000000000000000000000000000000000000000000000000000000000000000000000000080000000000000000000000000000000000000000000000000000000000000000000000000000000000000000000000000000000000000000000000000000000000000000000000000000080000000000000800080000000000000000000000000000000000000000000040000000000000000000000000000000000000000000000000000000000000040000000000200000000002000000000000000000000000000000000000000000004000000000000000000000000000000000000000000000000000000000000",
      "type": "0x2",
      "transactionHash": "0x8507b3d224eab1c87f7d6df5b0c9500f9140fc2cd5c6a4b51bc01016404976fe",
      "transactionIndex": "0xb9",
      "blockHash": "0xfcbcf856220de58b45ce53442c31ffe8e5c91ed6fa5d07933373396e6ed1f9e6",
      "blockNumber": "0x78a363",
      "gasUsed": "0x3ad38",
      "effectiveGasPrice": "0x1ddb14fe3",
      "from": "0x4b4b30e2e7c6463b03cdffd6c42329d357205334",
      "to": "0x2666beb71e0dd95223b98c945c9808c1b07c271e",
      "contractAddress": null
    },
    {
      "status": "0x1",
      "cumulativeGasUsed": "0xb7eeed",
      "logs": [
        {
          "address": "0xe6499c7384422f15aeef0297c2ca3d29fecc8f2f",
          "topics": [
            "0xddf252ad1be2c89b69c2b068fc378daa952ba7f163c4a11628f55a4df523b3ef",
            "0x0000000000000000000000004b4b30e2e7c6463b03cdffd6c42329d357205334",
            "0x0000000000000000000000002666beb71e0dd95223b98c945c9808c1b07c271e"
          ],
          "data": "0x000000000000000000000000000000000000000000000000071cbf4d05554756",
          "blockHash": "0xfcbcf856220de58b45ce53442c31ffe8e5c91ed6fa5d07933373396e6ed1f9e6",
          "blockNumber": "0x78a363",
          "blockTimestamp": "0x67d53704",
          "transactionHash": "0xb471d4e23b560b2726bb539408cb2821791c939bcce65842fbf1dd08e7b8f1e4",
          "transactionIndex": "0xba",
          "logIndex": "0xb9",
          "removed": false
        },
        {
          "address": "0x2666beb71e0dd95223b98c945c9808c1b07c271e",
          "topics": [
            "0xf812a30160cd1fb46386678219b1c28ddc923c9b3a18805e38c090fd7b41bb71",
            "0x0000000000000000000000004b4b30e2e7c6463b03cdffd6c42329d357205334",
            "0x0000000000000000000000000000000000000000000000000000000000000008"
          ],
          "data": "0x000000000000000000000000000000000000000000000000000000000000000100000000000000000000000000000000000000000000000000000000000000010000000000000000000000000000000000000000000000000de0b6b3a7640000000000000000000000000000000000000000000000000000071cbf4d05554756",
          "blockHash": "0xfcbcf856220de58b45ce53442c31ffe8e5c91ed6fa5d07933373396e6ed1f9e6",
          "blockNumber": "0x78a363",
          "blockTimestamp": "0x67d53704",
          "transactionHash": "0xb471d4e23b560b2726bb539408cb2821791c939bcce65842fbf1dd08e7b8f1e4",
          "transactionIndex": "0xba",
          "logIndex": "0xba",
          "removed": false
        }
      ],
      "logsBloom": "0x00000000000000000000000000000000000000040000000000000000000000000000000000000000000000000000002000000000000080000000000000000008000000000000000000000008000000000000000000000000000000000000000000000000000000040000001000800000000000000000000004008010000000000080000000000000000000000000000000004000000000000000000000000000040000000000000000000000000000000000000000000000000000000000000040000002000200000000002000000000000000000000100000000000000000000000000000000000000000000040000000000000000000000000000000000010",
      "type": "0x2",
      "transactionHash": "0xb471d4e23b560b2726bb539408cb2821791c939bcce65842fbf1dd08e7b8f1e4",
      "transactionIndex": "0xba",
      "blockHash": "0xfcbcf856220de58b45ce53442c31ffe8e5c91ed6fa5d07933373396e6ed1f9e6",
      "blockNumber": "0x78a363",
      "gasUsed": "0x720cd",
      "effectiveGasPrice": "0x1ddb14fe3",
      "from": "0x4b4b30e2e7c6463b03cdffd6c42329d357205334",
      "to": "0x2666beb71e0dd95223b98c945c9808c1b07c271e",
      "contractAddress": null
    },
    {
      "status": "0x1",
      "cumulativeGasUsed": "0xbe9d97",
      "logs": [
        {
          "address": "0xe6499c7384422f15aeef0297c2ca3d29fecc8f2f",
          "topics": [
            "0xddf252ad1be2c89b69c2b068fc378daa952ba7f163c4a11628f55a4df523b3ef",
            "0x0000000000000000000000004b4b30e2e7c6463b03cdffd6c42329d357205334",
            "0x0000000000000000000000002666beb71e0dd95223b98c945c9808c1b07c271e"
          ],
          "data": "0x00000000000000000000000000000000000000000000000006c3f766a20eb88c",
          "blockHash": "0xfcbcf856220de58b45ce53442c31ffe8e5c91ed6fa5d07933373396e6ed1f9e6",
          "blockNumber": "0x78a363",
          "blockTimestamp": "0x67d53704",
          "transactionHash": "0xd7955155fb7fd0f397947875f9200c4b62c3c7ab510c58d38e628c08d2136b63",
          "transactionIndex": "0xbb",
          "logIndex": "0xbb",
          "removed": false
        },
        {
          "address": "0x2666beb71e0dd95223b98c945c9808c1b07c271e",
          "topics": [
            "0xf812a30160cd1fb46386678219b1c28ddc923c9b3a18805e38c090fd7b41bb71",
            "0x0000000000000000000000004b4b30e2e7c6463b03cdffd6c42329d357205334",
            "0x0000000000000000000000000000000000000000000000000000000000000008"
          ],
          "data": "0x000000000000000000000000000000000000000000000000000000000000000100000000000000000000000000000000000000000000000000000000000000020000000000000000000000000000000000000000000000000de0b6b3a764000000000000000000000000000000000000000000000000000006c3f766a20eb88c",
          "blockHash": "0xfcbcf856220de58b45ce53442c31ffe8e5c91ed6fa5d07933373396e6ed1f9e6",
          "blockNumber": "0x78a363",
          "blockTimestamp": "0x67d53704",
          "transactionHash": "0xd7955155fb7fd0f397947875f9200c4b62c3c7ab510c58d38e628c08d2136b63",
          "transactionIndex": "0xbb",
          "logIndex": "0xbc",
          "removed": false
        }
      ],
      "logsBloom": "0x00000000000000000000000000000000000000040000000000000000000000000000000000000000000000000000002000000000000080000000000000000008000000000000000000000008000000000000000000000000000000000000000000000000000000040000001000800000000000000000000004008010000000000080000000000000000000000000000000004000000000000000000000000000040000000000000000000000000000000000000000000000000000000000000040000002000200000000002000000000000000000000100000000000000000000000000000000000000000000040000000000000000000000000000000000010",
      "type": "0x2",
      "transactionHash": "0xd7955155fb7fd0f397947875f9200c4b62c3c7ab510c58d38e628c08d2136b63",
      "transactionIndex": "0xbb",
      "blockHash": "0xfcbcf856220de58b45ce53442c31ffe8e5c91ed6fa5d07933373396e6ed1f9e6",
      "blockNumber": "0x78a363",
      "gasUsed": "0x6aeaa",
      "effectiveGasPrice": "0x1ddb14fe3",
      "from": "0x4b4b30e2e7c6463b03cdffd6c42329d357205334",
      "to": "0x2666beb71e0dd95223b98c945c9808c1b07c271e",
      "contractAddress": null
    }
  ],
  "libraries": [],
  "pending": [],
  "returns": {},
  "timestamp": 1742026501,
  "chain": 11155111,
  "commit": "e076ef1"
}