{
  "transactions": [
    {
      "hash": "0x80df98905988e25d090bb1880e3f5a25d566332010b127daf14af1d63d154b85",
      "transactionType": "CALL",
      "contractName": null,
      "contractAddress": "0x2666beb71e0dd95223b98c945c9808c1b07c271e",
      "function": "resolve(uint256,bool,bytes)",
      "arguments": [
        "4",
        "true",
        "0x"
      ],
      "transaction": {
        "from": "0x4b4b30e2e7c6463b03cdffd6c42329d357205334",
        "to": "0x2666beb71e0dd95223b98c945c9808c1b07c271e",
        "gas": "0x1bdf9",
        "value": "0x0",
        "input": "0x7dfaf4930000000000000000000000000000000000000000000000000000000000000004000000000000000000000000000000000000000000000000000000000000000100000000000000000000000000000000000000000000000000000000000000600000000000000000000000000000000000000000000000000000000000000000",
        "nonce": "0xd3",
        "chainId": "0xaa36a7"
      },
      "additionalContracts": [],
      "isFixedGasLimit": false
    }
  ],
  "receipts": [
    {
      "status": "0x1",
      "cumulativeGasUsed": "0x154a907",
      "logs": [
        {
          "address": "0xe6499c7384422f15aeef0297c2ca3d29fecc8f2f",
          "topics": [
            "0xddf252ad1be2c89b69c2b068fc378daa952ba7f163c4a11628f55a4df523b3ef",
            "0x0000000000000000000000000000000000000000000000000000000000000000",
            "0x0000000000000000000000002666beb71e0dd95223b98c945c9808c1b07c271e"
          ],
          "data": "0x000000000000000000000000000000000000000000000000071cbf4d0555476a",
          "blockHash": "0xc32daa348ff7fc5d070e981d977d85e55e1ba73d4de3ba09c657b8a70aac70f8",
          "blockNumber": "0x78a26d",
          "blockTimestamp": "0x67d52abc",
          "transactionHash": "0x80df98905988e25d090bb1880e3f5a25d566332010b127daf14af1d63d154b85",
          "transactionIndex": "0xe1",
          "logIndex": "0x13e",
          "removed": false
        },
        {
          "address": "0x2666beb71e0dd95223b98c945c9808c1b07c271e",
          "topics": [
            "0x6d4d544f5a6dcf38d77a232d3ef7358625c74877a1ad954fcb507872e7a05eaf",
            "0x0000000000000000000000000000000000000000000000000000000000000004"
          ],
          "data": "0x000000000000000000000000000000000000000000000000000000000000000100000000000000000000000000000000000000000000000014fd7600acb9474c",
          "blockHash": "0xc32daa348ff7fc5d070e981d977d85e55e1ba73d4de3ba09c657b8a70aac70f8",
          "blockNumber": "0x78a26d",
          "blockTimestamp": "0x67d52abc",
          "transactionHash": "0x80df98905988e25d090bb1880e3f5a25d566332010b127daf14af1d63d154b85",
          "transactionIndex": "0xe1",
          "logIndex": "0x13f",
          "removed": false
        }
      ],
      "logsBloom": "0x00000000001000000000000000000000000000000000000000000000000000000000000000000000000000000000002000000000000000000000000000000000000000000000000000000008000000000000000000000000000000000000000008000000020000000000001000800800000000000000000004000030000000000000000000000000000000000000000200004000000000000000000000000000040000000000000000000000000000000000000000000000002000000000000000000002000200000000002000000000000000008000000000000000000020000000000000000000000000000040000000000000000000000000000000000000",
      "type": "0x2",
      "transactionHash": "0x80df98905988e25d090bb1880e3f5a25d566332010b127daf14af1d63d154b85",
      "transactionIndex": "0xe1",
      "blockHash": "0xc32daa348ff7fc5d070e981d977d85e55e1ba73d4de3ba09c657b8a70aac70f8",
      "blockNumber": "0x78a26d",
      "gasUsed": "0x130f1",
      "effectiveGasPrice": "0x57d598a1",
      "from": "0x4b4b30e2e7c6463b03cdffd6c42329d357205334",
      "to": "0x2666beb71e0dd95223b98c945c9808c1b07c271e",
      "contractAddress": null
    }
  ],
  "libraries": [],
  "pending": [],
  "returns": {},
  "timestamp": 1742023357,
  "chain": 11155111,
  "commit": "e076ef1"
}