{
  "transactions": [
    {
      "hash": "0x0d8168ec8de84919f1ed90cf1b4e0aec31567de4fd1c72ab37e02fb81f3995ab",
      "transactionType": "CALL",
      "contractName": null,
      "contractAddress": "0x0e2119ccd170485543a77fd4fec06d0668a350a1",
      "function": "createMarket(string,uint256)",
      "arguments": [
        "Will ETH price exceed $5000 by the end of 2024?",
        "1744648512"
      ],
      "transaction": {
        "from": "0x4b4b30e2e7c6463b03cdffd6c42329d357205334",
        "to": "0x0e2119ccd170485543a77fd4fec06d0668a350a1",
        "gas": "0x5140e",
        "value": "0x0",
        "input": "0x883c84c100000000000000000000000000000000000000000000000000000000000000400000000000000000000000000000000000000000000000000000000067fd3940000000000000000000000000000000000000000000000000000000000000002f57696c6c20455448207072696365206578636565642024353030302062792074686520656e64206f6620323032343f0000000000000000000000000000000000",
        "nonce": "0x11e",
        "chainId": "0xaa36a7"
      },
      "additionalContracts": [],
      "isFixedGasLimit": false
    }
  ],
  "receipts": [
    {
      "status": "0x1",
      "cumulativeGasUsed": "0xcf55e1",
      "logs": [
        {
          "address": "0x0e2119ccd170485543a77fd4fec06d0668a350a1",
          "topics": [
            "0x57d0d124b72f81ed1da0dc728fc33db342705974792928796f6577b8db5c3d53",
            "0x0000000000000000000000000000000000000000000000000000000000000001"
          ],
          "data": "0x00000000000000000000000000000000000000000000000000000000000000600000000000000000000000000000000000000000000000000000000067fd39400000000000000000000000004b4b30e2e7c6463b03cdffd6c42329d357205334000000000000000000000000000000000000000000000000000000000000002f57696c6c20455448207072696365206578636565642024353030302062792074686520656e64206f6620323032343f0000000000000000000000000000000000",
          "blockHash": "0x9cd8695af9b5a1fd27e57279ff726ee3b62c107691bf661f4040148a70ead7f0",
          "blockNumber": "0x78ac96",
          "transactionHash": "0x0d8168ec8de84919f1ed90cf1b4e0aec31567de4fd1c72ab37e02fb81f3995ab",
          "transactionIndex": "0x8e",
          "logIndex": "0xdb",
          "removed": false
        }
      ],
      "logsBloom": "0x00000000000000000000000000000000000000000000000000000000000000000000000000000000000000000000000000000000000000000000000000040000000000000000000000000000000000000000000000040000000000000000000000000000000000000000000000000000000000000000000000000000000000000000000000000000800080000000000000000000000000000000000000000000000000000000000000000000000000000000000000000000000000000000000000000000000000000000000000000000000400000000000000040000000040000004000000000000000000000008000000000000000000000000000000000000",
      "type": "0x2",
      "transactionHash": "0x0d8168ec8de84919f1ed90cf1b4e0aec31567de4fd1c72ab37e02fb81f3995ab",
      "transactionIndex": "0x8e",
      "blockHash": "0x9cd8695af9b5a1fd27e57279ff726ee3b62c107691bf661f4040148a70ead7f0",
      "blockNumber": "0x78ac96",
      "gasUsed": "0x3ad38",
      "effectiveGasPrice": "0x160be4f75",
      "from": "0x4b4b30e2e7c6463b03cdffd6c42329d357205334",
      "to": "0x0e2119ccd170485543a77fd4fec06d0668a350a1",
      "contractAddress": null
    }
  ],
  "libraries": [],
  "pending": [],
  "returns": {},
  "timestamp": 1742056537,
  "chain": 11155111,
  "commit": "d5014dc"
}