{
  "transactions": [
    {
      "hash": "0x070601d533009e0a109ee284d934680d09e85d0ff90c560de3eb57c139727006",
      "transactionType": "CALL",
      "contractName": null,
      "contractAddress": "0x2666beb71e0dd95223b98c945c9808c1b07c271e",
      "function": "resolve(uint256,bool,bytes)",
      "arguments": [
        "7",
        "true",
        "0x"
      ],
      "transaction": {
        "from": "0x4b4b30e2e7c6463b03cdffd6c42329d357205334",
        "to": "0x2666beb71e0dd95223b98c945c9808c1b07c271e",
        "gas": "0x1bdf9",
        "value": "0x0",
        "input": "0x7dfaf4930000000000000000000000000000000000000000000000000000000000000007000000000000000000000000000000000000000000000000000000000000000100000000000000000000000000000000000000000000000000000000000000600000000000000000000000000000000000000000000000000000000000000000",
        "nonce": "0xeb",
        "chainId": "0xaa36a7"
      },
      "additionalContracts": [],
      "isFixedGasLimit": false
    }
  ],
  "receipts": [
    {
      "status": "0x1",
      "cumulativeGasUsed": "0x11b85b5",
      "logs": [
        {
          "address": "0xe6499c7384422f15aeef0297c2ca3d29fecc8f2f",
          "topics": [
            "0xddf252ad1be2c89b69c2b068fc378daa952ba7f163c4a11628f55a4df523b3ef",
            "0x0000000000000000000000000000000000000000000000000000000000000000",
            "0x0000000000000000000000002666beb71e0dd95223b98c945c9808c1b07c271e"
          ],
          "data": "0x0000000000000000000000000000000000000000000000000e397e9a0aaa8ed4",
          "blockHash": "0xf68f6d179b8306debcf090f87d65119cd62ceb71009ab7d17840767c1023b6fe",
          "blockNumber": "0x78a31b",
          "blockTimestamp": "0x67d5338c",
          "transactionHash": "0x070601d533009e0a109ee284d934680d09e85d0ff90c560de3eb57c139727006",
          "transactionIndex": "0x82",
          "logIndex": "0xff",
          "removed": false
        },
        {
          "address": "0x2666beb71e0dd95223b98c945c9808c1b07c271e",
          "topics": [
            "0x6d4d544f5a6dcf38d77a232d3ef7358625c74877a1ad954fcb507872e7a05eaf",
            "0x0000000000000000000000000000000000000000000000000000000000000007"
          ],
          "data": "0x00000000000000000000000000000000000000000000000000000000000000010000000000000000000000000000000000000000000000001c1a354db20e8eb6",
          "blockHash": "0xf68f6d179b8306debcf090f87d65119cd62ceb71009ab7d17840767c1023b6fe",
          "blockNumber": "0x78a31b",
          "blockTimestamp": "0x67d5338c",
          "transactionHash": "0x070601d533009e0a109ee284d934680d09e85d0ff90c560de3eb57c139727006",
          "transactionIndex": "0x82",
          "logIndex": "0x100",
          "removed": false
        }
      ],
      "logsBloom": "0x00000000001000000000000000000000000000000000000000000000000000000000000000000000000000000000002000001000000000000000000000000000000020000000000000000008000000000000000000000000000000000000000000000000020000000000001000800800000000000000000004000030000000000000000000000000000000000000000200004000000000000000000000000000040000000000000000000000000000000000000000000000000000000000000000000002000200000000002000000000000000000000000000000100000020000000000000000000000000000040000000000000000000000000000000000000",
      "type": "0x2",
      "transactionHash": "0x070601d533009e0a109ee284d934680d09e85d0ff90c560de3eb57c139727006",
      "transactionIndex": "0x82",
      "blockHash": "0xf68f6d179b8306debcf090f87d65119cd62ceb71009ab7d17840767c1023b6fe",
      "blockNumber": "0x78a31b",
      "gasUsed": "0x130f1",
      "effectiveGasPrice": "0x1a13bdb9d",
      "from": "0x4b4b30e2e7c6463b03cdffd6c42329d357205334",
      "to": "0x2666beb71e0dd95223b98c945c9808c1b07c271e",
      "contractAddress": null
    }
  ],
  "libraries": [],
  "pending": [],
  "returns": {},
  "timestamp": 1742025613,
  "chain": 11155111,
  "commit": "e076ef1"
}