{
  "transactions": [
    {
      "hash": "0x58331016dc2dd4a8c1c85e92f59cfc45f641d191679aab8fa0bc9cfad8fc8cb1",
      "transactionType": "CALL",
      "contractName": null,
      "contractAddress": "0x2666beb71e0dd95223b98c945c9808c1b07c271e",
      "function": "createMarket(string,uint256)",
      "arguments": [
        "Will ETH price exceed $5000 by the end of 2024?",
        "1744612164"
      ],
      "transaction": {
        "from": "0x4b4b30e2e7c6463b03cdffd6c42329d357205334",
        "to": "0x2666beb71e0dd95223b98c945c9808c1b07c271e",
        "gas": "0x5140e",
        "value": "0x0",
        "input": "0x883c84c100000000000000000000000000000000000000000000000000000000000000400000000000000000000000000000000000000000000000000000000067fcab44000000000000000000000000000000000000000000000000000000000000002f57696c6c20455448207072696365206578636565642024353030302062792074686520656e64206f6620323032343f0000000000000000000000000000000000",
        "nonce": "0xbd",
        "chainId": "0xaa36a7"
      },
      "additionalContracts": [],
      "isFixedGasLimit": false
    },
    {
      "hash": "0xd2938b33ef1b84e4d1cc91d7d099d67b1aa472f546bd1ed51380288226db99e1",
      "transactionType": "CALL",
      "contractName": null,
      "contractAddress": "0x2666beb71e0dd95223b98c945c9808c1b07c271e",
      "function": "buy(uint256,bool,uint256)",
      "arguments": [
        "1",
        "true",
        "1000000000000000000"
      ],
      "transaction": {
        "from": "0x4b4b30e2e7c6463b03cdffd6c42329d357205334",
        "to": "0x2666beb71e0dd95223b98c945c9808c1b07c271e",
        "gas": "0x9d880",
        "value": "0x0",
        "input": "0x438af924000000000000000000000000000000000000000000000000000000000000000100000000000000000000000000000000000000000000000000000000000000010000000000000000000000000000000000000000000000000de0b6b3a7640000",
        "nonce": "0xbe",
        "chainId": "0xaa36a7"
      },
      "additionalContracts": [],
      "isFixedGasLimit": false
    },
    {
      "hash": "0x221ce56a572b17a343ccbbf8c9b618adbf94d6c88641f6d35435158dcd506313",
      "transactionType": "CALL",
      "contractName": null,
      "contractAddress": "0x2666beb71e0dd95223b98c945c9808c1b07c271e",
      "function": "buy(uint256,bool,uint256)",
      "arguments": [
        "1",
        "false",
        "1000000000000000000"
      ],
      "transaction": {
        "from": "0x4b4b30e2e7c6463b03cdffd6c42329d357205334",
        "to": "0x2666beb71e0dd95223b98c945c9808c1b07c271e",
        "gas": "0x9c5d8",
        "value": "0x0",
        "input": "0x438af924000000000000000000000000000000000000000000000000000000000000000100000000000000000000000000000000000000000000000000000000000000000000000000000000000000000000000000000000000000000de0b6b3a7640000",
        "nonce": "0xbf",
        "chainId": "0xaa36a7"
      },
      "additionalContracts": [],
      "isFixedGasLimit": false
    }
  ],
  "receipts": [
    {
      "status": "0x1",
      "cumulativeGasUsed": "0x176da6a",
      "logs": [
        {
          "address": "0x2666beb71e0dd95223b98c945c9808c1b07c271e",
          "topics": [
            "0x57d0d124b72f81ed1da0dc728fc33db342705974792928796f6577b8db5c3d53",
            "0x0000000000000000000000000000000000000000000000000000000000000001"
          ],
          "data": "0x00000000000000000000000000000000000000000000000000000000000000600000000000000000000000000000000000000000000000000000000067fcab440000000000000000000000004b4b30e2e7c6463b03cdffd6c42329d357205334000000000000000000000000000000000000000000000000000000000000002f57696c6c20455448207072696365206578636565642024353030302062792074686520656e64206f6620323032343f0000000000000000000000000000000000",
          "blockHash": "0x66ca160c51e929ff0eb67b127946cc9ac071ab88cd031bb67dc60641abda8c50",
          "blockNumber": "0x78a16f",
          "blockTimestamp": "0x67d51e5c",
          "transactionHash": "0x58331016dc2dd4a8c1c85e92f59cfc45f641d191679aab8fa0bc9cfad8fc8cb1",
          "transactionIndex": "0xb8",
          "logIndex": "0x155",
          "removed": false
        }
      ],
      "logsBloom": "0x00000000000000000000000000000000000000000000000000000000000000000000000000000000000000000000000000000000000000000000000000040000000000000000000000000000000000000000000000040000000000000000000000000000000000000000000000000000000000000000000000000000000000000000000000000000800080000000000000000000000000000000000000000000040000000000000000000000000000000000000000000000000000000000000000000000000200000000002000000000000000000000000000000000000040000004000000000000000000000000000000000000000000000000000000000000",
      "type": "0x2",
      "transactionHash": "0x58331016dc2dd4a8c1c85e92f59cfc45f641d191679aab8fa0bc9cfad8fc8cb1",
      "transactionIndex": "0xb8",
      "blockHash": "0x66ca160c51e929ff0eb67b127946cc9ac071ab88cd031bb67dc60641abda8c50",
      "blockNumber": "0x78a16f",
      "gasUsed": "0x3ad38",
      "effectiveGasPrice": "0x107a4a8",
      "from": "0x4b4b30e2e7c6463b03cdffd6c42329d357205334",
      "to": "0x2666beb71e0dd95223b98c945c9808c1b07c271e",
      "contractAddress": null
    },
    {
      "status": "0x1",
      "cumulativeGasUsed": "0x17dfb37",
      "logs": [
        {
          "address": "0xe6499c7384422f15aeef0297c2ca3d29fecc8f2f",
          "topics": [
            "0xddf252ad1be2c89b69c2b068fc378daa952ba7f163c4a11628f55a4df523b3ef",
            "0x0000000000000000000000004b4b30e2e7c6463b03cdffd6c42329d357205334",
            "0x0000000000000000000000002666beb71e0dd95223b98c945c9808c1b07c271e"
          ],
          "data": "0x000000000000000000000000000000000000000000000000071cbf4d05554756",
          "blockHash": "0x66ca160c51e929ff0eb67b127946cc9ac071ab88cd031bb67dc60641abda8c50",
          "blockNumber": "0x78a16f",
          "blockTimestamp": "0x67d51e5c",
          "transactionHash": "0xd2938b33ef1b84e4d1cc91d7d099d67b1aa472f546bd1ed51380288226db99e1",
          "transactionIndex": "0xb9",
          "logIndex": "0x156",
          "removed": false
        },
        {
          "address": "0x2666beb71e0dd95223b98c945c9808c1b07c271e",
          "topics": [
            "0xf812a30160cd1fb46386678219b1c28ddc923c9b3a18805e38c090fd7b41bb71",
            "0x0000000000000000000000004b4b30e2e7c6463b03cdffd6c42329d357205334",
            "0x0000000000000000000000000000000000000000000000000000000000000001"
          ],
          "data": "0x000000000000000000000000000000000000000000000000000000000000000100000000000000000000000000000000000000000000000000000000000000010000000000000000000000000000000000000000000000000de0b6b3a7640000000000000000000000000000000000000000000000000000071cbf4d05554756",
          "blockHash": "0x66ca160c51e929ff0eb67b127946cc9ac071ab88cd031bb67dc60641abda8c50",
          "blockNumber": "0x78a16f",
          "blockTimestamp": "0x67d51e5c",
          "transactionHash": "0xd2938b33ef1b84e4d1cc91d7d099d67b1aa472f546bd1ed51380288226db99e1",
          "transactionIndex": "0xb9",
          "logIndex": "0x157",
          "removed": false
        }
      ],
      "logsBloom": "0x00000000000000000000000000000000000000040000000000000000000000000000000000000000000000000000002000000000000000000000000000040008000000000000000000000008000000000000000000040000000000000000000000000000000000040000001000800000000000000000000004008010000000000000000000000000000000000000000000004000000000000000000000000000040000000000000000000000000000000000000000000000000000000000000000000002000200000000002000000000000000000000100000000000000040000000000000000000000000000040000000000000000000000000000000000010",
      "type": "0x2",
      "transactionHash": "0xd2938b33ef1b84e4d1cc91d7d099d67b1aa472f546bd1ed51380288226db99e1",
      "transactionIndex": "0xb9",
      "blockHash": "0x66ca160c51e929ff0eb67b127946cc9ac071ab88cd031bb67dc60641abda8c50",
      "blockNumber": "0x78a16f",
      "gasUsed": "0x720cd",
      "effectiveGasPrice": "0x107a4a8",
      "from": "0x4b4b30e2e7c6463b03cdffd6c42329d357205334",
      "to": "0x2666beb71e0dd95223b98c945c9808c1b07c271e",
      "contractAddress": null
    },
    {
      "status": "0x1",
      "cumulativeGasUsed": "0x18f415c",
      "logs": [
        {
          "address": "0xe6499c7384422f15aeef0297c2ca3d29fecc8f2f",
          "topics": [
            "0xddf252ad1be2c89b69c2b068fc378daa952ba7f163c4a11628f55a4df523b3ef",
            "0x0000000000000000000000004b4b30e2e7c6463b03cdffd6c42329d357205334",
            "0x0000000000000000000000002666beb71e0dd95223b98c945c9808c1b07c271e"
          ],
          "data": "0x00000000000000000000000000000000000000000000000006c3f766a20eb88c",
          "blockHash": "0x66ca160c51e929ff0eb67b127946cc9ac071ab88cd031bb67dc60641abda8c50",
          "blockNumber": "0x78a16f",
          "blockTimestamp": "0x67d51e5c",
          "transactionHash": "0x221ce56a572b17a343ccbbf8c9b618adbf94d6c88641f6d35435158dcd506313",
          "transactionIndex": "0xbd",
          "logIndex": "0x160",
          "removed": false
        },
        {
          "address": "0x2666beb71e0dd95223b98c945c9808c1b07c271e",
          "topics": [
            "0xf812a30160cd1fb46386678219b1c28ddc923c9b3a18805e38c090fd7b41bb71",
            "0x0000000000000000000000004b4b30e2e7c6463b03cdffd6c42329d357205334",
            "0x0000000000000000000000000000000000000000000000000000000000000001"
          ],
          "data": "0x000000000000000000000000000000000000000000000000000000000000000100000000000000000000000000000000000000000000000000000000000000020000000000000000000000000000000000000000000000000de0b6b3a764000000000000000000000000000000000000000000000000000006c3f766a20eb88c",
          "blockHash": "0x66ca160c51e929ff0eb67b127946cc9ac071ab88cd031bb67dc60641abda8c50",
          "blockNumber": "0x78a16f",
          "blockTimestamp": "0x67d51e5c",
          "transactionHash": "0x221ce56a572b17a343ccbbf8c9b618adbf94d6c88641f6d35435158dcd506313",
          "transactionIndex": "0xbd",
          "logIndex": "0x161",
          "removed": false
        }
      ],
      "logsBloom": "0x00000000000000000000000000000000000000040000000000000000000000000000000000000000000000000000002000000000000000000000000000040008000000000000000000000008000000000000000000040000000000000000000000000000000000040000001000800000000000000000000004008010000000000000000000000000000000000000000000004000000000000000000000000000040000000000000000000000000000000000000000000000000000000000000000000002000200000000002000000000000000000000100000000000000040000000000000000000000000000040000000000000000000000000000000000010",
      "type": "0x2",
      "transactionHash": "0x221ce56a572b17a343ccbbf8c9b618adbf94d6c88641f6d35435158dcd506313",
      "transactionIndex": "0xbd",
      "blockHash": "0x66ca160c51e929ff0eb67b127946cc9ac071ab88cd031bb67dc60641abda8c50",
      "blockNumber": "0x78a16f",
      "gasUsed": "0x6aeaa",
      "effectiveGasPrice": "0x107a4a8",
      "from": "0x4b4b30e2e7c6463b03cdffd6c42329d357205334",
      "to": "0x2666beb71e0dd95223b98c945c9808c1b07c271e",
      "contractAddress": null
    }
  ],
  "libraries": [],
  "pending": [],
  "returns": {},
  "timestamp": 1742020191,
  "chain": 11155111,
  "commit": "e076ef1"
}