{
  "transactions": [
    {
      "hash": "0x87c10192373b0d4cc287b15549709d97c91f79339d10905875360bc0d95c1879",
      "transactionType": "CALL",
      "contractName": null,
      "contractAddress": "0x0e2119ccd170485543a77fd4fec06d0668a350a1",
      "function": "createMarket(string,uint256)",
      "arguments": [
        "Will ETH price exceed $5000 by the end of 2024?",
        "1744647240"
      ],
      "transaction": {
        "from": "0x4b4b30e2e7c6463b03cdffd6c42329d357205334",
        "to": "0x0e2119ccd170485543a77fd4fec06d0668a350a1",
        "gas": "0x504f2",
        "value": "0x0",
        "input": "0x883c84c100000000000000000000000000000000000000000000000000000000000000400000000000000000000000000000000000000000000000000000000067fd3448000000000000000000000000000000000000000000000000000000000000002f57696c6c20455448207072696365206578636565642024353030302062792074686520656e64206f6620323032343f0000000000000000000000000000000000",
        "nonce": "0x119",
        "chainId": "0xaa36a7"
      },
      "additionalContracts": [],
      "isFixedGasLimit": false
    }
  ],
  "receipts": [
    {
      "status": "0x1",
      "cumulativeGasUsed": "0x7650d0",
      "logs": [
        {
          "address": "0x0e2119ccd170485543a77fd4fec06d0668a350a1",
          "topics": [
            "0x57d0d124b72f81ed1da0dc728fc33db342705974792928796f6577b8db5c3d53",
            "0x0000000000000000000000000000000000000000000000000000000000000000"
          ],
          "data": "0x00000000000000000000000000000000000000000000000000000000000000600000000000000000000000000000000000000000000000000000000067fd34480000000000000000000000004b4b30e2e7c6463b03cdffd6c42329d357205334000000000000000000000000000000000000000000000000000000000000002f57696c6c20455448207072696365206578636565642024353030302062792074686520656e64206f6620323032343f0000000000000000000000000000000000",
          "blockHash": "0xe2461e7c86eda75701db3a45df7f1cc0c08619c0cb8b6477812d9cfad5af42ca",
          "blockNumber": "0x78ac30",
          "transactionHash": "0x87c10192373b0d4cc287b15549709d97c91f79339d10905875360bc0d95c1879",
          "transactionIndex": "0x2f",
          "logIndex": "0x86",
          "removed": false
        }
      ],
      "logsBloom": "0x00000000000000000000000000000000000000000000000000000000000000000000000000000000000000000000000000000000000000000000000000000000000000000000000000000000000000000000000000000000000000000000000000000000020000000000000000000800000000000000000000000000000000000000000000000000800080000000000000000000000000000000000000000000000000000000000000000000000000000000000000000000000000000000000000000000000000000000000000000000000400000000000000040000000020000004000000000000000000000008000000000000000000000000000000000000",
      "type": "0x2",
      "transactionHash": "0x87c10192373b0d4cc287b15549709d97c91f79339d10905875360bc0d95c1879",
      "transactionIndex": "0x2f",
      "blockHash": "0xe2461e7c86eda75701db3a45df7f1cc0c08619c0cb8b6477812d9cfad5af42ca",
      "blockNumber": "0x78ac30",
      "gasUsed": "0x3a248",
      "effectiveGasPrice": "0x1b2550730",
      "from": "0x4b4b30e2e7c6463b03cdffd6c42329d357205334",
      "to": "0x0e2119ccd170485543a77fd4fec06d0668a350a1",
      "contractAddress": null
    }
  ],
  "libraries": [],
  "pending": [],
  "returns": {},
  "timestamp": 1742055265,
  "chain": 11155111,
  "commit": "d5014dc"
}