{
  "transactions": [
    {
      "hash": "0xbdec4c2ffdaa0bc89ce5661ba5759302ad21b6899ef0bb13aed17515af09a96a",
      "transactionType": "CALL",
      "contractName": null,
      "contractAddress": "0x2666beb71e0dd95223b98c945c9808c1b07c271e",
      "function": "createMarket(string,uint256)",
      "arguments": [
        "Will ETH price exceed $5000 by the end of 2024?",
        "1744616064"
      ],
      "transaction": {
        "from": "0x4b4b30e2e7c6463b03cdffd6c42329d357205334",
        "to": "0x2666beb71e0dd95223b98c945c9808c1b07c271e",
        "gas": "0x5140e",
        "value": "0x0",
        "input": "0x883c84c100000000000000000000000000000000000000000000000000000000000000400000000000000000000000000000000000000000000000000000000067fcba80000000000000000000000000000000000000000000000000000000000000002f57696c6c20455448207072696365206578636565642024353030302062792074686520656e64206f6620323032343f0000000000000000000000000000000000",
        "nonce": "0xd8",
        "chainId": "0xaa36a7"
      },
      "additionalContracts": [],
      "isFixedGasLimit": false
    },
    {
      "hash": "0xdc3d93a0e8584a972ffb3c63703748709910f13a1f631212958c409e50b86c4c",
      "transactionType": "CALL",
      "contractName": null,
      "contractAddress": "0x2666beb71e0dd95223b98c945c9808c1b07c271e",
      "function": "buy(uint256,bool,uint256)",
      "arguments": [
        "5",
        "true",
        "1000000000000000000"
      ],
      "transaction": {
        "from": "0x4b4b30e2e7c6463b03cdffd6c42329d357205334",
        "to": "0x2666beb71e0dd95223b98c945c9808c1b07c271e",
        "gas": "0x9d880",
        "value": "0x0",
        "input": "0x438af924000000000000000000000000000000000000000000000000000000000000000500000000000000000000000000000000000000000000000000000000000000010000000000000000000000000000000000000000000000000de0b6b3a7640000",
        "nonce": "0xd9",
        "chainId": "0xaa36a7"
      },
      "additionalContracts": [],
      "isFixedGasLimit": false
    },
    {
      "hash": "0x62c171b9a124fe4a23a1e588aceee63b34cbb54164f9f44f1e8d868be30844ee",
      "transactionType": "CALL",
      "contractName": null,
      "contractAddress": "0x2666beb71e0dd95223b98c945c9808c1b07c271e",
      "function": "buy(uint256,bool,uint256)",
      "arguments": [
        "5",
        "false",
        "1000000000000000000"
      ],
      "transaction": {
        "from": "0x4b4b30e2e7c6463b03cdffd6c42329d357205334",
        "to": "0x2666beb71e0dd95223b98c945c9808c1b07c271e",
        "gas": "0x9c5d8",
        "value": "0x0",
        "input": "0x438af924000000000000000000000000000000000000000000000000000000000000000500000000000000000000000000000000000000000000000000000000000000000000000000000000000000000000000000000000000000000de0b6b3a7640000",
        "nonce": "0xda",
        "chainId": "0xaa36a7"
      },
      "additionalContracts": [],
      "isFixedGasLimit": false
    }
  ],
  "receipts": [
    {
      "status": "0x1",
      "cumulativeGasUsed": "0x8fd947",
      "logs": [
        {
          "address": "0x2666beb71e0dd95223b98c945c9808c1b07c271e",
          "topics": [
            "0x57d0d124b72f81ed1da0dc728fc33db342705974792928796f6577b8db5c3d53",
            "0x0000000000000000000000000000000000000000000000000000000000000005"
          ],
          "data": "0x00000000000000000000000000000000000000000000000000000000000000600000000000000000000000000000000000000000000000000000000067fcba800000000000000000000000004b4b30e2e7c6463b03cdffd6c42329d357205334000000000000000000000000000000000000000000000000000000000000002f57696c6c20455448207072696365206578636565642024353030302062792074686520656e64206f6620323032343f0000000000000000000000000000000000",
          "blockHash": "0xf3d0a932ed4528deb64116ba7dea31522ecc44600147dfcda74b70007fc34248",
          "blockNumber": "0x78a2a4",
          "blockTimestamp": "0x67d52d98",
          "transactionHash": "0xbdec4c2ffdaa0bc89ce5661ba5759302ad21b6899ef0bb13aed17515af09a96a",
          "transactionIndex": "0x62",
          "logIndex": "0x90",
          "removed": false
        }
      ],
      "logsBloom": "0x00000000000000000000000000000000000000000000000000000000000000000000000000000000000000000000000000000000000000000000000000000000000010000000000000000000000000000000000000000000000000000000000000000000000000000000000000000000000000000000000000000000000000000000000000000000800080000000001000000800000000000000000000000000040000000000000000000000000000000000000000000000000000000000000000000000000200000000002000000000000000000000000000000000000000000004000000000000000000000000000000000000000000000000000000000000",
      "type": "0x2",
      "transactionHash": "0xbdec4c2ffdaa0bc89ce5661ba5759302ad21b6899ef0bb13aed17515af09a96a",
      "transactionIndex": "0x62",
      "blockHash": "0xf3d0a932ed4528deb64116ba7dea31522ecc44600147dfcda74b70007fc34248",
      "blockNumber": "0x78a2a4",
      "gasUsed": "0x3ad38",
      "effectiveGasPrice": "0x12bc60a6d",
      "from": "0x4b4b30e2e7c6463b03cdffd6c42329d357205334",
      "to": "0x2666beb71e0dd95223b98c945c9808c1b07c271e",
      "contractAddress": null
    },
    {
      "status": "0x1",
      "cumulativeGasUsed": "0x96fa14",
      "logs": [
        {
          "address": "0xe6499c7384422f15aeef0297c2ca3d29fecc8f2f",
          "topics": [
            "0xddf252ad1be2c89b69c2b068fc378daa952ba7f163c4a11628f55a4df523b3ef",
            "0x0000000000000000000000004b4b30e2e7c6463b03cdffd6c42329d357205334",
            "0x0000000000000000000000002666beb71e0dd95223b98c945c9808c1b07c271e"
          ],
          "data": "0x000000000000000000000000000000000000000000000000071cbf4d05554756",
          "blockHash": "0xf3d0a932ed4528deb64116ba7dea31522ecc44600147dfcda74b70007fc34248",
          "blockNumber": "0x78a2a4",
          "blockTimestamp": "0x67d52d98",
          "transactionHash": "0xdc3d93a0e8584a972ffb3c63703748709910f13a1f631212958c409e50b86c4c",
          "transactionIndex": "0x63",
          "logIndex": "0x91",
          "removed": false
        },
        {
          "address": "0x2666beb71e0dd95223b98c945c9808c1b07c271e",
          "topics": [
            "0xf812a30160cd1fb46386678219b1c28ddc923c9b3a18805e38c090fd7b41bb71",
            "0x0000000000000000000000004b4b30e2e7c6463b03cdffd6c42329d357205334",
            "0x0000000000000000000000000000000000000000000000000000000000000005"
          ],
          "data": "0x000000000000000000000000000000000000000000000000000000000000000100000000000000000000000000000000000000000000000000000000000000010000000000000000000000000000000000000000000000000de0b6b3a7640000000000000000000000000000000000000000000000000000071cbf4d05554756",
          "blockHash": "0xf3d0a932ed4528deb64116ba7dea31522ecc44600147dfcda74b70007fc34248",
          "blockNumber": "0x78a2a4",
          "blockTimestamp": "0x67d52d98",
          "transactionHash": "0xdc3d93a0e8584a972ffb3c63703748709910f13a1f631212958c409e50b86c4c",
          "transactionIndex": "0x63",
          "logIndex": "0x92",
          "removed": false
        }
      ],
      "logsBloom": "0x00000000000000000000000000000000000000040000000000000000000000000000000000000000000000000000002000000000000000000000000000000008000010000000000000000008000000000000000000000000000000000000000000000000000000040000001000800000000000000000000004008010000000000000000000000000000000000000001000004800000000000000000000000000040000000000000000000000000000000000000000000000000000000000000000000002000200000000002000000000000000000000100000000000000000000000000000000000000000000040000000000000000000000000000000000010",
      "type": "0x2",
      "transactionHash": "0xdc3d93a0e8584a972ffb3c63703748709910f13a1f631212958c409e50b86c4c",
      "transactionIndex": "0x63",
      "blockHash": "0xf3d0a932ed4528deb64116ba7dea31522ecc44600147dfcda74b70007fc34248",
      "blockNumber": "0x78a2a4",
      "gasUsed": "0x720cd",
      "effectiveGasPrice": "0x12bc60a6d",
      "from": "0x4b4b30e2e7c6463b03cdffd6c42329d357205334",
      "to": "0x2666beb71e0dd95223b98c945c9808c1b07c271e",
      "contractAddress": null
    },
    {
      "status": "0x1",
      "cumulativeGasUsed": "0x9da8be",
      "logs": [
        {
          "address": "0xe6499c7384422f15aeef0297c2ca3d29fecc8f2f",
          "topics": [
            "0xddf252ad1be2c89b69c2b068fc378daa952ba7f163c4a11628f55a4df523b3ef",
            "0x0000000000000000000000004b4b30e2e7c6463b03cdffd6c42329d357205334",
            "0x0000000000000000000000002666beb71e0dd95223b98c945c9808c1b07c271e"
          ],
          "data": "0x00000000000000000000000000000000000000000000000006c3f766a20eb88c",
          "blockHash": "0xf3d0a932ed4528deb64116ba7dea31522ecc44600147dfcda74b70007fc34248",
          "blockNumber": "0x78a2a4",
          "blockTimestamp": "0x67d52d98",
          "transactionHash": "0x62c171b9a124fe4a23a1e588aceee63b34cbb54164f9f44f1e8d868be30844ee",
          "transactionIndex": "0x64",
          "logIndex": "0x93",
          "removed": false
        },
        {
          "address": "0x2666beb71e0dd95223b98c945c9808c1b07c271e",
          "topics": [
            "0xf812a30160cd1fb46386678219b1c28ddc923c9b3a18805e38c090fd7b41bb71",
            "0x0000000000000000000000004b4b30e2e7c6463b03cdffd6c42329d357205334",
            "0x0000000000000000000000000000000000000000000000000000000000000005"
          ],
          "data": "0x000000000000000000000000000000000000000000000000000000000000000100000000000000000000000000000000000000000000000000000000000000020000000000000000000000000000000000000000000000000de0b6b3a764000000000000000000000000000000000000000000000000000006c3f766a20eb88c",
          "blockHash": "0xf3d0a932ed4528deb64116ba7dea31522ecc44600147dfcda74b70007fc34248",
          "blockNumber": "0x78a2a4",
          "blockTimestamp": "0x67d52d98",
          "transactionHash": "0x62c171b9a124fe4a23a1e588aceee63b34cbb54164f9f44f1e8d868be30844ee",
          "transactionIndex": "0x64",
          "logIndex": "0x94",
          "removed": false
        }
      ],
      "logsBloom": "0x00000000000000000000000000000000000000040000000000000000000000000000000000000000000000000000002000000000000000000000000000000008000010000000000000000008000000000000000000000000000000000000000000000000000000040000001000800000000000000000000004008010000000000000000000000000000000000000001000004800000000000000000000000000040000000000000000000000000000000000000000000000000000000000000000000002000200000000002000000000000000000000100000000000000000000000000000000000000000000040000000000000000000000000000000000010",
      "type": "0x2",
      "transactionHash": "0x62c171b9a124fe4a23a1e588aceee63b34cbb54164f9f44f1e8d868be30844ee",
      "transactionIndex": "0x64",
      "blockHash": "0xf3d0a932ed4528deb64116ba7dea31522ecc44600147dfcda74b70007fc34248",
      "blockNumber": "0x78a2a4",
      "gasUsed": "0x6aeaa",
      "effectiveGasPrice": "0x12bc60a6d",
      "from": "0x4b4b30e2e7c6463b03cdffd6c42329d357205334",
      "to": "0x2666beb71e0dd95223b98c945c9808c1b07c271e",
      "contractAddress": null
    }
  ],
  "libraries": [],
  "pending": [],
  "returns": {},
  "timestamp": 1742024089,
  "chain": 11155111,
  "commit": "e076ef1"
}