{
  "transactions": [
    {
      "hash": "0x26e5193273fa78b5817ba61a903154d5c14546b3ea1ef49a1654d5b7210537a5",
      "transactionType": "CALL",
      "contractName": null,
      "contractAddress": "0x2666beb71e0dd95223b98c945c9808c1b07c271e",
      "function": "createMarket(string,uint256)",
      "arguments": [
        "Will ETH price exceed $5000 by the end of 2024?",
        "1744616736"
      ],
      "transaction": {
        "from": "0x4b4b30e2e7c6463b03cdffd6c42329d357205334",
        "to": "0x2666beb71e0dd95223b98c945c9808c1b07c271e",
        "gas": "0x5140e",
        "value": "0x0",
        "input": "0x883c84c100000000000000000000000000000000000000000000000000000000000000400000000000000000000000000000000000000000000000000000000067fcbd20000000000000000000000000000000000000000000000000000000000000002f57696c6c20455448207072696365206578636565642024353030302062792074686520656e64206f6620323032343f0000000000000000000000000000000000",
        "nonce": "0xe3",
        "chainId": "0xaa36a7"
      },
      "additionalContracts": [],
      "isFixedGasLimit": false
    },
    {
      "hash": "0xde148bea492870f84888806875b9cefe0b909882d67b368de10ebef26e4c41a7",
      "transactionType": "CALL",
      "contractName": null,
      "contractAddress": "0x2666beb71e0dd95223b98c945c9808c1b07c271e",
      "function": "buy(uint256,bool,uint256)",
      "arguments": [
        "7",
        "true",
        "1000000000000000000"
      ],
      "transaction": {
        "from": "0x4b4b30e2e7c6463b03cdffd6c42329d357205334",
        "to": "0x2666beb71e0dd95223b98c945c9808c1b07c271e",
        "gas": "0x9d880",
        "value": "0x0",
        "input": "0x438af924000000000000000000000000000000000000000000000000000000000000000700000000000000000000000000000000000000000000000000000000000000010000000000000000000000000000000000000000000000000de0b6b3a7640000",
        "nonce": "0xe4",
        "chainId": "0xaa36a7"
      },
      "additionalContracts": [],
      "isFixedGasLimit": false
    },
    {
      "hash": "0xcdae9048a6efb4397bcb839dfd3bc72d8500d168981d3267a76f73ae21392c20",
      "transactionType": "CALL",
      "contractName": null,
      "contractAddress": "0x2666beb71e0dd95223b98c945c9808c1b07c271e",
      "function": "buy(uint256,bool,uint256)",
      "arguments": [
        "7",
        "false",
        "1000000000000000000"
      ],
      "transaction": {
        "from": "0x4b4b30e2e7c6463b03cdffd6c42329d357205334",
        "to": "0x2666beb71e0dd95223b98c945c9808c1b07c271e",
        "gas": "0x9c5d8",
        "value": "0x0",
        "input": "0x438af924000000000000000000000000000000000000000000000000000000000000000700000000000000000000000000000000000000000000000000000000000000000000000000000000000000000000000000000000000000000de0b6b3a7640000",
        "nonce": "0xe5",
        "chainId": "0xaa36a7"
      },
      "additionalContracts": [],
      "isFixedGasLimit": false
    }
  ],
  "receipts": [
    {
      "status": "0x1",
      "cumulativeGasUsed": "0xf52cf6",
      "logs": [
        {
          "address": "0x2666beb71e0dd95223b98c945c9808c1b07c271e",
          "topics": [
            "0x57d0d124b72f81ed1da0dc728fc33db342705974792928796f6577b8db5c3d53",
            "0x0000000000000000000000000000000000000000000000000000000000000007"
          ],
          "data": "0x00000000000000000000000000000000000000000000000000000000000000600000000000000000000000000000000000000000000000000000000067fcbd200000000000000000000000004b4b30e2e7c6463b03cdffd6c42329d357205334000000000000000000000000000000000000000000000000000000000000002f57696c6c20455448207072696365206578636565642024353030302062792074686520656e64206f6620323032343f0000000000000000000000000000000000",
          "blockHash": "0x085edadeb8ff13a7cc130ccc109b889d75296620933425f974700cb688bfca56",
          "blockNumber": "0x78a2da",
          "blockTimestamp": "0x67d53038",
          "transactionHash": "0x26e5193273fa78b5817ba61a903154d5c14546b3ea1ef49a1654d5b7210537a5",
          "transactionIndex": "0x83",
          "logIndex": "0x113",
          "removed": false
        }
      ],
      "logsBloom": "0x00000000000000000000000000000000000000000000000000000000000000000000000000000000000000000000000000001000000000000000000000000000000020000000000000000000000000000000000000000000000000000000000000000000000000000000000000000000000000000000000000000000000000000000000000000000800080000000000000000000000000000000000000000000040000000000000000000000000000000000000000000000000000000000000000000000000200000000002000000000000000000000000000000100000000000004000000000000000000000000000000000000000000000000000000000000",
      "type": "0x2",
      "transactionHash": "0x26e5193273fa78b5817ba61a903154d5c14546b3ea1ef49a1654d5b7210537a5",
      "transactionIndex": "0x83",
      "blockHash": "0x085edadeb8ff13a7cc130ccc109b889d75296620933425f974700cb688bfca56",
      "blockNumber": "0x78a2da",
      "gasUsed": "0x3ad38",
      "effectiveGasPrice": "0xfa8437b3",
      "from": "0x4b4b30e2e7c6463b03cdffd6c42329d357205334",
      "to": "0x2666beb71e0dd95223b98c945c9808c1b07c271e",
      "contractAddress": null
    },
    {
      "status": "0x1",
      "cumulativeGasUsed": "0xfc4dc3",
      "logs": [
        {
          "address": "0xe6499c7384422f15aeef0297c2ca3d29fecc8f2f",
          "topics": [
            "0xddf252ad1be2c89b69c2b068fc378daa952ba7f163c4a11628f55a4df523b3ef",
            "0x0000000000000000000000004b4b30e2e7c6463b03cdffd6c42329d357205334",
            "0x0000000000000000000000002666beb71e0dd95223b98c945c9808c1b07c271e"
          ],
          "data": "0x000000000000000000000000000000000000000000000000071cbf4d05554756",
          "blockHash": "0x085edadeb8ff13a7cc130ccc109b889d75296620933425f974700cb688bfca56",
          "blockNumber": "0x78a2da",
          "blockTimestamp": "0x67d53038",
          "transactionHash": "0xde148bea492870f84888806875b9cefe0b909882d67b368de10ebef26e4c41a7",
          "transactionIndex": "0x84",
          "logIndex": "0x114",
          "removed": false
        },
        {
          "address": "0x2666beb71e0dd95223b98c945c9808c1b07c271e",
          "topics": [
            "0xf812a30160cd1fb46386678219b1c28ddc923c9b3a18805e38c090fd7b41bb71",
            "0x0000000000000000000000004b4b30e2e7c6463b03cdffd6c42329d357205334",
            "0x0000000000000000000000000000000000000000000000000000000000000007"
          ],
          "data": "0x000000000000000000000000000000000000000000000000000000000000000100000000000000000000000000000000000000000000000000000000000000010000000000000000000000000000000000000000000000000de0b6b3a7640000000000000000000000000000000000000000000000000000071cbf4d05554756",
          "blockHash": "0x085edadeb8ff13a7cc130ccc109b889d75296620933425f974700cb688bfca56",
          "blockNumber": "0x78a2da",
          "blockTimestamp": "0x67d53038",
          "transactionHash": "0xde148bea492870f84888806875b9cefe0b909882d67b368de10ebef26e4c41a7",
          "transactionIndex": "0x84",
          "logIndex": "0x115",
          "removed": false
        }
      ],
      "logsBloom": "0x00000000000000000000000000000000000000040000000000000000000000000000000000000000000000000000002000001000000000000000000000000008000020000000000000000008000000000000000000000000000000000000000000000000000000040000001000800000000000000000000004008010000000000000000000000000000000000000000000004000000000000000000000000000040000000000000000000000000000000000000000000000000000000000000000000002000200000000002000000000000000000000100000000100000000000000000000000000000000000040000000000000000000000000000000000010",
      "type": "0x2",
      "transactionHash": "0xde148bea492870f84888806875b9cefe0b909882d67b368de10ebef26e4c41a7",
      "transactionIndex": "0x84",
      "blockHash": "0x085edadeb8ff13a7cc130ccc109b889d75296620933425f974700cb688bfca56",
      "blockNumber": "0x78a2da",
      "gasUsed": "0x720cd",
      "effectiveGasPrice": "0xfa8437b3",
      "from": "0x4b4b30e2e7c6463b03cdffd6c42329d357205334",
      "to": "0x2666beb71e0dd95223b98c945c9808c1b07c271e",
      "contractAddress": null
    },
    {
      "status": "0x1",
      "cumulativeGasUsed": "0x102fc6d",
      "logs": [
        {
          "address": "0xe6499c7384422f15aeef0297c2ca3d29fecc8f2f",
          "topics": [
            "0xddf252ad1be2c89b69c2b068fc378daa952ba7f163c4a11628f55a4df523b3ef",
            "0x0000000000000000000000004b4b30e2e7c6463b03cdffd6c42329d357205334",
            "0x0000000000000000000000002666beb71e0dd95223b98c945c9808c1b07c271e"
          ],
          "data": "0x00000000000000000000000000000000000000000000000006c3f766a20eb88c",
          "blockHash": "0x085edadeb8ff13a7cc130ccc109b889d75296620933425f974700cb688bfca56",
          "blockNumber": "0x78a2da",
          "blockTimestamp": "0x67d53038",
          "transactionHash": "0xcdae9048a6efb4397bcb839dfd3bc72d8500d168981d3267a76f73ae21392c20",
          "transactionIndex": "0x85",
          "logIndex": "0x116",
          "removed": false
        },
        {
          "address": "0x2666beb71e0dd95223b98c945c9808c1b07c271e",
          "topics": [
            "0xf812a30160cd1fb46386678219b1c28ddc923c9b3a18805e38c090fd7b41bb71",
            "0x0000000000000000000000004b4b30e2e7c6463b03cdffd6c42329d357205334",
            "0x0000000000000000000000000000000000000000000000000000000000000007"
          ],
          "data": "0x000000000000000000000000000000000000000000000000000000000000000100000000000000000000000000000000000000000000000000000000000000020000000000000000000000000000000000000000000000000de0b6b3a764000000000000000000000000000000000000000000000000000006c3f766a20eb88c",
          "blockHash": "0x085edadeb8ff13a7cc130ccc109b889d75296620933425f974700cb688bfca56",
          "blockNumber": "0x78a2da",
          "blockTimestamp": "0x67d53038",
          "transactionHash": "0xcdae9048a6efb4397bcb839dfd3bc72d8500d168981d3267a76f73ae21392c20",
          "transactionIndex": "0x85",
          "logIndex": "0x117",
          "removed": false
        }
      ],
      "logsBloom": "0x00000000000000000000000000000000000000040000000000000000000000000000000000000000000000000000002000001000000000000000000000000008000020000000000000000008000000000000000000000000000000000000000000000000000000040000001000800000000000000000000004008010000000000000000000000000000000000000000000004000000000000000000000000000040000000000000000000000000000000000000000000000000000000000000000000002000200000000002000000000000000000000100000000100000000000000000000000000000000000040000000000000000000000000000000000010",
      "type": "0x2",
      "transactionHash": "0xcdae9048a6efb4397bcb839dfd3bc72d8500d168981d3267a76f73ae21392c20",
      "transactionIndex": "0x85",
      "blockHash": "0x085edadeb8ff13a7cc130ccc109b889d75296620933425f974700cb688bfca56",
      "blockNumber": "0x78a2da",
      "gasUsed": "0x6aeaa",
      "effectiveGasPrice": "0xfa8437b3",
      "from": "0x4b4b30e2e7c6463b03cdffd6c42329d357205334",
      "to": "0x2666beb71e0dd95223b98c945c9808c1b07c271e",
      "contractAddress": null
    }
  ],
  "libraries": [],
  "pending": [],
  "returns": {},
  "timestamp": 1742024762,
  "chain": 11155111,
  "commit": "e076ef1"
}