{
  "transactions": [
    {
      "hash": "0x7e3433401d52b111db41cb31cb1cf3f1eaf95c57c7758c10d61e4e51745795cc",
      "transactionType": "CALL",
      "contractName": null,
      "contractAddress": "0x2666beb71e0dd95223b98c945c9808c1b07c271e",
      "function": "resolve(uint256,bool,bytes)",
      "arguments": [
        "2",
        "true",
        "0x"
      ],
      "transaction": {
        "from": "0x4b4b30e2e7c6463b03cdffd6c42329d357205334",
        "to": "0x2666beb71e0dd95223b98c945c9808c1b07c271e",
        "gas": "0x19dfb",
        "value": "0x0",
        "input": "0x7dfaf4930000000000000000000000000000000000000000000000000000000000000002000000000000000000000000000000000000000000000000000000000000000100000000000000000000000000000000000000000000000000000000000000600000000000000000000000000000000000000000000000000000000000000000",
        "nonce": "0xc6",
        "chainId": "0xaa36a7"
      },
      "additionalContracts": [],
      "isFixedGasLimit": false
    }
  ],
  "receipts": [
    {
      "status": "0x1",
      "cumulativeGasUsed": "0x923fe9",
      "logs": [
        {
          "address": "0xe6499c7384422f15aeef0297c2ca3d29fecc8f2f",
          "topics": [
            "0xddf252ad1be2c89b69c2b068fc378daa952ba7f163c4a11628f55a4df523b3ef",
            "0x0000000000000000000000000000000000000000000000000000000000000000",
            "0x0000000000000000000000002666beb71e0dd95223b98c945c9808c1b07c271e"
          ],
          "data": "0x0000000000000000000000000000000000000000000000000000000000000000",
          "blockHash": "0xe53bc9ba7e457123636b5d11bec516bf5c51a77c0f833c5271cbc79bf1e69cbc",
          "blockNumber": "0x78a1ee",
          "blockTimestamp": "0x67d5248c",
          "transactionHash": "0x7e3433401d52b111db41cb31cb1cf3f1eaf95c57c7758c10d61e4e51745795cc",
          "transactionIndex": "0x5c",
          "logIndex": "0xab",
          "removed": false
        },
        {
          "address": "0x2666beb71e0dd95223b98c945c9808c1b07c271e",
          "topics": [
            "0x6d4d544f5a6dcf38d77a232d3ef7358625c74877a1ad954fcb507872e7a05eaf",
            "0x0000000000000000000000000000000000000000000000000000000000000002"
          ],
          "data": "0x00000000000000000000000000000000000000000000000000000000000000010000000000000000000000000000000000000000000000000de0b6b3a763ffe2",
          "blockHash": "0xe53bc9ba7e457123636b5d11bec516bf5c51a77c0f833c5271cbc79bf1e69cbc",
          "blockNumber": "0x78a1ee",
          "blockTimestamp": "0x67d5248c",
          "transactionHash": "0x7e3433401d52b111db41cb31cb1cf3f1eaf95c57c7758c10d61e4e51745795cc",
          "transactionIndex": "0x5c",
          "logIndex": "0xac",
          "removed": false
        }
      ],
      "logsBloom": "0x04000000001000000000000000000000000000000000000000000000000000000000000000000000000000000000002000000000000000000000000000000000000000000000000000000008000000000000000000000000000000000000000000000000020000000000001000800800000000000000000004000030000000000000000000000000000000000000000200004000000000000000000000000000040000000000000000000100000000000000000000000000000000000000000000000002000200000000002000000000000000000000000000000000000020000000000000000000000000000040000000000000008000000000000000000000",
      "type": "0x2",
      "transactionHash": "0x7e3433401d52b111db41cb31cb1cf3f1eaf95c57c7758c10d61e4e51745795cc",
      "transactionIndex": "0x5c",
      "blockHash": "0xe53bc9ba7e457123636b5d11bec516bf5c51a77c0f833c5271cbc79bf1e69cbc",
      "blockNumber": "0x78a1ee",
      "gasUsed": "0x11b11",
      "effectiveGasPrice": "0x9df96b5",
      "from": "0x4b4b30e2e7c6463b03cdffd6c42329d357205334",
      "to": "0x2666beb71e0dd95223b98c945c9808c1b07c271e",
      "contractAddress": null
    }
  ],
  "libraries": [],
  "pending": [],
  "returns": {},
  "timestamp": 1742021773,
  "chain": 11155111,
  "commit": "e076ef1"
}