{
  "transactions": [
    {
      "hash": "0x01f9e728b017f57112d9c29c8068e6912671ffe5ad8ff07e4c4e7871ba3b4f50",
      "transactionType": "CALL",
      "contractName": null,
      "contractAddress": "0xf843dee7892e899cf7b0d79a5d952a1b0da25b5f",
      "function": "buy(uint256,bool,uint256)",
      "arguments": [
        "1",
        "true",
        "1000000000000000000"
      ],
      "transaction": {
        "from": "0x4b4b30e2e7c6463b03cdffd6c42329d357205334",
        "to": "0xf843dee7892e899cf7b0d79a5d952a1b0da25b5f",
        "gas": "0x90b59",
        "value": "0x0",
        "input": "0x438af924000000000000000000000000000000000000000000000000000000000000000100000000000000000000000000000000000000000000000000000000000000010000000000000000000000000000000000000000000000000de0b6b3a7640000",
        "nonce": "0xa8",
        "chainId": "0xaa36a7"
      },
      "additionalContracts": [],
      "isFixedGasLimit": false
    }
  ],
  "receipts": [
    {
      "status": "0x1",
      "cumulativeGasUsed": "0x37db65",
      "logs": [
        {
          "address": "0x9262cdc7d3de2b785231ca1effd2d562e638d85e",
          "topics": [
            "0xddf252ad1be2c89b69c2b068fc378daa952ba7f163c4a11628f55a4df523b3ef",
            "0x0000000000000000000000004b4b30e2e7c6463b03cdffd6c42329d357205334",
            "0x000000000000000000000000f843dee7892e899cf7b0d79a5d952a1b0da25b5f"
          ],
          "data": "0x000000000000000000000000000000000000000000000000071cbf4d0555476a",
          "blockHash": "0x8cd753956d9355309dbbb317aab633cf306a83440458b290400bb4d559945ecf",
          "blockNumber": "0x788cbe",
          "transactionHash": "0x01f9e728b017f57112d9c29c8068e6912671ffe5ad8ff07e4c4e7871ba3b4f50",
          "transactionIndex": "0xd",
          "logIndex": "0x4c",
          "removed": false
        },
        {
          "address": "0xf843dee7892e899cf7b0d79a5d952a1b0da25b5f",
          "topics": [
            "0x318c6e83dc99fba0aa3da9d2b1e26eab8c47b20821e88297b66fb7cb8a05189b"
          ],
          "data": "0x000000000000000000000000000000000000000000000000000000000000000100000000000000000000000000000000000000000000000000000000000000010000000000000000000000000000000000000000000000000de0b6b3a7640000000000000000000000000000000000000000000000000000071cbf4d0555476a0000000000000000000000004b4b30e2e7c6463b03cdffd6c42329d357205334",
          "blockHash": "0x8cd753956d9355309dbbb317aab633cf306a83440458b290400bb4d559945ecf",
          "blockNumber": "0x788cbe",
          "transactionHash": "0x01f9e728b017f57112d9c29c8068e6912671ffe5ad8ff07e4c4e7871ba3b4f50",
          "transactionIndex": "0xd",
          "logIndex": "0x4d",
          "removed": false
        }
      ],
      "logsBloom": "0x04000000000000000080001000000000000000000000000000000000000000000000000000000000000000000000000000000000000000000000008000000000000000000000000000000008000000000000000000000000000000000000000000000000000010040000000000004000000000000000000000000010000000000000000000000000010000000000000000000000000000000000000000000000000000000000000000000000000000010000000000000000000000200000000000000002000000000000000000000000000000000000100800000040000000000000000000000000000000000000000000000000000000000000000080000010",
      "type": "0x2",
      "transactionHash": "0x01f9e728b017f57112d9c29c8068e6912671ffe5ad8ff07e4c4e7871ba3b4f50",
      "transactionIndex": "0xd",
      "blockHash": "0x8cd753956d9355309dbbb317aab633cf306a83440458b290400bb4d559945ecf",
      "blockNumber": "0x788cbe",
      "gasUsed": "0x68c46",
      "effectiveGasPrice": "0x39905a393",
      "from": "0x4b4b30e2e7c6463b03cdffd6c42329d357205334",
      "to": "0xf843dee7892e899cf7b0d79a5d952a1b0da25b5f",
      "contractAddress": null
    }
  ],
  "libraries": [],
  "pending": [],
  "returns": {},
  "timestamp": 1741952846,
  "chain": 11155111,
  "commit": "ddff5ee"
}