{
  "transactions": [
    {
      "hash": "0xd8927681978518dc7fb05930ae74df5b8c7047aa824bbb542d830ea0d34dac22",
      "transactionType": "CALL",
      "contractName": null,
      "contractAddress": "0xf843dee7892e899cf7b0d79a5d952a1b0da25b5f",
      "function": "buy(uint256,bool,uint256)",
      "arguments": [
        "1",
        "true",
        "1000000000000000000"
      ],
      "transaction": {
        "from": "0x4b4b30e2e7c6463b03cdffd6c42329d357205334",
        "to": "0xf843dee7892e899cf7b0d79a5d952a1b0da25b5f",
        "gas": "0x8c392",
        "value": "0x0",
        "input": "0x438af924000000000000000000000000000000000000000000000000000000000000000100000000000000000000000000000000000000000000000000000000000000010000000000000000000000000000000000000000000000000de0b6b3a7640000",
        "nonce": "0xa9",
        "chainId": "0xaa36a7"
      },
      "additionalContracts": [],
      "isFixedGasLimit": false
    }
  ],
  "receipts": [
    {
      "status": "0x1",
      "cumulativeGasUsed": "0x18a42e2",
      "logs": [
        {
          "address": "0x9262cdc7d3de2b785231ca1effd2d562e638d85e",
          "topics": [
            "0xddf252ad1be2c89b69c2b068fc378daa952ba7f163c4a11628f55a4df523b3ef",
            "0x0000000000000000000000004b4b30e2e7c6463b03cdffd6c42329d357205334",
            "0x000000000000000000000000f843dee7892e899cf7b0d79a5d952a1b0da25b5f"
          ],
          "data": "0x00000000000000000000000000000000000000000000000007754e8bd87e2848",
          "blockHash": "0xef54adfe827f6e75c58fc148e3637819ad3d5cfeaa035528b304521c7e4b5836",
          "blockNumber": "0x788cc8",
          "transactionHash": "0xd8927681978518dc7fb05930ae74df5b8c7047aa824bbb542d830ea0d34dac22",
          "transactionIndex": "0xd8",
          "logIndex": "0x24e",
          "removed": false
        },
        {
          "address": "0xf843dee7892e899cf7b0d79a5d952a1b0da25b5f",
          "topics": [
            "0x318c6e83dc99fba0aa3da9d2b1e26eab8c47b20821e88297b66fb7cb8a05189b"
          ],
          "data": "0x000000000000000000000000000000000000000000000000000000000000000100000000000000000000000000000000000000000000000000000000000000010000000000000000000000000000000000000000000000000de0b6b3a764000000000000000000000000000000000000000000000000000007754e8bd87e28480000000000000000000000004b4b30e2e7c6463b03cdffd6c42329d357205334",
          "blockHash": "0xef54adfe827f6e75c58fc148e3637819ad3d5cfeaa035528b304521c7e4b5836",
          "blockNumber": "0x788cc8",
          "transactionHash": "0xd8927681978518dc7fb05930ae74df5b8c7047aa824bbb542d830ea0d34dac22",
          "transactionIndex": "0xd8",
          "logIndex": "0x24f",
          "removed": false
        }
      ],
      "logsBloom": "0x04000000000000000080001000000000000000000000000000000000000000000000000000000000000000000000000000000000000000000000008000000000000000000000000000000008000000000000000000000000000000000000000000000000000010040000000000004000000000000000000000000010000000000000000000000000010000000000000000000000000000000000000000000000000000000000000000000000000000010000000000000000000000200000000000000002000000000000000000000000000000000000100800000040000000000000000000000000000000000000000000000000000000000000000080000010",
      "type": "0x2",
      "transactionHash": "0xd8927681978518dc7fb05930ae74df5b8c7047aa824bbb542d830ea0d34dac22",
      "transactionIndex": "0xd8",
      "blockHash": "0xef54adfe827f6e75c58fc148e3637819ad3d5cfeaa035528b304521c7e4b5836",
      "blockNumber": "0x788cc8",
      "gasUsed": "0x5fe11",
      "effectiveGasPrice": "0x2c5a7bb77",
      "from": "0x4b4b30e2e7c6463b03cdffd6c42329d357205334",
      "to": "0xf843dee7892e899cf7b0d79a5d952a1b0da25b5f",
      "contractAddress": null
    }
  ],
  "libraries": [],
  "pending": [],
  "returns": {},
  "timestamp": 1741952977,
  "chain": 11155111,
  "commit": "ddff5ee"
}