{
  "transactions": [
    {
      "hash": "0x9567a7188577ef7287fa78852f11692fc3b18695a99769027f5d615450becbe9",
      "transactionType": "CALL",
      "contractName": null,
      "contractAddress": "0xd3d0f083d602bbba73e36b9bf90c0e39c9541eeb",
      "function": "buy(uint256,bool,uint256)",
      "arguments": [
        "6",
        "true",
        "1000000000000000000"
      ],
      "transaction": {
        "from": "0x4b4b30e2e7c6463b03cdffd6c42329d357205334",
        "to": "0xd3d0f083d602bbba73e36b9bf90c0e39c9541eeb",
        "gas": "0x99257",
        "value": "0x0",
        "input": "0x438af924000000000000000000000000000000000000000000000000000000000000000600000000000000000000000000000000000000000000000000000000000000010000000000000000000000000000000000000000000000000de0b6b3a7640000",
        "nonce": "0xe7",
        "chainId": "0xaa36a7"
      },
      "additionalContracts": [],
      "isFixedGasLimit": false
    }
  ],
  "receipts": [],
  "libraries": [],
  "pending": [],
  "returns": {},
  "timestamp": 1742024881,
  "chain": 11155111,
  "commit": "e076ef1"
}