{
  "transactions": [
    {
      "hash": "0x1006b097421665757ae4ca2e50bda5285c86dcbd304c91acb81ec95cba5b8911",
      "transactionType": "CALL",
      "contractName": null,
      "contractAddress": "0xf843dee7892e899cf7b0d79a5d952a1b0da25b5f",
      "function": "buy(uint256,bool,uint256)",
      "arguments": [
        "1",
        "true",
        "1000000000000000000"
      ],
      "transaction": {
        "from": "0x4b4b30e2e7c6463b03cdffd6c42329d357205334",
        "to": "0xf843dee7892e899cf7b0d79a5d952a1b0da25b5f",
        "gas": "0x8ac08",
        "value": "0x0",
        "input": "0x438af924000000000000000000000000000000000000000000000000000000000000000100000000000000000000000000000000000000000000000000000000000000010000000000000000000000000000000000000000000000000de0b6b3a7640000",
        "nonce": "0xaa",
        "chainId": "0xaa36a7"
      },
      "additionalContracts": [],
      "isFixedGasLimit": false
    }
  ],
  "receipts": [
    {
      "status": "0x1",
      "cumulativeGasUsed": "0xedad0f",
      "logs": [
        {
          "address": "0x9262cdc7d3de2b785231ca1effd2d562e638d85e",
          "topics": [
            "0xddf252ad1be2c89b69c2b068fc378daa952ba7f163c4a11628f55a4df523b3ef",
            "0x0000000000000000000000004b4b30e2e7c6463b03cdffd6c42329d357205334",
            "0x000000000000000000000000f843dee7892e899cf7b0d79a5d952a1b0da25b5f"
          ],
          "data": "0x00000000000000000000000000000000000000000000000007cd34f3f42b4156",
          "blockHash": "0xe6e414f0e61b2a671bcd3d63a952f1fa844e684abc8f010ec511122203c05b17",
          "blockNumber": "0x788cd6",
          "transactionHash": "0x1006b097421665757ae4ca2e50bda5285c86dcbd304c91acb81ec95cba5b8911",
          "transactionIndex": "0x78",
          "logIndex": "0x134",
          "removed": false
        },
        {
          "address": "0xf843dee7892e899cf7b0d79a5d952a1b0da25b5f",
          "topics": [
            "0x318c6e83dc99fba0aa3da9d2b1e26eab8c47b20821e88297b66fb7cb8a05189b"
          ],
          "data": "0x000000000000000000000000000000000000000000000000000000000000000100000000000000000000000000000000000000000000000000000000000000010000000000000000000000000000000000000000000000000de0b6b3a764000000000000000000000000000000000000000000000000000007cd34f3f42b41560000000000000000000000004b4b30e2e7c6463b03cdffd6c42329d357205334",
          "blockHash": "0xe6e414f0e61b2a671bcd3d63a952f1fa844e684abc8f010ec511122203c05b17",
          "blockNumber": "0x788cd6",
          "transactionHash": "0x1006b097421665757ae4ca2e50bda5285c86dcbd304c91acb81ec95cba5b8911",
          "transactionIndex": "0x78",
          "logIndex": "0x135",
          "removed": false
        }
      ],
      "logsBloom": "0x04000000000000000080001000000000000000000000000000000000000000000000000000000000000000000000000000000000000000000000008000000000000000000000000000000008000000000000000000000000000000000000000000000000000010040000000000004000000000000000000000000010000000000000000000000000010000000000000000000000000000000000000000000000000000000000000000000000000000010000000000000000000000200000000000000002000000000000000000000000000000000000100800000040000000000000000000000000000000000000000000000000000000000000000080000010",
      "type": "0x2",
      "transactionHash": "0x1006b097421665757ae4ca2e50bda5285c86dcbd304c91acb81ec95cba5b8911",
      "transactionIndex": "0x78",
      "blockHash": "0xe6e414f0e61b2a671bcd3d63a952f1fa844e684abc8f010ec511122203c05b17",
      "blockNumber": "0x788cd6",
      "gasUsed": "0x5edf9",
      "effectiveGasPrice": "0x288a47ac1",
      "from": "0x4b4b30e2e7c6463b03cdffd6c42329d357205334",
      "to": "0xf843dee7892e899cf7b0d79a5d952a1b0da25b5f",
      "contractAddress": null
    }
  ],
  "libraries": [],
  "pending": [],
  "returns": {},
  "timestamp": 1741953145,
  "chain": 11155111,
  "commit": "ddff5ee"
}