{
  "transactions": [
    {
      "hash": "0x7a3c0266db1baf04000620340ee0afbcfda3abe78254c5649611846d9a9813eb",
      "transactionType": "CALL",
      "contractName": null,
      "contractAddress": "0xd3d0f083d602bbba73e36b9bf90c0e39c9541eeb",
      "function": "buy(uint256,bool,uint256)",
      "arguments": [
        "7",
        "true",
        "1000000000000000000"
      ],
      "transaction": {
        "from": "0x4b4b30e2e7c6463b03cdffd6c42329d357205334",
        "to": "0xd3d0f083d602bbba73e36b9bf90c0e39c9541eeb",
        "gas": "0x8adf2",
        "value": "0x0",
        "input": "0x438af924000000000000000000000000000000000000000000000000000000000000000700000000000000000000000000000000000000000000000000000000000000010000000000000000000000000000000000000000000000000de0b6b3a7640000",
        "nonce": "0xea",
        "chainId": "0xaa36a7"
      },
      "additionalContracts": [],
      "isFixedGasLimit": false
    }
  ],
  "receipts": [
    {
      "status": "0x1",
      "cumulativeGasUsed": "0xcad7ca",
      "logs": [
        {
          "address": "0xe13286840a109a412e67077ee70191740aaa4d18",
          "topics": [
            "0xddf252ad1be2c89b69c2b068fc378daa952ba7f163c4a11628f55a4df523b3ef",
            "0x0000000000000000000000004b4b30e2e7c6463b03cdffd6c42329d357205334",
            "0x000000000000000000000000d3d0f083d602bbba73e36b9bf90c0e39c9541eeb"
          ],
          "data": "0x000000000000000000000000000000000000000000000000071cbf4d0555476a",
          "blockHash": "0x00058256621657a3907118f03c42b3429244e203ce9bef081b7fbf6a79a483d5",
          "blockNumber": "0x78a313",
          "blockTimestamp": "0x67d53314",
          "transactionHash": "0x7a3c0266db1baf04000620340ee0afbcfda3abe78254c5649611846d9a9813eb",
          "transactionIndex": "0x82",
          "logIndex": "0x14d",
          "removed": false
        },
        {
          "address": "0xd3d0f083d602bbba73e36b9bf90c0e39c9541eeb",
          "topics": [
            "0x318c6e83dc99fba0aa3da9d2b1e26eab8c47b20821e88297b66fb7cb8a05189b"
          ],
          "data": "0x000000000000000000000000000000000000000000000000000000000000000700000000000000000000000000000000000000000000000000000000000000010000000000000000000000000000000000000000000000000de0b6b3a7640000000000000000000000000000000000000000000000000000071cbf4d0555476a0000000000000000000000004b4b30e2e7c6463b03cdffd6c42329d357205334",
          "blockHash": "0x00058256621657a3907118f03c42b3429244e203ce9bef081b7fbf6a79a483d5",
          "blockNumber": "0x78a313",
          "blockTimestamp": "0x67d53314",
          "transactionHash": "0x7a3c0266db1baf04000620340ee0afbcfda3abe78254c5649611846d9a9813eb",
          "transactionIndex": "0x82",
          "logIndex": "0x14e",
          "removed": false
        }
      ],
      "logsBloom": "0x00000000000000000000001000000000000000000000000000000000000000000000000000000000000000000000000000000000000000000000000000000000004000000000000001000018000400000000000000000000000000000000000000000000000000040000000000000000000000000000000000080010000000000000000000000000100000000000000000000000000000000000000000000000000000000000000000000000000000000000000000040000000000200000000000000002000000000800000000000000000000000800100000000040000000000000000000000000000000000000000000000000000000000000000000000010",
      "type": "0x2",
      "transactionHash": "0x7a3c0266db1baf04000620340ee0afbcfda3abe78254c5649611846d9a9813eb",
      "transactionIndex": "0x82",
      "blockHash": "0x00058256621657a3907118f03c42b3429244e203ce9bef081b7fbf6a79a483d5",
      "blockNumber": "0x78a313",
      "gasUsed": "0x648a7",
      "effectiveGasPrice": "0x1b3a6d260",
      "from": "0x4b4b30e2e7c6463b03cdffd6c42329d357205334",
      "to": "0xd3d0f083d602bbba73e36b9bf90c0e39c9541eeb",
      "contractAddress": null
    }
  ],
  "libraries": [],
  "pending": [],
  "returns": {},
  "timestamp": 1742025494,
  "chain": 11155111,
  "commit": "e076ef1"
}