{
  "transactions": [
    {
      "hash": "0x46ab88d1e8ae4e9bacb27dfdeb6f08be1de833a6253e2cf23a5edc0a7760a21d",
      "transactionType": "CALL",
      "contractName": null,
      "contractAddress": "0xdeabe6cdaaa91047cd82b2da86883066b1fe120c",
      "function": "buy(uint256,bool,uint256)",
      "arguments": [
        "4",
        "true",
        "1000000000000000000"
      ],
      "transaction": {
        "from": "0x4b4b30e2e7c6463b03cdffd6c42329d357205334",
        "to": "0xdeabe6cdaaa91047cd82b2da86883066b1fe120c",
        "gas": "0x90b59",
        "value": "0x0",
        "input": "0x438af924000000000000000000000000000000000000000000000000000000000000000400000000000000000000000000000000000000000000000000000000000000010000000000000000000000000000000000000000000000000de0b6b3a7640000",
        "nonce": "0xd2",
        "chainId": "0xaa36a7"
      },
      "additionalContracts": [],
      "isFixedGasLimit": false
    }
  ],
  "receipts": [
    {
      "status": "0x1",
      "cumulativeGasUsed": "0x993664",
      "logs": [
        {
          "address": "0x81aaff46784c1ed119a86567648dc37c35e76c95",
          "topics": [
            "0xddf252ad1be2c89b69c2b068fc378daa952ba7f163c4a11628f55a4df523b3ef",
            "0x0000000000000000000000004b4b30e2e7c6463b03cdffd6c42329d357205334",
            "0x000000000000000000000000deabe6cdaaa91047cd82b2da86883066b1fe120c"
          ],
          "data": "0x000000000000000000000000000000000000000000000000071cbf4d0555476a",
          "blockHash": "0x59c282641b5fdc734f4d1c9bd2b559421f04c6a59c316424a8cf27ad007d8140",
          "blockNumber": "0x78a260",
          "blockTimestamp": "0x67d52a20",
          "transactionHash": "0x46ab88d1e8ae4e9bacb27dfdeb6f08be1de833a6253e2cf23a5edc0a7760a21d",
          "transactionIndex": "0x56",
          "logIndex": "0x91",
          "removed": false
        },
        {
          "address": "0xdeabe6cdaaa91047cd82b2da86883066b1fe120c",
          "topics": [
            "0x318c6e83dc99fba0aa3da9d2b1e26eab8c47b20821e88297b66fb7cb8a05189b"
          ],
          "data": "0x000000000000000000000000000000000000000000000000000000000000000400000000000000000000000000000000000000000000000000000000000000010000000000000000000000000000000000000000000000000de0b6b3a7640000000000000000000000000000000000000000000000000000071cbf4d0555476a0000000000000000000000004b4b30e2e7c6463b03cdffd6c42329d357205334",
          "blockHash": "0x59c282641b5fdc734f4d1c9bd2b559421f04c6a59c316424a8cf27ad007d8140",
          "blockNumber": "0x78a260",
          "blockTimestamp": "0x67d52a20",
          "transactionHash": "0x46ab88d1e8ae4e9bacb27dfdeb6f08be1de833a6253e2cf23a5edc0a7760a21d",
          "transactionIndex": "0x56",
          "logIndex": "0x92",
          "removed": false
        }
      ],
      "logsBloom": "0x00000000000000000000001000000000000000000000000000000000000000000000000020000000000000000000000000000000000000000000000000000000000000000000000000000008000000000000000000000000000000000000000000000000000020040000000000000010000020000000000000000010010000000000000000000000000000000000000000000000000000000000000000000000000000000000000000000000000000000000000002000000000000a00000000000000002000000000000000000000001000000000000100000000040000000000000000000000000000000000000000000000000000000000000000000000010",
      "type": "0x2",
      "transactionHash": "0x46ab88d1e8ae4e9bacb27dfdeb6f08be1de833a6253e2cf23a5edc0a7760a21d",
      "transactionIndex": "0x56",
      "blockHash": "0x59c282641b5fdc734f4d1c9bd2b559421f04c6a59c316424a8cf27ad007d8140",
      "blockNumber": "0x78a260",
      "gasUsed": "0x68c46",
      "effectiveGasPrice": "0x4f58b308",
      "from": "0x4b4b30e2e7c6463b03cdffd6c42329d357205334",
      "to": "0xdeabe6cdaaa91047cd82b2da86883066b1fe120c",
      "contractAddress": null
    }
  ],
  "libraries": [],
  "pending": [],
  "returns": {},
  "timestamp": 1742023201,
  "chain": 11155111,
  "commit": "e076ef1"
}