{
  "transactions": [
    {
      "hash": "0x9218ec60cf5a870428072a2b735b6089eec93a8c31ffe97950a0a8df959c4985",
      "transactionType": "CALL",
      "contractName": null,
      "contractAddress": "0x48a053465a0e439aadb61949cffc417e1e272b84",
      "function": "buy(uint256,bool,uint256)",
      "arguments": [
        "6",
        "true",
        "1000000000000000000"
      ],
      "transaction": {
        "from": "0x4b4b30e2e7c6463b03cdffd6c42329d357205334",
        "to": "0x48a053465a0e439aadb61949cffc417e1e272b84",
        "gas": "0x90a32",
        "value": "0x0",
        "input": "0x438af924000000000000000000000000000000000000000000000000000000000000000600000000000000000000000000000000000000000000000000000000000000010000000000000000000000000000000000000000000000000de0b6b3a7640000",
        "nonce": "0x98",
        "chainId": "0xaa36a7"
      },
      "additionalContracts": [],
      "isFixedGasLimit": false
    }
  ],
  "receipts": [
    {
      "status": "0x1",
      "cumulativeGasUsed": "0x134f4b5",
      "logs": [
        {
          "address": "0x533b950875527ecd9b7630272ffc2a6998417404",
          "topics": [
            "0xddf252ad1be2c89b69c2b068fc378daa952ba7f163c4a11628f55a4df523b3ef",
            "0x0000000000000000000000004b4b30e2e7c6463b03cdffd6c42329d357205334",
            "0x00000000000000000000000048a053465a0e439aadb61949cffc417e1e272b84"
          ],
          "data": "0x000000000000000000000000000000000000000000000000071cbf4d0555476a",
          "blockHash": "0x89f5be3d454deada8ff7f73cbdcac7e2c860191c6cd1bc91712699867d926a1d",
          "blockNumber": "0x788724",
          "blockTimestamp": "0x67d3d0b4",
          "transactionHash": "0x9218ec60cf5a870428072a2b735b6089eec93a8c31ffe97950a0a8df959c4985",
          "transactionIndex": "0x7b",
          "logIndex": "0x102",
          "removed": false
        },
        {
          "address": "0x48a053465a0e439aadb61949cffc417e1e272b84",
          "topics": [
            "0x9f81db15e86fd9b33c78e9a6f0e018f2f25aadac7ee976e404300b175772e833"
          ],
          "data": "0x000000000000000000000000000000000000000000000000000000000000000600000000000000000000000000000000000000000000000000000000000000010000000000000000000000000000000000000000000000000de0b6b3a7640000000000000000000000000000000000000000000000000000071cbf4d0555476a0000000000000000000000004b4b30e2e7c6463b03cdffd6c42329d357205334",
          "blockHash": "0x89f5be3d454deada8ff7f73cbdcac7e2c860191c6cd1bc91712699867d926a1d",
          "blockNumber": "0x788724",
          "blockTimestamp": "0x67d3d0b4",
          "transactionHash": "0x9218ec60cf5a870428072a2b735b6089eec93a8c31ffe97950a0a8df959c4985",
          "transactionIndex": "0x7b",
          "logIndex": "0x103",
          "removed": false
        }
      ],
      "logsBloom": "0x00000000000000020000200000000000000000000000000080000000000000000000080000000000000000000000000000000000000000000000000000000000000000000000000020000008000000000000000000000000000000040000000000000000000000040000000000000000000000000000000000000010000000000000000000000000000000000000000000000000000000000000000000000000000000000000000000108000000000000000000000000000000000000000000800000002000000000004000000000000000000000000100000000000000000000000000000000000000000000000002000000000000000000000000000000010",
      "type": "0x2",
      "transactionHash": "0x9218ec60cf5a870428072a2b735b6089eec93a8c31ffe97950a0a8df959c4985",
      "transactionIndex": "0x7b",
      "blockHash": "0x89f5be3d454deada8ff7f73cbdcac7e2c860191c6cd1bc91712699867d926a1d",
      "blockNumber": "0x788724",
      "gasUsed": "0x68b70",
      "effectiveGasPrice": "0x31bacc1",
      "from": "0x4b4b30e2e7c6463b03cdffd6c42329d357205334",
      "to": "0x48a053465a0e439aadb61949cffc417e1e272b84",
      "contractAddress": null
    }
  ],
  "libraries": [],
  "pending": [],
  "returns": {},
  "timestamp": 1741934774,
  "chain": 11155111,
  "commit": "bdfa1d4"
}