{
  "transactions": [
    {
      "hash": "0x6821286ccb0c824403140b3d6134375c0add1e502d0748789df74e943e48ae63",
      "transactionType": "CALL",
      "contractName": null,
      "contractAddress": "0xec6595c1ee095b60cda83742271d6cce456e452f",
      "function": "buy(uint256,bool,uint256)",
      "arguments": [
        "5",
        "true",
        "1000000000000000000"
      ],
      "transaction": {
        "from": "0x4b4b30e2e7c6463b03cdffd6c42329d357205334",
        "to": "0xec6595c1ee095b60cda83742271d6cce456e452f",
        "gas": "0x90d95",
        "value": "0x0",
        "input": "0x438af924000000000000000000000000000000000000000000000000000000000000000500000000000000000000000000000000000000000000000000000000000000010000000000000000000000000000000000000000000000000de0b6b3a7640000",
        "nonce": "0xdb",
        "chainId": "0xaa36a7"
      },
      "additionalContracts": [],
      "isFixedGasLimit": false
    }
  ],
  "receipts": [
    {
      "status": "0x1",
      "cumulativeGasUsed": "0x1899850",
      "logs": [
        {
          "address": "0x843a59317aa589bf3b075cec63d304fcc13d5703",
          "topics": [
            "0xddf252ad1be2c89b69c2b068fc378daa952ba7f163c4a11628f55a4df523b3ef",
            "0x0000000000000000000000004b4b30e2e7c6463b03cdffd6c42329d357205334",
            "0x000000000000000000000000ec6595c1ee095b60cda83742271d6cce456e452f"
          ],
          "data": "0x000000000000000000000000000000000000000000000000071cbf4d0555476a",
          "blockHash": "0xa37b55079287fc9955ce3ab22dbe439e312bfd0962e952a4024b6c090f51beee",
          "blockNumber": "0x78a2ae",
          "blockTimestamp": "0x67d52e10",
          "transactionHash": "0x6821286ccb0c824403140b3d6134375c0add1e502d0748789df74e943e48ae63",
          "transactionIndex": "0x10a",
          "logIndex": "0x144",
          "removed": false
        },
        {
          "address": "0xec6595c1ee095b60cda83742271d6cce456e452f",
          "topics": [
            "0x318c6e83dc99fba0aa3da9d2b1e26eab8c47b20821e88297b66fb7cb8a05189b"
          ],
          "data": "0x000000000000000000000000000000000000000000000000000000000000000500000000000000000000000000000000000000000000000000000000000000010000000000000000000000000000000000000000000000000de0b6b3a7640000000000000000000000000000000000000000000000000000071cbf4d0555476a0000000000000000000000004b4b30e2e7c6463b03cdffd6c42329d357205334",
          "blockHash": "0xa37b55079287fc9955ce3ab22dbe439e312bfd0962e952a4024b6c090f51beee",
          "blockNumber": "0x78a2ae",
          "blockTimestamp": "0x67d52e10",
          "transactionHash": "0x6821286ccb0c824403140b3d6134375c0add1e502d0748789df74e943e48ae63",
          "transactionIndex": "0x10a",
          "logIndex": "0x145",
          "removed": false
        }
      ],
      "logsBloom": "0x00000000000000000000001000000000000000000000000000000000000000000000000000000000000000000000000000000000000000000000000000000000000000000000000000000008002000000000000000000040000000000000000000000000000000040000000000000000000000000000000000000010000000000000000000000200000000000000001000000000004000000000000000000000000000000000000000000000000400000000000000000000000000200000000001000002000000400000000000000000000000000000100000000040002000000000000000000000000000000000000000000000000000000000000000000010",
      "type": "0x2",
      "transactionHash": "0x6821286ccb0c824403140b3d6134375c0add1e502d0748789df74e943e48ae63",
      "transactionIndex": "0x10a",
      "blockHash": "0xa37b55079287fc9955ce3ab22dbe439e312bfd0962e952a4024b6c090f51beee",
      "blockNumber": "0x78a2ae",
      "gasUsed": "0x68de4",
      "effectiveGasPrice": "0xed2c87f8",
      "from": "0x4b4b30e2e7c6463b03cdffd6c42329d357205334",
      "to": "0xec6595c1ee095b60cda83742271d6cce456e452f",
      "contractAddress": null
    }
  ],
  "libraries": [],
  "pending": [],
  "returns": {},
  "timestamp": 1742024210,
  "chain": 11155111,
  "commit": "e076ef1"
}