{
  "transactions": [
    {
      "hash": "0x879084b5bb43928e75fb61dd6f71d8eea4bd58b0ede020504433712bf45d9049",
      "transactionType": "CALL",
      "contractName": null,
      "contractAddress": "0x1033e19794d5f63672aa1cb1d1b243f2f3400e94",
      "function": "buy(uint256,bool,uint256)",
      "arguments": [
        "1",
        "true",
        "1000000000000000000"
      ],
      "transaction": {
        "from": "0x4b4b30e2e7c6463b03cdffd6c42329d357205334",
        "to": "0x1033e19794d5f63672aa1cb1d1b243f2f3400e94",
        "gas": "0x5afdc",
        "value": "0x0",
        "input": "0x438af924000000000000000000000000000000000000000000000000000000000000000100000000000000000000000000000000000000000000000000000000000000010000000000000000000000000000000000000000000000000de0b6b3a7640000",
        "nonce": "0x11f",
        "chainId": "0xaa36a7"
      },
      "additionalContracts": [],
      "isFixedGasLimit": false
    }
  ],
  "receipts": [
    {
      "status": "0x1",
      "cumulativeGasUsed": "0x1142301",
      "logs": [
        {
          "address": "0x35acaebea3c9edcc8b0c8ab9e33066c332d29b72",
          "topics": [
            "0xddf252ad1be2c89b69c2b068fc378daa952ba7f163c4a11628f55a4df523b3ef",
            "0x0000000000000000000000004b4b30e2e7c6463b03cdffd6c42329d357205334",
            "0x0000000000000000000000001033e19794d5f63672aa1cb1d1b243f2f3400e94"
          ],
          "data": "0x000000000000000000000000000000000000000000000000071cbf4d05554710",
          "blockHash": "0xd8026be56e055246d92b8a930c85ba5cbe390f2fe89ed28f591f47bf5b21b111",
          "blockNumber": "0x78ac9c",
          "transactionHash": "0x879084b5bb43928e75fb61dd6f71d8eea4bd58b0ede020504433712bf45d9049",
          "transactionIndex": "0xb8",
          "logIndex": "0x150",
          "removed": false
        },
        {
          "address": "0x1033e19794d5f63672aa1cb1d1b243f2f3400e94",
          "topics": [
            "0x318c6e83dc99fba0aa3da9d2b1e26eab8c47b20821e88297b66fb7cb8a05189b"
          ],
          "data": "0x000000000000000000000000000000000000000000000000000000000000000100000000000000000000000000000000000000000000000000000000000000010000000000000000000000000000000000000000000000000de0b6b3a7640000000000000000000000000000000000000000000000000000071cbf4d055547100000000000000000000000004b4b30e2e7c6463b03cdffd6c42329d357205334",
          "blockHash": "0xd8026be56e055246d92b8a930c85ba5cbe390f2fe89ed28f591f47bf5b21b111",
          "blockNumber": "0x78ac9c",
          "transactionHash": "0x879084b5bb43928e75fb61dd6f71d8eea4bd58b0ede020504433712bf45d9049",
          "transactionIndex": "0xb8",
          "logIndex": "0x151",
          "removed": false
        }
      ],
      "logsBloom": "0x0000100000000000000000100000000000000000000000000000000000000000000000000000000000000000000000000000000000000000000000000000000000000200000010000000000800000000000000000000000000000000000000000000000000000004000000000000000000000a000400000000000010000000000000000000000000000000000000000000000000000000000000000000000000000000000000000000000000000000000000000000000000000000200000000000000002000000000000000000000000000000000040100000020040000000000000000000000000000000000000000000040000000000000000000000000010",
      "type": "0x2",
      "transactionHash": "0x879084b5bb43928e75fb61dd6f71d8eea4bd58b0ede020504433712bf45d9049",
      "transactionIndex": "0xb8",
      "blockHash": "0xd8026be56e055246d92b8a930c85ba5cbe390f2fe89ed28f591f47bf5b21b111",
      "blockNumber": "0x78ac9c",
      "gasUsed": "0x41e05",
      "effectiveGasPrice": "0x1563d1ef4",
      "from": "0x4b4b30e2e7c6463b03cdffd6c42329d357205334",
      "to": "0x1033e19794d5f63672aa1cb1d1b243f2f3400e94",
      "contractAddress": null
    }
  ],
  "libraries": [],
  "pending": [],
  "returns": {},
  "timestamp": 1742056632,
  "chain": 11155111,
  "commit": "d5014dc"
}