{
  "transactions": [
    {
      "hash": "0x19316335896dd3d9557b6acd46a0f055cf067134b20598c04dd493227be9f142",
      "transactionType": "CALL",
      "contractName": null,
      "contractAddress": "0xfcc8577f0e41ea33952be8ff71390edb61c03d00",
      "function": "buy(uint256,bool,uint256)",
      "arguments": [
        "1",
        "true",
        "1000000000000000000"
      ],
      "transaction": {
        "from": "0x4b4b30e2e7c6463b03cdffd6c42329d357205334",
        "to": "0xfcc8577f0e41ea33952be8ff71390edb61c03d00",
        "gas": "0x90b59",
        "value": "0x0",
        "input": "0x438af924000000000000000000000000000000000000000000000000000000000000000100000000000000000000000000000000000000000000000000000000000000010000000000000000000000000000000000000000000000000de0b6b3a7640000",
        "nonce": "0xc0",
        "chainId": "0xaa36a7"
      },
      "additionalContracts": [],
      "isFixedGasLimit": false
    }
  ],
  "receipts": [
    {
      "status": "0x1",
      "cumulativeGasUsed": "0x107974a",
      "logs": [
        {
          "address": "0x7d465708e3351bb7a3decd4e2b37e1f1d40105a3",
          "topics": [
            "0xddf252ad1be2c89b69c2b068fc378daa952ba7f163c4a11628f55a4df523b3ef",
            "0x0000000000000000000000004b4b30e2e7c6463b03cdffd6c42329d357205334",
            "0x000000000000000000000000fcc8577f0e41ea33952be8ff71390edb61c03d00"
          ],
          "data": "0x000000000000000000000000000000000000000000000000071cbf4d0555476a",
          "blockHash": "0x43897615c8fcf8e091aa0468afc06b252b93fd3adfbd60315dbcb58e900f478c",
          "blockNumber": "0x78a181",
          "blockTimestamp": "0x67d51f34",
          "transactionHash": "0x19316335896dd3d9557b6acd46a0f055cf067134b20598c04dd493227be9f142",
          "transactionIndex": "0x9b",
          "logIndex": "0x138",
          "removed": false
        },
        {
          "address": "0xfcc8577f0e41ea33952be8ff71390edb61c03d00",
          "topics": [
            "0x318c6e83dc99fba0aa3da9d2b1e26eab8c47b20821e88297b66fb7cb8a05189b"
          ],
          "data": "0x000000000000000000000000000000000000000000000000000000000000000100000000000000000000000000000000000000000000000000000000000000010000000000000000000000000000000000000000000000000de0b6b3a7640000000000000000000000000000000000000000000000000000071cbf4d0555476a0000000000000000000000004b4b30e2e7c6463b03cdffd6c42329d357205334",
          "blockHash": "0x43897615c8fcf8e091aa0468afc06b252b93fd3adfbd60315dbcb58e900f478c",
          "blockNumber": "0x78a181",
          "blockTimestamp": "0x67d51f34",
          "transactionHash": "0x19316335896dd3d9557b6acd46a0f055cf067134b20598c04dd493227be9f142",
          "transactionIndex": "0x9b",
          "logIndex": "0x139",
          "removed": false
        }
      ],
      "logsBloom": "0x00000000000000000000001000000000000000000000000000000000000000000000000000000000000000400000000000000000000000000000000000000000000000000000000000000008000100000000000000000000000000000000000000000000000000040000000000000000001000000000000000000010000000000000000000000000000000000000000000010000000000000000000008000000400000000000000000000000000000000000000000000000000000200000000000000002000000000000000000000010000000000000100000000040000100000400000000000000000000000000000000000000000000000000000000000010",
      "type": "0x2",
      "transactionHash": "0x19316335896dd3d9557b6acd46a0f055cf067134b20598c04dd493227be9f142",
      "transactionIndex": "0x9b",
      "blockHash": "0x43897615c8fcf8e091aa0468afc06b252b93fd3adfbd60315dbcb58e900f478c",
      "blockNumber": "0x78a181",
      "gasUsed": "0x68c46",
      "effectiveGasPrice": "0x1044a79",
      "from": "0x4b4b30e2e7c6463b03cdffd6c42329d357205334",
      "to": "0xfcc8577f0e41ea33952be8ff71390edb61c03d00",
      "contractAddress": null
    }
  ],
  "libraries": [],
  "pending": [],
  "returns": {},
  "timestamp": 1742020405,
  "chain": 11155111,
  "commit": "e076ef1"
}