{
  "transactions": [
    {
      "hash": "0x29eceb1d7c354dbfa90fa0a55913593cf28563258ab87bf0c94b0b5083c658d3",
      "transactionType": "CALL",
      "contractName": null,
      "contractAddress": "0xfcc8577f0e41ea33952be8ff71390edb61c03d00",
      "function": "buy(uint256,bool,uint256)",
      "arguments": [
        "1",
        "true",
        "1000000000000000000"
      ],
      "transaction": {
        "from": "0x4b4b30e2e7c6463b03cdffd6c42329d357205334",
        "to": "0xfcc8577f0e41ea33952be8ff71390edb61c03d00",
        "gas": "0x8c392",
        "value": "0x0",
        "input": "0x438af924000000000000000000000000000000000000000000000000000000000000000100000000000000000000000000000000000000000000000000000000000000010000000000000000000000000000000000000000000000000de0b6b3a7640000",
        "nonce": "0xc5",
        "chainId": "0xaa36a7"
      },
      "additionalContracts": [],
      "isFixedGasLimit": false
    }
  ],
  "receipts": [
    {
      "status": "0x1",
      "cumulativeGasUsed": "0x10d6f11",
      "logs": [
        {
          "address": "0x7d465708e3351bb7a3decd4e2b37e1f1d40105a3",
          "topics": [
            "0xddf252ad1be2c89b69c2b068fc378daa952ba7f163c4a11628f55a4df523b3ef",
            "0x0000000000000000000000004b4b30e2e7c6463b03cdffd6c42329d357205334",
            "0x000000000000000000000000fcc8577f0e41ea33952be8ff71390edb61c03d00"
          ],
          "data": "0x00000000000000000000000000000000000000000000000007754e8bd87e2848",
          "blockHash": "0x3f1dfe82fc477c88f99fcf2c63fe2090c8abc662640a520280848c8d4b4ec257",
          "blockNumber": "0x78a1d6",
          "blockTimestamp": "0x67d5236c",
          "transactionHash": "0x29eceb1d7c354dbfa90fa0a55913593cf28563258ab87bf0c94b0b5083c658d3",
          "transactionIndex": "0x7a",
          "logIndex": "0xda",
          "removed": false
        },
        {
          "address": "0xfcc8577f0e41ea33952be8ff71390edb61c03d00",
          "topics": [
            "0x318c6e83dc99fba0aa3da9d2b1e26eab8c47b20821e88297b66fb7cb8a05189b"
          ],
          "data": "0x000000000000000000000000000000000000000000000000000000000000000100000000000000000000000000000000000000000000000000000000000000010000000000000000000000000000000000000000000000000de0b6b3a764000000000000000000000000000000000000000000000000000007754e8bd87e28480000000000000000000000004b4b30e2e7c6463b03cdffd6c42329d357205334",
          "blockHash": "0x3f1dfe82fc477c88f99fcf2c63fe2090c8abc662640a520280848c8d4b4ec257",
          "blockNumber": "0x78a1d6",
          "blockTimestamp": "0x67d5236c",
          "transactionHash": "0x29eceb1d7c354dbfa90fa0a55913593cf28563258ab87bf0c94b0b5083c658d3",
          "transactionIndex": "0x7a",
          "logIndex": "0xdb",
          "removed": false
        }
      ],
      "logsBloom": "0x00000000000000000000001000000000000000000000000000000000000000000000000000000000000000400000000000000000000000000000000000000000000000000000000000000008000100000000000000000000000000000000000000000000000000040000000000000000001000000000000000000010000000000000000000000000000000000000000000010000000000000000000008000000400000000000000000000000000000000000000000000000000000200000000000000002000000000000000000000010000000000000100000000040000100000400000000000000000000000000000000000000000000000000000000000010",
      "type": "0x2",
      "transactionHash": "0x29eceb1d7c354dbfa90fa0a55913593cf28563258ab87bf0c94b0b5083c658d3",
      "transactionIndex": "0x7a",
      "blockHash": "0x3f1dfe82fc477c88f99fcf2c63fe2090c8abc662640a520280848c8d4b4ec257",
      "blockNumber": "0x78a1d6",
      "gasUsed": "0x5fe11",
      "effectiveGasPrice": "0x62f1511",
      "from": "0x4b4b30e2e7c6463b03cdffd6c42329d357205334",
      "to": "0xfcc8577f0e41ea33952be8ff71390edb61c03d00",
      "contractAddress": null
    }
  ],
  "libraries": [],
  "pending": [],
  "returns": {},
  "timestamp": 1742021485,
  "chain": 11155111,
  "commit": "e076ef1"
}