{
  "transactions": [
    {
      "hash": "0x904d3661ea4548ad4920e0238c48a41497d48a727282ccfa9ec6d64d868f94a0",
      "transactionType": "CALL",
      "contractName": null,
      "contractAddress": "0xd3d0f083d602bbba73e36b9bf90c0e39c9541eeb",
      "function": "buy(uint256,bool,uint256)",
      "arguments": [
        "6",
        "true",
        "1000000000000000000"
      ],
      "transaction": {
        "from": "0x4b4b30e2e7c6463b03cdffd6c42329d357205334",
        "to": "0xd3d0f083d602bbba73e36b9bf90c0e39c9541eeb",
        "gas": "0x845c9",
        "value": "0x0",
        "input": "0x438af924000000000000000000000000000000000000000000000000000000000000000600000000000000000000000000000000000000000000000000000000000000010000000000000000000000000000000000000000000000000de0b6b3a7640000",
        "nonce": "0xe8",
        "chainId": "0xaa36a7"
      },
      "additionalContracts": [],
      "isFixedGasLimit": false
    }
  ],
  "receipts": [
    {
      "status": "0x1",
      "cumulativeGasUsed": "0xc5cad1",
      "logs": [
        {
          "address": "0xe13286840a109a412e67077ee70191740aaa4d18",
          "topics": [
            "0xddf252ad1be2c89b69c2b068fc378daa952ba7f163c4a11628f55a4df523b3ef",
            "0x0000000000000000000000004b4b30e2e7c6463b03cdffd6c42329d357205334",
            "0x000000000000000000000000d3d0f083d602bbba73e36b9bf90c0e39c9541eeb"
          ],
          "data": "0x00000000000000000000000000000000000000000000000007754e8bd87e2848",
          "blockHash": "0xf1626d2f3572d1d9b47dbfa67d92722b8961346cdf2382ac5f4d85f0bcfee35e",
          "blockNumber": "0x78a2e5",
          "blockTimestamp": "0x67d530d4",
          "transactionHash": "0x904d3661ea4548ad4920e0238c48a41497d48a727282ccfa9ec6d64d868f94a0",
          "transactionIndex": "0x7e",
          "logIndex": "0xd8",
          "removed": false
        },
        {
          "address": "0xd3d0f083d602bbba73e36b9bf90c0e39c9541eeb",
          "topics": [
            "0x318c6e83dc99fba0aa3da9d2b1e26eab8c47b20821e88297b66fb7cb8a05189b"
          ],
          "data": "0x000000000000000000000000000000000000000000000000000000000000000600000000000000000000000000000000000000000000000000000000000000010000000000000000000000000000000000000000000000000de0b6b3a764000000000000000000000000000000000000000000000000000007754e8bd87e28480000000000000000000000004b4b30e2e7c6463b03cdffd6c42329d357205334",
          "blockHash": "0xf1626d2f3572d1d9b47dbfa67d92722b8961346cdf2382ac5f4d85f0bcfee35e",
          "blockNumber": "0x78a2e5",
          "blockTimestamp": "0x67d530d4",
          "transactionHash": "0x904d3661ea4548ad4920e0238c48a41497d48a727282ccfa9ec6d64d868f94a0",
          "transactionIndex": "0x7e",
          "logIndex": "0xd9",
          "removed": false
        }
      ],
      "logsBloom": "0x00000000000000000000001000000000000000000000000000000000000000000000000000000000000000000000000000000000000000000000000000000000004000000000000001000018000400000000000000000000000000000000000000000000000000040000000000000000000000000000000000080010000000000000000000000000100000000000000000000000000000000000000000000000000000000000000000000000000000000000000000040000000000200000000000000002000000000800000000000000000000000800100000000040000000000000000000000000000000000000000000000000000000000000000000000010",
      "type": "0x2",
      "transactionHash": "0x904d3661ea4548ad4920e0238c48a41497d48a727282ccfa9ec6d64d868f94a0",
      "transactionIndex": "0x7e",
      "blockHash": "0xf1626d2f3572d1d9b47dbfa67d92722b8961346cdf2382ac5f4d85f0bcfee35e",
      "blockNumber": "0x78a2e5",
      "gasUsed": "0x5fd3e",
      "effectiveGasPrice": "0x11c65619b",
      "from": "0x4b4b30e2e7c6463b03cdffd6c42329d357205334",
      "to": "0xd3d0f083d602bbba73e36b9bf90c0e39c9541eeb",
      "contractAddress": null
    }
  ],
  "libraries": [],
  "pending": [],
  "returns": {},
  "timestamp": 1742024917,
  "chain": 11155111,
  "commit": "e076ef1"
}