{
  "transactions": [
    {
      "hash": "0x32d9793399a849ccdd4cae1e70e894c79b34d536700435d1bc5f7e2dab7440ee",
      "transactionType": "CALL",
      "contractName": null,
      "contractAddress": "0x77d941fdc4d95347bf877094ad96c7a4730c7dd3",
      "function": "buy(uint256,bool,uint256)",
      "arguments": [
        "8",
        "true",
        "1000000000000000000"
      ],
      "transaction": {
        "from": "0x4b4b30e2e7c6463b03cdffd6c42329d357205334",
        "to": "0x77d941fdc4d95347bf877094ad96c7a4730c7dd3",
        "gas": "0x845c9",
        "value": "0x0",
        "input": "0x438af924000000000000000000000000000000000000000000000000000000000000000800000000000000000000000000000000000000000000000000000000000000010000000000000000000000000000000000000000000000000de0b6b3a7640000",
        "nonce": "0xf8",
        "chainId": "0xaa36a7"
      },
      "additionalContracts": [],
      "isFixedGasLimit": false
    }
  ],
  "receipts": [
    {
      "status": "0x1",
      "cumulativeGasUsed": "0x8fa1d5",
      "logs": [
        {
          "address": "0x52b7735109ef5931ec8661399135d67cfadb3bff",
          "topics": [
            "0xddf252ad1be2c89b69c2b068fc378daa952ba7f163c4a11628f55a4df523b3ef",
            "0x0000000000000000000000004b4b30e2e7c6463b03cdffd6c42329d357205334",
            "0x00000000000000000000000077d941fdc4d95347bf877094ad96c7a4730c7dd3"
          ],
          "data": "0x00000000000000000000000000000000000000000000000007754e8bd87e2848",
          "blockHash": "0x9011bdfcc30c1e21d725bddbd7b583a8afdde1200505528dbc7ea732559df978",
          "blockNumber": "0x78a371",
          "blockTimestamp": "0x67d537ac",
          "transactionHash": "0x32d9793399a849ccdd4cae1e70e894c79b34d536700435d1bc5f7e2dab7440ee",
          "transactionIndex": "0x72",
          "logIndex": "0x87",
          "removed": false
        },
        {
          "address": "0x77d941fdc4d95347bf877094ad96c7a4730c7dd3",
          "topics": [
            "0x318c6e83dc99fba0aa3da9d2b1e26eab8c47b20821e88297b66fb7cb8a05189b"
          ],
          "data": "0x000000000000000000000000000000000000000000000000000000000000000800000000000000000000000000000000000000000000000000000000000000010000000000000000000000000000000000000000000000000de0b6b3a764000000000000000000000000000000000000000000000000000007754e8bd87e28480000000000000000000000004b4b30e2e7c6463b03cdffd6c42329d357205334",
          "blockHash": "0x9011bdfcc30c1e21d725bddbd7b583a8afdde1200505528dbc7ea732559df978",
          "blockNumber": "0x78a371",
          "blockTimestamp": "0x67d537ac",
          "transactionHash": "0x32d9793399a849ccdd4cae1e70e894c79b34d536700435d1bc5f7e2dab7440ee",
          "transactionIndex": "0x72",
          "logIndex": "0x88",
          "removed": false
        }
      ],
      "logsBloom": "0x00000000000000000000001000000000000000000000000000000000000000000100000000000000000000000000000000000000000000000000000000000000200000000000000000000008000000000000000000200000080000000000000000000000000000040000000000000000000000000000000000000010000000000000000000000000004080000000000000000000000000000000000000000000000000000000000000000000000000000000000000000000000000200000000000080002000000000000000000000000000000000000100000000040000040000000000000000000000000000000000000000000004000000000000000000010",
      "type": "0x2",
      "transactionHash": "0x32d9793399a849ccdd4cae1e70e894c79b34d536700435d1bc5f7e2dab7440ee",
      "transactionIndex": "0x72",
      "blockHash": "0x9011bdfcc30c1e21d725bddbd7b583a8afdde1200505528dbc7ea732559df978",
      "blockNumber": "0x78a371",
      "gasUsed": "0x5fd3e",
      "effectiveGasPrice": "0x2000a7422",
      "from": "0x4b4b30e2e7c6463b03cdffd6c42329d357205334",
      "to": "0x77d941fdc4d95347bf877094ad96c7a4730c7dd3",
      "contractAddress": null
    }
  ],
  "libraries": [],
  "pending": [],
  "returns": {},
  "timestamp": 1742026670,
  "chain": 11155111,
  "commit": "e076ef1"
}