{
  "transactions": [
    {
      "hash": "0x8eabf234d82a09eef7379ab85b83c6a435276796525e675251619deb72383e2b",
      "transactionType": "CALL",
      "contractName": null,
      "contractAddress": "0x77d941fdc4d95347bf877094ad96c7a4730c7dd3",
      "function": "buy(uint256,bool,uint256)",
      "arguments": [
        "8",
        "true",
        "1000000000000000000"
      ],
      "transaction": {
        "from": "0x4b4b30e2e7c6463b03cdffd6c42329d357205334",
        "to": "0x77d941fdc4d95347bf877094ad96c7a4730c7dd3",
        "gas": "0x99257",
        "value": "0x0",
        "input": "0x438af924000000000000000000000000000000000000000000000000000000000000000800000000000000000000000000000000000000000000000000000000000000010000000000000000000000000000000000000000000000000de0b6b3a7640000",
        "nonce": "0xf7",
        "chainId": "0xaa36a7"
      },
      "additionalContracts": [],
      "isFixedGasLimit": false
    }
  ],
  "receipts": [],
  "libraries": [],
  "pending": [],
  "returns": {},
  "timestamp": 1742026634,
  "chain": 11155111,
  "commit": "e076ef1"
}